:060000000203C10210031F
:03000B0002100BD5
:03001300021013C5
:03001B0002101BB5
:03002300021023A5
:03002B0002102B95
:0300330002103385
:03003B0002103B75
:0300430002104365
:03004B0002104B55
:0300530002105345
:03005B0002105B35
:100060008E088F09750A10750B00C3E50A94885035
:1000700014AF0BAE0A12034CE4250BF50B740235DA
:100080000AF50A80E5750C88750D10750A10750B58
:100090000085080E85090FE50F450E700302015318
:1000A000850E10850F11D3E5119440E510940040A2
:1000B00006751000751140E4F517F512F513751764
:1000C00001E4F514F515C3E5159511E514951050E7
:1000D0003FE50D2515FFE50C3514FE1203A88F161C
:1000E000E50B2515FFE50A3514FEAD16120336E5BE
:1000F0000B2515FFE50A3514FE1203A8EF651660FF
:1001000005E4F517800A0515E51570BA051480B6E3
:10011000E51770110513E51370020512C39402E58B
:100120001294004099E5177002FF22E511250DF5A4
:100130000DE510350CF50CE511250BF50BE510352B
:100140000AF50AC3E50F9511F50FE50E9510F50EAA
:100150000200977F01227F007E881203A8EF644F80
:1001600060030202047F017E881203A8EF644160ED
:10017000030202047F027E881203A8EF6444600336
:100180000202047F037E881203A8EF644270757F29
:10019000047E881203A87526008F277F057E8812AB
:1001A00003A8EFFEEE42267F067E881203A8EF70BA
:1001B000537F077E881203A8EF7049E52745266024
:1001C00043D3E52794F0E526947750387F087E885E
:1001D0001203A87528008F297F097E881203A8EFD3
:1001E000FEEE4228AD27AC267F107E88120205EF76
:1001F000B52911EEB5280DAF27AE26120060EF60CD
:10020000031203BA228E188F198C1A8D1B74FFF5F6
:100210001CF51DE4F51EF51FC3E51F951BE51E9596
:100220001A5045E519251FFFE518351EFE1203A8D3
:10023000EFFEEE621CE4FDE51C30E713E51D25E052
:10024000FFE51C336410F51CEF6421F51D800BE500
:100250001D25E0F51DE51C33F51C0DBD08D9051F56
:10026000E51F70B4051E80B0AE1CAF1D227F007E5E
:100270000212039EEF645560037F00227F017E021D
:1002800012039EEF64AA60037F00227402FFFE1235
:10029000039EEF646960037F00227F037E021203E6
:1002A0009EEF64967F0160027F0022A2AFE433F5E7
:1002B00025C2AFA9F4AADF8FF4E5DF54CF4410F5CF
:1002C000DFEB30E4038524F58CF38DF275F1F08BD0
:1002D000F643F60212036089F48ADFE52524FF92D3
:1002E000AF0203C7E4F52AF52BA2AF33F9C2AFAED4
:1002F000F4ABDF8FF4E5DF54CF4410F5DFE52B2DB1
:10030000F582E52A3CF583E493FF8EF48BDFE92444
:10031000FF92AF22C2AFE4F5F443CF1012026DEFAB
:10032000600C12015612026DEF60031203B2120349
:100330007143CF1080FBAB05C3EE9410400DAD07A9
:10034000AC068B247B10E4FF1202AB22AD07AC0697
:10035000C3EC94104009E4F5247B20FF1202AB2289
:10036000000000000000000000000000000000008D
:1003700022C2AFE4F5F4E5DF54CF4410F5DF0218F4
:1003800000AB05AD07AC068B247B107F020202ABED
:10039000AD07AC06E4F5247B207F020202ABAD077B
:1003A000AC067F021202E422AD07AC06E4FF1202A3
:1003B000E422C2AFE4F5F40200007F007E020203F3
:0B03C0009075812B02031443CF102224
:03101B000243B3DA
:0310230002580B65
:03105B000254B18B
:10108000900458EFF0E4900460F0900458E090036E
:101090002E1227E812292B900459F0A3EFF0E47FD9
:1010A00001FEFDFC900458E0F9F8121E528F198ED3
:1010B000188D178C16AF011259A190045EEEF0A3A3
:1010C000EFF012283B400512294D8005E490045BA7
:1010D000F090045BE064016003021232900458E077
:1010E000FF2452122850E0C394FA74809480500672
:1010F00012284DE004F01228FEFCE4FBFAF9F8C3D4
:10110000121E2E600302121F90032DE090045DF06A
:101110001260FFEF6030E490045BF0A3F0122888C7
:10112000501812284DE0C3940174809480400690BA
:10113000045BE004F012291280E31228BB40079000
:10114000045DE0240FF0900458E02452122850125D
:10115000296D500302121FE490045BF012608EEFC1
:10116000705E90045CF01228885022900458E06F62
:10117000601612604090045CE02452122850E0C3D4
:101180009F400512294D800512291280D91260FF57
:10119000EF3395E04F706390045BE0705DA3F01255
:1011A00028885056900458E06F60101260409004F8
:1011B0005C1228A2E0C39F4002803C12291280DF0B
:1011C0001260FFEF3395E04F703090045DF09004B3
:1011D0005CF0122888501812284DE0C394027480E5
:1011E0009480400690045DE004F012291280E390A0
:1011F000045D1228BE400312294D90045BE0640197
:101200007002D200E5154519FFE5144518FEE513F7
:101210004517FDE51245168F158E148D13F51290A6
:101220000458E0FF246A1227FEE4F0A31228950276
:101230001445900458E0FF125E45900459E0FCA369
:10124000E0FDD312282F400812289FE004F0800B05
:1012500090050DE004F012289FE4F0122935C3E454
:101260009FFBE49EFAC3ED9BEA1228314066D3123D
:10127000283C50601228DCF583E412289512286679
:101280006003021399900459E0FEA3E0FF90045814
:10129000E090035E122882EE8FF0121CD412602BB5
:1012A00012281D4009122858E475F00180191260B7
:1012B0002BC3E49FFFE49EFE12281D4003021399F6
:1012C00012285874FFF5F0121CD4122813E4F0A36E
:1012D000F0021399122935C3E49FFFE41228395014
:1012E000731228DC122891F583E4F0746A2FF582DA
:1012F000E43403F583E0FF75F00A84E5F07044C33D
:10130000EF946474809480900458E040101228E1B7
:10131000F583E4F0D20190038E04F0802612285D5C
:10132000C083C082E0FEA3E0FF90037BE0A2E7134E
:10133000FD3395E0FCC3EF9DFFEE9CD082D083F09F
:10134000A3EFF0900458E0FF900506E06F704A7438
:10135000FFF08045122935D312283C403C900458B8
:10136000E01228E11228667030122954122891F5F3
:1013700083E064207023122954F583E4F090037B0A
:10138000E0A2E713A2E713FD3395E0FC75F002EF4E
:10139000122860EC8DF0121CD41228FE4D4E4F70B6
:1013A0000302145190045EE0FCA3E0FDAE04780259
:1013B000CEA2E713CE13D8F8FFC3ED9FFFEC12289F
:1013C00039400302144A1228ADE004F012609690EE
:1013D000045DEFF0E490045CF012288850181228A5
:1013E0004DE0C3940174809480400690045BE00457
:1013F000F012291280E31228BB400890032DE090E0
:10140000045DF0900458E0FB1228B112296D5003DE
:1014100002149B74882B1228B3E4F0AF19AE18ADF8
:1014200017AC16121E21E5155FFFE5145EFEE513ED
:101430005DFDE5125C8F158E148D13F51274522B21
:10144000F582E43403F583E4F0221228ADE014F0D1
:1014500022900458E02452122850122868700890F4
:101460000458E0FF1245C4E51A14FF900458E06FD9
:10147000702990050DE0C3951A4020E490045CF0BB
:10148000122888500E12284DE0600312294D1229AF
:101490001280ED90045BE07002C20022900427E00D
:1014A0006060900448E475F001121CD4C3900449B4
:1014B000E09464900448E094004017E4F0A3F090B6
:1014C0000423E004F0E094064002E4F090041E746B
:1014D00001F0900445E475F001121CD490041EE064
:1014E0007012C3900446E09432900445E09400509A
:1014F000030217FBE4900445F0A3F090041EF002F1
:10150000263CE4900457F0900457E0FFC394065043
:101510005A125D66900458EFF06048125E5B9004CA
:1015200057E07008A3E0FF124D638037900457E046
:10153000B40108A3E0FF1244C08028900457E0B42F
:101540000305124E5D801C900457E0B40205124959
:10155000158010900457E0B404047F018002E4FF7A
:10156000125EA9900457E004F0809C900420E07083
:1015700002A3E0601990042074FFF5F0121CD490CF
:101580000420E07002A3E0700590041E04F01260D5
:10159000D4EF601D1260DA900429E06F60131260CE
:1015A000DA900429EFF090041E7401F07F04125FBA
:1015B000B2900456E0604E900442E475F001121CB3
:1015C000D4900434E475F001121CD4C3900435E0C7
:1015D00094F4900434E094014019E4F0A3F09004F2
:1015E0002BE07F0070027F0190042BEFF090041E2F
:1015F0007401F0C3900443E09488900442E0941393
:101600004003124AC9900424E0602390044AE47520
:10161000F001121CD4C390044BE0948890044AE07B
:101620009413400AE4900424F090041E04F0E4FFB4
:10163000FEFDFC90043C121E71C3121E2E604390EE
:10164000043C121E65EF24FFFFEE34FFFEED34FF75
:10165000FDEC34FFFC90043C121E7DE4FFFEFDFC1B
:1016600090043C121E71C3121E2E7016900426E0C8
:101670006004E4FF80027F011255277E337FFB1256
:10168000603690041FE07003021721900450121E70
:1016900065EF2401FFE43EFEE43DFDE43CFC9004E4
:1016A00050121E7DE47F607EEAFDFC900450121E05
:1016B00071C3121E2E4016900450121E89000000A5
:1016C0000090044DE0C3941E5003E004F0900436F3
:1016D000121E65EF2401FFE43EFEE43DFDE43CFC08
:1016E000900436121E7D7F407E777D1B7C00900427
:1016F00036121E71C3121E2E4027900436121E8908
:10170000000000007F02125FB27E347F08125A7818
:1017100090044DE0FF7E001249F77E337F16125A87
:10172000781260E0900447E06F600EEFF0E4900400
:1017300040F0A3F090041E04F0EF6003B4060B9099
:101740000459E4F0A374FAF08017EFB4010C90048C
:10175000597405F0A374DCF08007E4900459F0A3F9
:10176000F0900459E0FCA3E0FD4C6032900440E4AA
:1017700075F001121CD4C3900441E09D900440E038
:101780009C403FE4F0A3F0900425E07E0070027ED0
:1017900001900425EEF090041E7401F08024EF64A3
:1017A000036004EFB4040E900425E0701504F0907B
:1017B000041EF0800D900425E06007E4F090041E04
:1017C00004F0900445E475F001121CD490041EE06E
:1017D000700FC3900446E09432900445E0940040BA
:1017E0000EE4900445F0A3F090041EF012263C1283
:1017F0004C4F7B017A04792C12482F2243CF1022C0
:10180000023E121260CEEF60097B017A0479E90290
:1018100052887B017A0479E9125288EF7003021B27
:10182000F2E4900457F07F56125DE79004E9E06F10
:10183000702790045704F0E4FC74E92CF582E4343A
:1018400004F583E0FF125DE774E92CF582E43404CB
:10185000F583EFF00CECB40FE09004E9E06456601F
:101860000E7E347F34125A789004E9E0FF80231210
:101870004EAB9004F7E06F60237E347F41125A78BC
:101880009004F7E0FF12543A7E347F51125A7812D6
:101890004EAB12543A7E347F31025A789004EAE01B
:1018A000900458F09004EDE0900459F09004EEE0BC
:1018B00090045AF09004EFE0FF9004F1E0FBA3E005
:1018C000FDA3E090045BF09004F4E0FCEDC413137E
:1018D0005401900463F0EDC41313135401A3F0EF0B
:1018E0001313135401900469F090045AE0FF13138A
:1018F000540190046AF09004E8E060489004F8E035
:10190000FE900458E06E703C9004F9E0FE9004599B
:10191000E06E70309004FAE0FEEFB506279004E622
:10192000E0FF900463E0B5071B9004E7E0FF90043C
:1019300064E0B5070F9004E5E0FF900469E06F7084
:1019400003021BF2900458E09004F8F0900459E070
:10195000FF9004F9F090045AE0FE9004FAF090042D
:1019600063E09004E6F0900464E09004E7F09004F3
:1019700069E09004E5F09004E87401F0EE54C07E54
:101980000070027E01900461EEF0EFC45407FF90F6
:10199000045CF0A37401F0E4A3F0BF0203F0802D17
:1019A00090045CE0FFB4010890045E7402F0801DB6
:1019B000EFB4030890045E7401F08011EFB40508E1
:1019C00090045E7403F08005E490045DF090045987
:1019D000E0FF5403FE90045FF0BE0205E4A3F08034
:1019E0001D90045FE0FEB40306A37401F0800FEEC7
:1019F000900460B401057402F0800374FFF0900459
:101A000058E0FEC3946C50089004627410F0800F8C
:101A1000EE24A4900462F0D3941F4003741FF0EBF3
:101A2000541F900467F090045BE0541F900468F02A
:101A3000E4900465F0A3F0EF540C701AA3E0701664
:101A4000A3E07012EC543F700DED543F7008900409
:101A5000657403F08079900459E0FF540C640C60C5
:101A60000AEF5404601AE0540860157E347F571260
:101A70005A78900459E0FF12543A7E347F31804CFA
:101A8000900459E05404601D900468E0FFC3940181
:101A9000400DEFD394185007900465740180237EA5
:101AA000347F668027900459E054086022900467D0
:101AB000E0FFC394014011EFD39418500B900465DC
:101AC0007402F0A3EFF080077E347F7C125A787E98
:101AD000347F91125A78900457E060067E347FA1DB
:101AE00080047E347FA5125A787E347FA9125A78FA
:101AF000900461E0FF7E001249F77E347FAD125AF8
:101B00007890045CE0FF7E001249F77E347FB512C6
:101B10005A7890045FE0FF7E001249F77E347FBD63
:101B2000125A78900458E0FF12543A7E347F2512FE
:101B30005A7890045AE0FF12543A7E347F31125A98
:101B40007890045DE070077E347FC1125A7890046B
:101B500060E0B4FF077E347FDF125A787E347FF175
:101B6000125A78900464E060067E347FFA80047E26
:101B7000347FFC125A78900463E060077E347FFE65
:101B8000125A787E347F31125A7890045BE0548088
:101B900060077E357F03125A787B017A0479E91257
:101BA000443A900461E0FF90045DE0FDA3E0FB9007
:101BB0000460E090046EF0900462E090046FF09096
:101BC0000463E0900470F0900464E0900471F0907D
:101BD0000465E0900472F0900466E0900473F09065
:101BE0000469E0900474F090046AE0900475F012C7
:101BF00021EC22BB010689828A83E0225002E7227F
:101C0000BBFE02E32289828A83E49322BB010CE5B6
:101C10008229F582E5833AF583E0225006E92582A0
:101C2000F8E622BBFE06E92582F8E222E58229F5E4
:101C300082E5833AF583E49322BB010689828A8395
:101C4000F0225002F722BBFE01F322F8BB010DE5A2
:101C50008229F582E5833AF583E8F0225006E925EA
:101C600082C8F622BBFE05E92582C8F222EF8DF07C
:101C7000A4A8F0CF8CF0A428CE8DF0A42EFE22BC18
:101C8000000BBE0029EF8DF084FFADF022E4CCF80C
:101C900075F008EF2FFFEE33FEEC33FCEE9DEC9871
:101CA0004005FCEE9DFE0FD5F0E9E4CEFD22EDF8F7
:101CB000F5F0EE8420D21CFEADF075F008EF2FFF9A
:101CC000ED33FD4007985006D5F0F222C398FD0F82
:101CD000D5F0EA22C5F0F8A3E028F0C5F0F8E582D7
:101CE000158270021583E038F022EF2BFFEE3AFEEA
:101CF000ED39FDEC38FC22E88FF0A4CC8BF0A42C5D
:101D0000FCE98EF0A42CFC8AF0EDA42CFCEA8EF009
:101D1000A4CDA8F08BF0A42DCC3825F0FDE98FF0F0
:101D2000A42CCD35F0FCEB8EF0A4FEA9F0EB8FF0E7
:101D3000A4CFC5F02ECD39FEE43CFCEAA42DCE356F
:101D4000F0FDE43CFC2275F008758200EF2FFFEEF9
:101D500033FECD33CDCC33CCC58233C5829BED9AD7
:101D6000EC99E58298400CF582EE9BFEED9AFDEC35
:101D700099FC0FD5F0D6E4CEFBE4CDFAE4CCF9A87B
:101D80008222B800C1B90059BA002DEC8BF084CF83
:101D9000CECDFCE5F0CBF97818EF2FFFEE33FEED5A
:101DA00033FDEC33FCEB33FB10D703994004EB9984
:101DB000FB0FD8E5E4F9FA227818EF2FFFEE33FE97
:101DC000ED33FDEC33FCC933C910D7059BE99A40CC
:101DD00007EC9BFCE99AF90FD8E0E4C9FAE4CCFBE4
:101DE0002275F010EF2FFFEE33FEED33FDCC33CC38
:101DF000C833C810D7079BEC9AE899400AED9BFDC1
:101E0000EC9AFCE899F80FD5F0DAE4CDFBE4CCFAD3
:101E1000E4C8F922EF4BFFEE4AFEED49FDEC48FC29
:101E200022CFF4CFCEF4CECDF4CDCCF4CC22EB9FA8
:101E3000F5F0EA9E42F0E99D42F0E89C45F022E888
:101E4000600FECC313FCED13FDEE13FEEF13FFD890
:101E5000F122E8600FEFC333FFEE33FEED33FDEC0C
:101E600033FCD8F122E0FCA3E0FDA3E0FEA3E0FFF9
:101E700022E0F8A3E0F9A3E0FAA3E0FB22ECF0A350
:101E8000EDF0A3EEF0A3EFF022A8828583F0D083DB
:101E9000D082121EA0121EA0121EA0121EA0E47359
:101EA000E493A3C583C5F0C583C8C582C8F0A3C5A4
:101EB00083C5F0C583C8C582C822A42582F582E502
:101EC000F03583F58322E0FBA3E0FAA3E0F922EBEF
:101ED000F0A3EAF0A3E9F022EC8EF0A4CCC5F0CC9C
:101EE000CDF8EFA4CEC5F02DFDE43CFCE8A42EC84F
:101EF000C5F03DFDE43CFCEFA4FFE5F028FEE43D29
:101F0000FDE43CFC22900206E0FF600764036003EE
:101F10000221EB900200E07032900220E070090490
:101F2000F07E3E7FB8125A7890020BE07F0060028C
:101F30007F01900459EFF090020B7401F0FB7A04DA
:101F40007959900474F0E4FF0221E8900200E0B4B3
:101F500001097C3F7D147F01023C32900200E0B415
:101F600002107B017A027928E4900474F07F020267
:101F700021E8900200E064037064900202E07002C5
:101F8000A3E06032900228E0FF900221F09002016D
:101F9000E0FEEF6E6020900221E0900201F07E3EB4
:101FA0007FC2125A78900221E0FF7E001249F77E2C
:101FB0003E7FCB125A787B017A027928E490047430
:101FC000F07F03124064900221E0FFD394014008A7
:101FD000EF640660030221EBE490020DF022900210
:101FE00000E0B4040CE490020DF07E3E7FCE025A75
:101FF00078900200E0B4060C900222E06003022117
:10200000EB0237C9900200E0B4080C900222E060B5
:10201000030221EB024185900200E0640A600302A2
:1020200020D1C3900203E09404900202E094005097
:10203000030221EB900228E0FFE4FCFDFE78181279
:102040001E5290045A121E7D90045A121E71C00036
:10205000900229E0FFE4FCFDFE7810121E52D00031
:10206000121E1490045A121E7D90045A121E71C042
:102070000090022AE0FFE4FCFDFE7808121E52D018
:1020800000121E1490045A121E7D90045A121E71E2
:1020900090022BE0FFE4FCFDFE121E1490045A1285
:1020A0001E7D90045A121E65900207121E7D900438
:1020B0005A121E65124EF9900222EFF0E490045E6F
:1020C000F07B017A04795E90047404F07F0A0221A7
:1020D000E8900200E0640B60030221EB900222E032
:1020E00070030221EBC3900203E09404900202E02B
:1020F000940050030221EB900228E0FFE4FCFDFE77
:102100007818121E5290045A121E7D90045A121E04
:1021100071C000900229E0FFE4FCFDFE7810121E61
:1021200052D000121E1490045A121E7D90045A12AE
:102130001E71C00090022AE0FFE4FCFDFE78081248
:102140001E52D000121E1490045A121E7D90045A82
:10215000121E7190022BE0FFE4FCFDFE121E149093
:10216000045A121E7D900202E07004A3E064047021
:1021700031900207121E6590045A121E71C3121E7E
:102180002E701F900207121E651230E2900460EF5D
:10219000F060587B017A027928E4900474F07F0B98
:1021A0008046900203E024FCFE900202E034FF909F
:1021B000045EF0A3CEF07B017A02792C90045EE0FD
:1021C000FFA3E0900468CFF0A3EFF090045A121E32
:1021D00065123D72900460EFF060107B017A027925
:1021E00028E4900474F07F0B1240642290046BEF9B
:1021F000F0A3EDF0A3EBF0900427E0600302247F4E
:10220000E4900456F0900424F090041FE0900477CA
:10221000F090043BE0900478F090044EE0FF9004CE
:1022200079F0900471E0FE6F601A90044EEEF06059
:10223000067E337F6880047E337F5D1260369004B3
:102240001E7401F090044EE0602190046FE0FF12D4
:1022500056AE900476EFF0900470E0602A90047619
:10226000E0C394585021E004F0801C90046FE0908B
:102270000476F0C3941050037410F0900476E0D309
:10228000941F4003741FF090043BE0FF900476E03D
:10229000FE6F602F90043BEEF07E337F2D125A7854
:1022A00090043BE0FF7E001249F790044EE0600688
:1022B0007E337F3580047E337F39125A7890041E36
:1022C0007401F0900477E06019A3E0FF90043BE014
:1022D000B5070C900479E0FF90044EE06F600312A4
:1022E0005F2690046CE0604D900455E0FF90046D13
:1022F000E0FE6F6040EFB4010890041DE0900422FE
:10230000F0EEB4010D900422E090041DF0E490047E
:1023100022F0900455EEF07E337F7C125A789004C0
:1023200055E0FF7E001249F77E337F16125A7890EF
:10233000041E7401F090046EE0FFD39402503B90B1
:102340000455E064016033900422E0FEEF6E602AE1
:1023500090046EE0900422F090041DF07E337F73B1
:10236000125A78900422E0FF7E001249F77E337FF4
:1023700016125A7890041E7401F0125FD490047201
:10238000E0B40324E4FFFEFDFC90043C121E71C384
:10239000121E2E606890043C121E89000000007E10
:1023A000337F3D126036804F900472E0FF6401601D
:1023B00005EF64027047900473E0FFE4FCFDFE7BD0
:1023C000807AEE7936F8121CF790043C121E7D904C
:1023D0000472E07F00B401027F01900426EFF07EDA
:1023E000337F47125A78900473E0FF7E001249F75A
:1023F0007E337F50125A7890041E7401F090041FAF
:10240000E0FE90046BE0FF6E6003125527900474A9
:10241000E07F0060027F01900474EFF090044FE0D1
:102420006F6026900474E090044FF07E337FE912D1
:102430005A7890044FE0FF7E001249F77E337F16F2
:10244000125A7890041E7401F0900475E07F0160C8
:10245000027F00900454E06F6020EFF07E337FF243
:10246000125A78900454E0FF7E001249F77E337FC1
:1024700016125A7890041E7401F07F01125FB22286
:1024800090046AEFF0A3EDF0A3EBF07B017A0479FE
:1024900074125D0F900473E0FC640170237B017A79
:1024A00004797490048A7409F09061681252177B61
:1024B000017A04797490048A7406F090616880341B
:1024C000EC640270141252087B017A04797490044F
:1024D0008A7406F090615E801B900473E0FC6403D4
:1024E00070161252087B017A04797490048A74067B
:1024F000F090615FE4022590EC64047040906169A3
:1025000093900484F090046FE0FFC394065009EFA9
:1025100090616993900484F07B017A04797490044B
:102520008A7409F0900484E01252197B017A0479CC
:102530007490048A7406F0900484E0805490046ED1
:10254000E06056A3E0FFC39464504EEFFB7C007D37
:102550000A7E00121C7F900484EFF07C007D0AAF9D
:10256000037E00121C7FAC057B017A047974900411
:102570008A7409F0900484E090615D1252187B0126
:102580007A04797490048A7406F0AF04EF90615D68
:102590009390048BF01D12521F90046AE06064A3B4
:1025A000E07060A3E0FD7009900474E04404F080E2
:1025B00021EDB40109900474E04410F080149004FB
:1025C0006CE0900475B40206E04408F08004E04436
:1025D00002F090046DE0FD700990047EE04404F088
:1025E0008021EDB4010990047EE04410F080149045
:1025F000046DE0900483B40206E04402F08004E03D
:102600004408F0900470E06007900475E04410F016
:10261000900471E0600790047EE04402F090047240
:10262000E090048560057488F08003748FF07B016E
:102630007A047974900485E0FD024FDD900427E070
:102640006021E490046DF0A3F0900423E090046F07
:10265000F0E4A3F0A3F0A3F0A37404F0E4FBFDFF07
:102660000227E0E4900465F0A3F0A3F0A3F0A3F048
:10267000FFFEFDFC90043C121E71C3121E2E60066C
:102680009004677401F090041FE0600C90044CE02B
:1026900060069004687401F0900456E0601B90049A
:1026A000677401F090042BE0700302275F900465CB
:1026B0007401F090042A02273D900424E0603690D3
:1026C00004677401F090043C121E65EF247FFFEE56
:1026D00034EEFEED3436FDE43CFC7B807AEE793658
:1026E0007800121D82EF70027F019004657401F082
:1026F000A3EFF0806A90041FE0606490044CE070E7
:102700001A90043AE0FFB406089004687402F0805E
:102710000AEFB407069004687403F0900468E0FFC1
:1027200064026036EFB403028030900420E070024F
:10273000A3E060109004657401F090043BE0900405
:1027400066F0801B1260D4EF60109004657401F095
:10275000125248900466EFF08005E4900465F09012
:102760000456E07006900424E06006900469740149
:10277000F0900468E0FF64026009EF64036004EF16
:10278000B401069004697401F0900454E0FFFE90D7
:102790000469E06004E4FE8008EF6005E4900465ED
:1027A000F090041FE0FFAD06900455E0FB9004227A
:1027B000E090046DF0900465E090046EF090046683
:1027C000E090046FF0900467E0900470F0900425AE
:1027D000E0900471F0A3EEF0900468E0900473F0D0
:1027E00012248022E090037CFF75F002121EBAE0F2
:1027F000FCA3E0FDEF90034675F002021EBAF582DD
:10280000E43403F583E4F074882FF582E43403F5AF
:1028100083E4F090035EEF75F002021EBA90045854
:10282000E075F00290035E121EBAE0FCA3E0C39FC5
:10283000EE6480F8EC648098229EFEC390045AE017
:102840009FEE6480F8900459E06480982274522FBF
:10285000F582E43403F58322900458E0FF75F0021A
:1028600090032E021EBAF583E4F0FFFEFDFCAB15CB
:10287000AA14A913A812C3021E2E900459E0FD90B9
:10288000037C75F002021EBA90045CE0FFC3951A47
:1028900022F583E004F0743A2FF582E434032290A9
:1028A0000458E02458F582E43403F5832290045858
:1028B000E02488F582E43403F5832290045BE0C3CE
:1028C000940374809480227D0A121C7FAD037C00E7
:1028D000121C6D900461E0FD90032E22900458E0DC
:1028E000FF246AF582E4340322E0FCA3E0FD75F0E6
:1028F00002EF90037C121EBAECF0A3EDF022E51576
:102900005519FFE5145518FEE5135517FDE5125549
:10291000162290045CE004F0227E00900507E0FCA3
:10292000A3E0FD121C6D8EE78FE622E0FEA3E0C35C
:102930009DFFEE9C2290037BE0FF3395E0FE22A4F6
:10294000FFE0C39FE5F06480F87480982290045BF8
:102950007401F022900458E0FF243AF582E4340335
:102960002290037BE0FB3395E0FAFEEB22E0FF9040
:10297000045DE0FEEFC39E229FEE6480F8EA64806F
:102980009822900457E0FF900505E022900378E03C
:10299000FF30E70F547FF0122D789004D5121E7D82
:1029A000126102E4FB9004D5121E65EB90616F93F7
:1029B000F9F8121E3FEF5401FFEF7003022AC7EB34
:1029C00025E024D9F582E43404F583E0FEA3E0C3D6
:1029D0009460EE94EA5013EB25E024D9F582E434B8
:1029E00004F583E475F001121CD4EB25E024D9F53D
:1029F00082E43404F583E0FEA3E064014E703DEB15
:102A00006403600EEB64026009EB64046004EBB4E1
:102A1000050D74CF2BF582E43404F5837401F0EBDB
:102A2000B4011924CFF582E43404F583E0700D7409
:102A3000CF2BF582E43404F5837401F0EB25E02418
:102A4000D9F582E43404F583E0FEA3E064B87003B2
:102A5000EE640B702D74C92BF582E43404F583E029
:102A6000702074C92BF582E43404F5837401F0EB13
:102A70006003B4010D74CF2BF582E43404F5837444
:102A800002F0EB64046005EB6405707FEB25E02445
:102A9000D9F582E43404F583E0FEA3E0FFC394900B
:102AA000EE94014066EF2470FFEE34FEFE7C007D64
:102AB000C8121C7FED4C705374CF2BF582E43404A4
:102AC000F5837403F08044EB7025EB25E024D9F501
:102AD00082E43404F583E0FEA3E0C39428EE94007E
:102AE000400D74CF2BF582E43404F5837401F0EBD0
:102AF00025E024D9F582E43404F583E4F0A3F074EE
:102B0000C92BF582E43404F583E4F00BEB64066032
:102B1000030229A522900457EFF090050B1228BE5E
:102B2000403EE4F090038EE0702B900458F0900447
:102B300058E0C3951A501EE0FF12287FE0FCA3E086
:102B4000FD75F002EF122860ECF0A3EDF090045850
:102B5000E004F080D91254ECC201E490038EF0221C
:102B6000900505E004F0122982B50708125EF2E430
:102B7000900506F0122982D39F5003022C46E49060
:102B80000458F0900458E0C3951A507A1227E412C2
:102B9000292BAD07FC90038EE0702E12296178027C
:102BA000C333CE33CED8F9FFD3ED12282F4046E4FD
:102BB0009BFFE49AFEEF7802C333CE33CED8F9FF01
:102BC000C3ED12282F502E803D1229617803C333A4
:102BD000CE33CED8F9FFD3ED12282F4018E49BFF57
:102BE000E49AFEEF7803C333CE33CED8F9FFC3EDBA
:102BF00012282F4011900458E0FF12351C90045801
:102C0000E004F0022B83900458E0B51A0690050604
:102C1000E004F0900457E0FD75F0089005051229D6
:102C20003F4023E4F0C20090050BE004F0ED75F0A6
:102C30000490050612293F400DE490050BF0125C4C
:102C4000B41254ECC20122900467EFF090046CE0DF
:102C50007002A3E07003022D77ED64027025C3902B
:102C6000046DE0940490046CE0940040169000021F
:102C7000121C0CFE900003121C0CFDEDFF90046E64
:102C8000EE8008121BF3FF90046EE4F0A3EFF090C7
:102C90000467E0B4011690046EA3E0FF125ECE124A
:102CA000609EAD077F01125949026014900467E0ED
:102CB000B4021490046EA3E0FF124B91125F37EF41
:102CC000FD7C007F02807A900467E0B404129004D7
:102CD0006EA3E0FF124644125D2CAD077F048030E6
:102CE000900467E0B4051290046EA3E0FF1253460F
:102CF0001260AAAD077F058017900467E0B4131334
:102D000090046EA3E0FF12560B1260B6AD077F135E
:102D1000025BF1900467E06418702990046EA3E0F0
:102D2000FF124BF01260B6EF600B1260B07E007CB9
:102D300000AD07800A90046EE0FEA3E0AC06FD7FC4
:102D400018025975900467E0B4191290046EA3E05C
:102D5000FF1259F81260BCAD077F19801790046705
:102D6000E0B4781390046EA3E0FF1257AB1260C278
:102D7000AD077F7812594922E4F509F511F510F5F0
:102D80000FF50E1261055003022E9112583A8F0D65
:102D90008E0C8D0B8C0AE4F508E508C3951A505C7F
:102DA000E50D5401FFE4FEFDFCFBFAF9F8C3121E29
:102DB0002E6030E47F01FEFDFC74402508F582E4BE
:102DC0003403F583E0F9F8121E52E5114FFFE510C8
:102DD0004EFEE50F4DFDE50E4C8F118E108D0FF55B
:102DE0000E0509AF0DAE0CAD0BAC0A7801121E3FFB
:102DF0008F0D8E0C8D0B8C0A0508809DE509C39400
:102E0000024015D200E509940340051261088008CC
:102E100012608EEF6002C200200028E4FFFEFDFC7D
:102E2000AB11AA10A90FA80EC3121E2E600C90039E
:102E300079E475F001121CD4801CE4900379F0A3AE
:102E4000F08013900376E475F001121CD4E4F511C0
:102E5000F510F50FF50E126020D390037AE09F90E5
:102E60000379E09E400A126108E4900379F0A3F030
:102E7000D3900377E0942C900376E09401401D12E8
:102E8000610890038E7401F0E4900376F0A3F08063
:102E90000B90611BE4740193FF122B15AF11AE1060
:102EA000AD0FAC0E22AD0790020EE0FF7014ED6482
:102EB000556003022FC790020CEDF090020E7401D2
:102EC000F022EFB4011CEDB4AA0D90020CE02DF03D
:102ED00090020E7402F022ED64557003022FC702B7
:102EE0002FC290020EE0FFB40212900206EDF090A5
:102EF000020CE02DF090020E7403F022EFB40312E6
:102F0000900200EDF090020CE02DF090020E74049F
:102F1000F02290020EE0FCB40415ED900202F0A342
:102F2000E4F090020CE02DF090020E7405F022EC1B
:102F30006405703FEDFF900202E0FEA3E04FFF90BA
:102F40000202EEF0FEA3EFF090020CE02DF0E49010
:102F50000204F0A3F0D3EF9404EE940140028062E7
:102F6000900202E07002A3E090020E7002804574AD
:102F700006F02290020EE0B4063E900204E0FEA3AA
:102F8000E02428F58274023EF583EDF090020CE017
:102F90002DF0900204E475F001121CD4900202E0BE
:102FA000FEA3E0FFC3900205E09F900204E09E4074
:102FB0001690020E7407F02290020CE0B505031281
:102FC0001F05E490020EF0229004FEE475F0011259
:102FD0001CD4C39004FFE094649004FEE09400507D
:102FE000030230E1E49004FEF0A3F012514090049B
:102FF00057EEF0A3EFF0F47002EEF4601790045770
:10300000E0FEA3E0FFC3EE94024009D3EF9480EE0C
:10301000940C4024900501E060030230E104F07E4E
:103020004A7F73125A78900457E0FEA3E0FF1249DA
:10303000F77E4A7F70025A78E4900501F09004FD13
:10304000E07015900457E0FFA3E09004FBCFF0A3DD
:10305000EFF0A37401F080369004FBE0FEA3E0FFE4
:103060007C007D07121ED8A804A905AA06AB07900C
:103070000457E0FEA3E0FFE4FCFD121CEAE47B0839
:10308000FAF9F8121D829004FBEEF0A3EFF0900520
:1030900004E07016125025900500EFF090050474BE
:1030A00001F0E4900502F0A3802B900502E475F096
:1030B00064121CD4C3900503E094E8900502E094E8
:1030C00003401EE4900502F0A3F012502590050085
:1030D000E06F600DEFF09004FBE0FEA3E0FF1257FD
:1030E0001622900461121E7D900510E06004A3E09A
:1030F00070037F00227F007E881253FDEF644F60D3
:10310000037F00227F017E881253FDEF644160033C
:103110007F00227F027E881253FDEF644460037FAC
:1031200000227F037E881253FDEF644260037F001C
:10313000227F047E881253FD900465E4F0A3EFF033
:103140007F057E881253FDEFFE900465E04EF0A3EC
:10315000E0F07F067E881253FDEF700A7F077E88BD
:103160001253FDEF60037F0022900465E0FEA3E0B0
:10317000FF4E6009D3EF94F0EE947740037F002276
:10318000900465E0FEA3E0FFEF2410FFE43EFEE4C0
:1031900033FDE433FC900461121E71C3121E2E60D5
:1031A000037F00227F087E881253FD900467E4F0BD
:1031B000A3EFF07F097E881253FDEFFE900467E0D5
:1031C0004EF0A3E0F0900465E0FCA3E0FD7F107EEC
:1031D00088123CD2900467E06E7003A3E06F600A2F
:1031E0007E5C7FA1125A787F00227E5C7FAB125AF0
:1031F00078125A2312607E7F0122125FEE125D491F
:103200007B017A0479571252C8EF6028900225E0BA
:10321000701804F07E3E7FE9125A78900457E0FF60
:1032200012543A7E3E7FCB125A78900457E0FF1238
:103230002EA580CC900225E07067C3900224E09414
:1032400060900223E094EA5007E475F001121CD468
:10325000900223E064077004A3E064D070437E3ED4
:103260007FF2125A78A2A0E4FE33FF1249F77E3FA4
:103270007F01125A78A2A1E4FE33FF1249F77E3F84
:103280007F07125A78A2A6E4FE33FF1249F77E3F69
:103290007F0D125A78AF9812543A7E3E7FCB125A65
:1032A0007890020DE06031900226E475F001121C66
:1032B000D4C3900227E0942C900226E09401401899
:1032C000E4F0A3F0125B1690032CE004F0E0C3944A
:1032D000064005E490020DF0E4900458F01260E618
:1032E000EF700812606E900458EFF0900458E030D0
:1032F000E003024185900458E030E103126014902D
:103300000458E030E203125C7622484D4920736392
:10331000723D300D0A000D0A00484D492070777249
:103320003D3100484D49207077723D3000484D498D
:103330002074733D00460D0A00430D0A00484D49B4
:1033400020746D723D3000484D4920746D723D000F
:10335000680D0A00484D49207769666900484D4963
:1033600020756E69743D4300484D4920756E69743F
:103370003D4600484D492066616E3D00484D49205C
:103380006D6F64653D00484D4920746D7220656421
:103390006974004D454D206D6973730D0A004D45EC
:1033A0004D206F6B20703D00206D3D0020663D007C
:1033B0002074733D00484D4920703D004600430095
:1033C00020746D723D0020773D00207361763D00D2
:1033D00020736C703D00207573653D00206C6F7329
:1033E000743D0020666C743D00484D4920736C703C
:1033F0003D00484D49207363723D00484D4920749B
:103400006D7220646F6E6500484D49207573653D8F
:103410000001020300010300024952206578747222
:103420006120433D0020453D0020463D0020473DB2
:10343000000D0A0049522064726F70207379733D49
:10344000004952206261642073756D20676F743D7E
:1034500000206578703D00495220746D7220626FC3
:10346000746820443D00495220746D72206F666676
:103470002D6D696E206F6E6C790D0A0049522074B3
:103480006D72206F6E2D6D696E206F6E6C790D0AF6
:10349000004952206F6B206269746F726465723DDF
:1034A000006D7362006C73620020703D00206D62DD
:1034B0006974733D002066626974733D0020413D6C
:1034C000004952206175746F2F756E6B6E6F776E49
:1034D000206D6F64652069676E6F72650D0A004923
:1034E000522066616E3D6F6666206B6565700D0AE1
:1034F00000495220756E69743D0046004300204625
:103500002B310049522066616E2B3120666C616759
:10351000206C6F672D6F6E6C790D0A00900459EF67
:10352000F0F91227E412292B90045AF0A3EFF0AF20
:10353000011259A1AD07AC0690045AE0FEA3E0FFCA
:10354000D39DEC6480F8EE6480985014C3E49DFB36
:10355000E49CFAC3EF9BEA6480F8EE648098500E16
:10356000900459E0FF1227F51228E9023600ECA278
:10357000E713FEED13FF90045AE0FAA3E0FBD31229
:1035800029785016ECA2E713FEED13FFC3E49FFF6A
:10359000E49EFEC3EB122978502312287AE0FAA3A6
:1035A000E0FBEAC313FEEB13FFC3EB9FFBEA9EFABB
:1035B000ED1227F5E0C313FEA3E013803212287A40
:1035C000E0FAA3E0FBAE027803CEC313CE13D8F922
:1035D000FFC3EB9FFBEA9EFA75F002ED90034612E3
:1035E0001EBAE0FEA3E07803CEC313CE13D8F92BA6
:1035F000FFEA3EFE900459E012287FEEF0A3EFF0C0
:103600009004591227E4ECF0A3EDF0227E337FB54D
:10361000125A7890041FE0FF7E001249F77E337F34
:10362000A8125A78900455E0FF7E001249F77E33C5
:103630007FAC125A78900422E0FF7E001249F77E98
:10364000337FB0125A7890043BE0FF7E001249F7B6
:1036500090044EE060067E337FBC80047E337FBEE4
:10366000125A787E337FC0125A787B807AEE793690
:10367000780090043C121E65121D821249F77E33B9
:103680007FC6125A78900447E0FF7E001249F77E09
:10369000337FCA125A78900454E0FF7E001249F733
:1036A0007E337FD0125A7890044FE0FF7E0012499B
:1036B000F77E337FD6125A7890044DE0FF7E0012D9
:1036C00049F77E337FDC125A7890044CE0FF7E008D
:1036D0001249F77E337FE3125A7890043AE0FF7E76
:1036E000001249F77E337F16025A787B01900461FD
:1036F000121ECF90045B121EC690045E121ECF9065
:10370000045E121EC6121BF3FF900461121EC6EF68
:10371000121C3990045E121EC6900001121C0CFF90
:10372000900461121EC6900001EF121C4B90045EC3
:10373000121EC6900002121C0CFF900461121EC6DD
:10374000900002EF121C4B90045E121EC690000304
:10375000121C0CFF900461121EC6900003EF121C95
:103760004B90045E121EC6900004121C0CFF9004C5
:1037700061121EC6900004EF121C4B90045E121ED4
:10378000C6900005121C0CFF900461121EC690002A
:1037900005EF121C4B90045E121EC6900006121C10
:1037A0000CFF900461121EC6900006EF121C4B9095
:1037B000045E121EC6900007121C0CFF90046112DA
:1037C0001EC6900007EF021C4BE4900461F0A3F0CA
:1037D000900462E02404FF900461E03400FE900253
:1037E00002E0FCA3E0FDC39FEC9E50030238A490CE
:1037F0000461E0FEA3E0FF2428F58274023EF58315
:10380000E0900465F074292FF58274023EF583E0A0
:10381000900466F0900461E0FAA3E0FB242AF582AC
:1038200074023AF583E0FE742B2BF58274023AF5AC
:1038300083E0FBEBFF900463EEF0A3EFF0900462F3
:10384000E02404FB900461E03400CB2FFFEB3EFE4C
:10385000C3ED9FEC9E404D900466E0FD900461E056
:10386000FEA3E0242CF974023EFA7B01A3E0FFA33F
:10387000E090046CCFF0A3EFF0900465E0FF122C11
:1038800047900462E02404FF900461E03400FE905D
:103890000464E02FFF900463E03E900461F0A3EF26
:1038A000F00237D022900457121ECFE49004AAF001
:1038B00090048CF0A3F090045AF090045AE0FFC3F7
:1038C000940C501C7E001253C090045AE0248EF5D4
:1038D00082E43404F583EFF090045AE004F080DAD7
:1038E00090048EE0B4A50BA3E0B45A06A3E06401F3
:1038F00060037F0022125A4E900499E06F60037FAC
:103900000022900491E0FF900457121EC6EF121C93
:1039100039900492E0FF900457121EC6900001EF08
:10392000121C4B900493E0900002121C4B900494E4
:10393000E0900003121C4B900495E0900004121CD0
:103940004B900496E0900005121C4B900497E09079
:103950000006121C4B900498E0900007121C4B12BA
:1039600040F5EF7F017001FF22E490041FF0900406
:1039700055F090042204F090041DF090044EF09055
:10398000043B7448F0E4900454F0900456F0900422
:1039900024F090043C121E8900000000E4900426EC
:1039A000F0900425F0900440F0A3F090044774FFD9
:1039B000F090042B7401F0E4900434F0A3F0900430
:1039C00028F0900442F0A3F090044AF0A3F0900491
:1039D00045F0A3F090041E04F0E490044CF0900431
:1039E0003AF0900420F0A3F090042974FFF0E490E2
:1039F000044FF0A3121E8900000000E490044DF073
:103A0000900436121E8900000000E4900444F090F7
:103A10000427F0900423F0900448F0A3F0123A2316
:103A200002263C7B017A04792C1238A5EF70077EC0
:103A3000337F93023AC690042CE090041FF0900468
:103A40002DE0900455F090042EE0900422F09004B4
:103A50002FE090041DF0900430E090044EF09004AC
:103A600031E090043BF0900432E090044FF0900479
:103A700033E0900454F0125FD47F01125FB27E33C2
:103A80007F9E125A7890041FE0FF7E001249F77E55
:103A9000337FA8125A78900455E0FF7E001249F750
:103AA0007E337FAC125A78900422E0FF7E001249E8
:103AB000F77E337FB0125A7890043BE0FF7E00120D
:103AC00049F77E337F16125A78124C4F7B017A04E5
:103AD000792C125AEF22E4900457F0A3F0A3F0A33C
:103AE000F0A2A03390045DF0A2A1E433A3F0E4902F
:103AF000045BF0A3F0E4F58A758C83C28DD28C2030
:103B00008D3BA2A0E433FF90045DE06F600F900452
:103B100057E475F001121CD490045DEFF0A2A1E40B
:103B200033FF90045EE06F600F900459E475F0017C
:103B3000121CD490045EEFF01217FC80C2C28CC23B
:103B40008D90045BE475F001121CD4C390045CE01A
:103B5000945090045BE09400409B7E5F7F48125A33
:103B600078900457E0FEA3E0FF1249F77E5F7F5193
:103B7000125A78900459E0FEA3E0FF1249F77E5FE5
:103B80007F56025A7890045E121ECF90048E74A560
:103B9000F0A3745AF0A37401F0E4900461F090046F
:103BA0005E121EC6900461E0FFF582758300121C50
:103BB0000CFE74912FF582E43404F583EEF090044A
:103BC00061E004F0E0B408D6125A4E900499EFF088
:103BD000E4FFFE125307E4900461F0900461E0FFFB
:103BE0007E00248EF582E43404F583E0FD1251C694
:103BF000900461E004F0E0C3940C40DF1217FCE491
:103C0000900461F0900461E0FFC3940C50217E00A9
:103C10001253C0900461E0248EF582E43404F583ED
:103C2000E06F60037F0022900461E004F080D57FA4
:103C30000122900461EFF0A3ECF0A3EDF0E4900416
:103C400065F08D828C83E493600D900465E004F050
:103C50000DBD00010C80EB125DFF7FAA125E067F96
:103C600003125E06900461E0FF125E06E4FF125E3E
:103C700006900465E0FF125E06900461E02402FFF6
:103C8000900465E02F900464F0900462E0FEA3E0ED
:103C9000F5828E83E493FF6023125E06900462E057
:103CA000FEA3E0F5828E83E493FF900464E02FF09E
:103CB000900462E475F001121CD480CD900464E09D
:103CC000FF125E0690020FE060077E3E7FAC125A44
:103CD0007822900469EEF0A3EFF0A3ECF0A3EDF0EE
:103CE00074FFA3F0A3F0E4A3F0A3F090046BE0FE54
:103CF000A3E0FF90046FE0FCA3E0FDC39FEC9E50A7
:103D00006890046AE02DFF900469E03CFE1253FDC8
:103D1000EFFE90046DE06EF0A3E0F0E4FD90046D22
:103D2000E0FEA3E0FFEE30E717EF25E0FFEE33649F
:103D300010FEEF6421FF90046DEEF0A3EFF0800D14
:103D400090046EE025E0F090046DE033F00DEDB4EA
:103D500008CB900470E0543F70031217FC90046F7E
:103D6000E475F001121CD4808290046DE0FEA3E0A3
:103D7000FF22900461121E7D900465121ECF9005F3
:103D800010E06004A3E070037F0022900468E0FE6E
:103D9000A3E0FFE4FCFD900461121E71121CEAE432
:103DA000FB7A78F9F8C3121E2E50037F002290048C
:103DB00061121E65E42FFFEE348890046AF0A3EFD1
:103DC000F0E4A3F0A3F0900468E0FEA3E0FF900409
:103DD0006CE0FCA3E0FDC39FEC9E503390046BE0CD
:103DE0002DFF90046AE03CFE900465121EC690040C
:103DF0006CA3E0F5828C83121C0CFD1248A2EF70BC
:103E000002FF2290046CE475F001121CD480B77F8D
:103E10000122787FE4F6D8FD9000007F007E20E448
:103E2000F0A3DFFCDEFA758127023E67025869E4E1
:103E300093A3F8E493A34003F68001F208DFF48033
:103E400029E493A3F85407240CC8C333C4540F4483
:103E500020C8834004F456800146F6DFE4800B015D
:103E600002040810204080906065E47E019360BCED
:103E7000A3FF543F30E509541FFEE493A360010EF5
:103E8000CF54C025E060A840B8E493A3FAE493A31C
:103E9000F8E493A3C8C582C8CAC583CAF0A3C8C53D
:103EA00082C8CAC583CADFE9DEE780BE57494649F2
:103EB000207478746F0D0A00574946492068620DD6
:103EC0000A00574946492073743D000D0A005749BE
:103ED000464920727374206F6B0D0A00574946499A
:103EE0002072657365740D0A00574946492072783F
:103EF0003D0057494649206E6F7278207032303D40
:103F000000207032313D00207032363D0020736356
:103F10006F6E3D007B2270223A2275666F726C795B
:103F20006E6C676A357878337A67222C2276223A6B
:103F300022312E322E3133222C226D223A327D0054
:103F4000505752207478002073756D3D00206375C2
:103F5000723D6E74630D0A00206375723D73657463
:103F60000D0A00505752206C6F73740D0A005057A1
:103F700052206F6B0D0A00505752207278207665E0
:103F8000723D0020747970653D00206661756C7427
:103F90003D000D0A005057522055534349322034FA
:103FA0003830302050342E342F50342E3520706568
:103FB00072696F643D3135306D73206375723D7386
:103FC000657420756E74696C204E54430D0A0003AD
:103FD00000020112609E90045AEFF01260A4900457
:103FE0005BEFF01260AA90045CEFF0125F37900470
:103FF0005BE0D394034002E4F09003BC7466F0A34A
:104000007499F0EF2428A3F01260D4EF600C1260D2
:10401000DAEF24289003BFF080069003BEE0A3F0FF
:1040200090045AE0FF90045CE0FD12605CEFC45421
:10403000F0FF90045BE0903FCF934F9003C0F0906F
:10404000045AE054019003C1F07F0E9003C2E4F0E3
:10405000A3DFFC7B017A0379BC7D14125C1490030E
:10406000D0EFF022900470EFF0A3121ECF125DFF8C
:104070007FAA125E067F03125E06900470E0FF12B4
:104080005E06E4FF125E06900474E0FF125E069086
:104090000470E02402FF900474E02FA3F0E4A3F086
:1040A000900474E0FF900476E0FEC39F50319004CA
:1040B00071121EC68E82758300121C0CFF125E06E2
:1040C000900471121EC6900476E0F582758300128A
:1040D0001C0CFF900475E02FF0A3E004F080C19069
:1040E0000475E0FF125E0690020FE060077E3E7FDF
:1040F000AC125A7822121BF3D3940140037F0022A2
:10410000900001121C0CD3940340037F0022900006
:1041100002121C0CD3940340037F00229000031270
:104120001C0CD3940340037F0022900004121C0C4B
:10413000FED3940140037F0022900006121C0CD392
:10414000940140037F0022900007121C0CD39401BD
:1041500040037F0022EE6015900005121C0CFFC387
:10416000943D4006EFD3945840187F0022900005FC
:10417000121C0CFFC394104006EFD3941F40037F22
:1041800000227F01221260B6900461EFF012609E5F
:10419000AD077F01125949125F37EFFD7C007F02A6
:1041A000125975125C76125D2CAD077F04125BF11B
:1041B0001260AAAD077F05125BF1900461E0FD7FFC
:1041C00013125BF1125E6F125BAA900461E060094A
:1041D0001260B0EFFD7C00801F125F377E007C0014
:1041E0007D09121C6DEF2402FFE43EFE7D05121CCA
:1041F0007FEF2420FDE43EFC7F181259751260BC4D
:10420000AD077F191259491260C2AD077F78125964
:1042100049026014EF7033C3ED948CEC94004012AB
:10422000D3ED94F0EC94005009752601E4F521F5E6
:104230002722E5266065C3ED9406EC9400405CD32C
:10424000ED9418EC940040568051E5266050E5212D
:104250007012C3ED943CEC94004009D3ED948CECC7
:104260009400403AE521C3947840030257DCC3ED43
:104270009406EC9400400DD3ED9412EC940050049D
:10428000E4FF8014C3ED9418EC9400400ED3ED9439
:1042900032EC940050057F0102506D12600822C27A
:1042A000AF75FEC1AFFFD2AFEF5430FD7C0070049C
:1042B0007920801CED64104C700479108012ED643C
:1042C000204C700479088008ED64304C7002790449
:1042D000E924F8601824F8602024F06028241C7079
:1042E000309004597401F0A374F4F08026900459BE
:1042F0007403F0A374E8F0801A9004597407F0A3D3
:1043000074D0F0800E900459740FF0A374A0F08064
:1043100002E4F9900459E07002A3E0600C900459A3
:1043200074FFF5F0121CD480EA2275FE8543FF204D
:1043300053DB7FD2AFC201E490050CF0900378F01C
:10434000124F46E4FF125748EF2401FDE433FC7E90
:104350000F7FA0121C7F900507EEF0A3EFF0E4FFA3
:10436000125EE01229197F02125748EFC454F0FE82
:10437000C006E4FF125748D0E02FF5E17F03125743
:1043800048E5E254804FF5E27F04125748EF600899
:10439000E5E254804480F5E27F011257488FE31232
:1043A00054EC43A910900340E04480F5E81247B96B
:1043B000025CB4C0E0C083C082C0D075D000C00031
:1043C000C003C004C005C006C007758BC0758DF959
:1043D000A2B2E433FB65227039C3E52494D0E5230F
:1043E000940750080524E52470020523EB6036C3CA
:1043F000E5249450E5239400402BE5266027E52131
:10440000947840051257DC801CE521601812600882
:104410008013AD24AC23AF22124214AF038F227558
:104420002300752401D007D006D005D004D003D0D6
:1044300000D0D0D082D083D0E032900003121C0C88
:10444000FF90046BF0900005121C0C90046CF0902F
:104450000006121C0C90046DF0900007121C0C90CA
:10446000046EF0EF5401701490046CE0543B700C37
:10447000A3E054E77006A3E0547F60437E347F19C5
:10448000125A7890046BE0FF12543A7E347F251262
:104490005A7890046CE0FF12543A7E347F29125A05
:1044A0007890046DE0FF12543A7E347F2D125A78D2
:1044B00090046EE0FF12543A7E347F31125A782213
:1044C00090045BEFF06402703790041FE07072900C
:1044D000044EE090043B6012E0FF125678EFF0E4E7
:1044E00090044EF07E337F5D8011E0FF1256AEEFF8
:1044F000F090044E7401F07E337F68126036803E87
:1045000090045BE06401703990041FE06033900414
:1045100055E06401602B900422E0903411939004E4
:1045200022F090041DF07E337F73125A789004229B
:10453000E0FF7E001249F77E337F16125A78125F31
:10454000AB22123FD3E4900459F0900459E0FFC32A
:104550009415501774BC2FF582E43403F583E0FF03
:10456000125383900459E004F080DFE4FF9003913C
:10457000E0FE9003BEE0FDB50624900392E0FE90BD
:1045800003BFE0B50618900393E0FE9003C0E0B5CA
:10459000060C900394E0FE9003C1E06E601F7F0163
:1045A000900391EDF09003BFE0900392F09003C070
:1045B000E0900393F09003C1E0900394F0EF600368
:1045C000124DBA22900461EFF0125FFB900462EF8B
:1045D000F0124639900508E025E0FF900507E0332A
:1045E000FE7C001228C71227F8E0FAA3E0C39FEA76
:1045F0009E5009900462E0603F14802D124639906D
:104600000507E0FEA3E0FF7C007D07121C6D122869
:10461000C7122817E0FAA3E0D39FEA9E401A90043D
:1046200062E0FF647E6011EF04FF74702DF582E498
:104630003403F583EFF0D20122900461E0FF125EB3
:10464000E0EFFB22EF700790047004F08022EFB4DB
:1046500001089004707403F08016EFB40207E49030
:104660000470F0800BEF640370569004707402F0D5
:10467000900455E0FF900470E0FE6F6043EFB401DA
:104680000890041DE0900422F0EEB4010D90042285
:10469000E090041DF0E4900422F0900455EEF01236
:1046A0005FD47E337F7C125A78900455E0FF7E0001
:1046B0001249F77E337F16125A7890041E7401F067
:1046C000227B017A03799B7D20125C149003BBE06E
:1046D0006F706AE49003D3F0A3F0FF12591D9003AA
:1046E0009DE09003D6F090039EE09003D5F09003F8
:1046F000A4E0FF90039AF0125F9B9003D27401F044
:10470000900398E0FF9003D6E0FEB507189003975A
:10471000E0FF9003D5E0B5070C900396E0FF90030F
:104720009AE06F6018900398EEF09003D5E0900344
:1047300097F090039AE0900396F01255612290044E
:104740003BE0FEFD90044EE0601DEF600CEEC39474
:1047500058500690043BE004F0EF702990043BE0D1
:10476000D3943D4020801BEF600C90043BE0C39449
:104770001F5003E004F0EF700C90043BE0D3941062
:104780004003E014F090043BE06D602C7E337F2DFD
:10479000125A7890043BE0FF7E001249F790044ED5
:1047A000E060067E337F3580047E337F39125A788D
:1047B000125F267F01125FB2229004577420F0121C
:1047C0005B61E4900458F0900458E0FFC3951A50E0
:1047D00021E0FE1227F5E0FCA3E0FD75F002EE12E9
:1047E0002860ECF0A3EDF01245C4900458E004F00A
:1047F00080D5900457E0FF14F0EF70C3125EF21200
:104800006086900457EFF0125B61E4900458F090DA
:104810000458E0FFC3951A500B12351C900458E061
:1048200004F080EB900457E0FF14F0EF70D9229071
:10483000045B121ECF7A0479A21236EB7B017A0454
:10484000799A900461121ECF7A0479A21256E3EF8E
:1048500070157A04799A1236EB9004AA7401F0E488
:1048600090048CF0A3F0229004AAE06034C390047A
:104870008DE094D090048CE094075007E475F0012B
:10488000021CD4E49004AAF07B017A04799A123BCA
:1048900085EF60067E5E7F2E80047E5E7F37125A33
:1048A0007822900470EDF090046EEEF0A3EFF0C368
:1048B000EE948850037F0022A2AFE433FDC2AFAC78
:1048C000F4ABDFE4F5F4E5DF54CF4410F5DF9004FA
:1048D00070E0F5F590046EE0F5F3A3E0F5F275F104
:1048E000F075F61043F602125F6AAF048FF4AF035F
:1048F0008FDFAF05EF24FF92AF1217FC90046EE03C
:10490000FEA3E0FF1253FD900470E0B507047F01A1
:1049100080027F0022900456E06003024AC990049E
:1049200024E0601590043C121E8900000000E49011
:104930000424F07E337F3D8044E4FFFEFDFC9004C0
:104940003C121E71C3121E2E60139004247401F0D9
:10495000E490044AF0A3F090041E04F02290045660
:104960007401F090042AF0E4900442F0A3F0900463
:1049700034F0A3F090042B04F07E337F861260366F
:1049800090041E7401F022E4900458F07B017A0434
:1049900079571258F1EF6014900457E0FF124B2D35
:1049A000900458E004F0E0C3941040E090038FE4DA
:1049B00075F001121CD4C3900390E0949690038F7D
:1049C000E094004007E4F0A3F0124542C39003D402
:1049D000E094889003D3E09413501BE475F0011227
:1049E0001CD4C39003D4E094889003D3E094134084
:1049F000057F0112591D2290047AEEF0A3EFF04ECC
:104A000070057F300258C5E4FB90047AE0FEA3E015
:104A1000FF4E602F7C007D0A121C7FAE030B747C5E
:104A20002EF582E43404F583EDF090047AE0FEA3E1
:104A3000E0FF7C007D0A121C7F90047AEEF0A3EF69
:104A4000F080C6900481EBF0900481E0601514F0D2
:104A5000E0247CF582E43404F583E02430FF12582E
:104A6000C580E5224E544320633D002061643D0033
:104A70000D0A004E544320626164206164633D006E
:104A800028292B2C2E3031333536383A3C3E4042E3
:104A90004446484A4C4E50525456585A5D5F6163E2
:104AA00065686A6C6E70737577797B7E80828486A8
:104AB000888A8C8E91939596989A9C9EA0A2A4A584
:104AC000A7A9ABACAEB0B1B3B490042AE070139018
:104AD000043C121E89000000007E337F3D126036C8
:104AE000803990042AE0FFE4FCFDFE7B807AEE79B9
:104AF00036F8121CF790043C121E7D90041FE090C3
:104B00000426F07E337F47125A7890042AE0FF7E15
:104B1000001249F77E337F50125A78E4900456F021
:104B2000900424F090041E04F0FF025FB2900399F9
:104B3000E0FE7011EF6455705790039BEFF0900307
:104B4000997401F022EE6401701FEFB45A0C9003C7
:104B50009CF09003D17402F0800AEFB455059003E5
:104B60009BF022E4900399F0229003D1E0249BF57E
:104B700082E43403F583EFF09003D1E004F0E0C366
:104B80009421400C1246C1E4900399F09003D1F0B7
:104B900022EFC3941050027F10EFD3941F40027F86
:104BA0001F90044EE060051256AE8000900470EF36
:104BB000F090043BE0FF900470E0FE6F60319004E1
:104BC0003BEEF07E337F2D125A7890043BE0FF7E5F
:104BD000001249F790044EE060067E337F35800472
:104BE0007E337F39125A78125F267F01125FB2221C
:104BF000EFC3943D50027F3DEFD3945840027F585D
:104C000090044EE060028003125678900470EFF03A
:104C100090043BE0FF900470E0FE6F603190043B35
:104C2000EEF07E337F2D125A7890043BE0FF7E0039
:104C30001249F790044EE060067E337F3580047E93
:104C4000337F39125A78125F267F01125FB22290A9
:104C5000041FE07F0060027F0190042CEFF09004BD
:104C600055E090042DF0900422E090042EF0900482
:104C70001DE090042FF090044EE07F0060027F0161
:104C8000900430EFF090043BE0900431F090044F3A
:104C9000E07F0060027F01900432EFF0900454E066
:104CA0007F0060027F01900433EFF022E4F509F504
:104CB0000AF50E750D05750CA4750B10F509E50EBA
:104CC0005401FFE4FEFDFCFBFAF9F8C3121E2E604E
:104CD000177440250AF582E43403F583E509F005ED
:104CE0000AE50AC39406501CAF0EAE0DAD0CAC0B1A
:104CF0007801121E3F8F0E8E0D8D0C8C0B0509E571
:104D000009B41FBA850A1A22C20290050CE01227C4
:104D1000F5E5E5F0A3E5E4F090050CE004F0E0C370
:104D2000951A400BE4F0900378E04480F08002D2C2
:104D30000290050CE0FF125EE012291990050CE0CC
:104D4000FF125FFBE5E254804FF5E290050CE02492
:104D500040F582E43403F583E04480F5E830020254
:104D6000D2EE2290045BEFF0BF021D90041FE070B2
:104D700048125D819004287401F07E337F541260E4
:104D80003690041E7401F02290045BE064017029E7
:104D9000900428E06003E4F02290041FE090043CBB
:104DA000600B121E8900000000E4FF8009121E89BA
:104DB000000000007F01125527227E3F7F40125ADB
:104DC00078E490045AF07F201258C590045AE024E9
:104DD000BCF582E43403F583E0FF12543A90045AA0
:104DE000E004F0E0C3940640DD7E3F7F47125A782E
:104DF0009003D0E0FF12543A1260D4EF60067E3F79
:104E00007F4D80047E3F7F58125A78227F15900391
:104E1000BCE4F0A3DFFCE4900399F09003D1F090A0
:104E20000395F09003D7F09003D2F090039174FFB4
:104E3000F0A3F0A3F0A3F0900398F0900397F09004
:104E40000396F0E490038FF0A3F09003D3F0A3F067
:104E5000125B3C7E3F7F95125A7802454290041FB8
:104E6000E06047900455E0FF90341593FEEFB401E5
:104E70000890041DE0900422F0EEB4010D9004228D
:104E8000E090041DF0E4900422F0900455EEF07ED2
:104E9000337F7C125A78900455E0FF7E001249F768
:104EA0007E337F16125A78125FAB227B017A047927
:104EB000E97D0E90046B121ECF90046EEDF0E4FFBE
:104EC000FEA3F090046EE0FDA3E0FCC39D5029908A
:104ED000046B121EC68C82758300121C0CFDC45418
:104EE0000F2FFFE43EFEED540F7C002FFFEC3EFE43
:104EF00090046FE004F080CB22900461121E7DE4E8
:104F00007F10FEFDFC900461121E71C3121E2E4024
:104F100012E4FF7E78FDFC900461121E71D3121E14
:104F20002E40037F00229005107401F0E4A3F07F6F
:104F300001125BCE7E5C7F95125A781258979005CD
:104F4000117401F0FF2290611174019390032DF010
:104F500090612B74019390037BF0124CACE4F50844
:104F6000E508C3951A5023E50875F008A42431F527
:104F700082E43461F583E493FF74702508F582E4DC
:104F80003403F583EFF0050880D6E4900379F0A3AD
:104F9000F022125C5743A910D2AF1217FC12432A19
:104FA0001217FC9004D5121E8900000000E4FFEFE8
:104FB00025E024D9F582E43404F583E4F0A3F07409
:104FC000C92FF582E43404F583E4F074CF2FF58221
:104FD000E43404F583E4F00FEFB406D322900486A2
:104FE000121ECF900489EDF0125F047F40125CD353
:104FF000125F15125F047FC0125CD3E4FC9004863C
:10500000121EC68C82758300121C0CFF125CD30C1E
:10501000ECB410E9125F15125F04900489E0FF12EE
:105020005CD3025F159004FBE0FEA3E0FFEEC4F842
:1050300054F0C8EFC4540F48FF904A80E493FEEF49
:10504000D39E50037F0022904AC8E493FEEFC39E94
:1050500040037F4822E4FEEE904A8193FDEFC39D1A
:105060005003AF06220EEEB448ED7F4822E521C37F
:105070009478503FEF6012E5215407FF7401A807B0
:10508000088002C333D8FC42270521E5215407706C
:1050900022E52124FFFFE434FFFEEF7803CEC313A3
:1050A000CE13D8F924ABF582E43404F583E527F078
:1050B000E4F52722125DB5C2ACC2998F9974FF90B6
:1050C0000477F0A3F0209919900477E07002A3E030
:1050D000600F90047774FFF5F0121CD41217FC8057
:1050E000E4309902C299D2AC125D49900477E07025
:1050F00002A3E07F0060027F0122AD07AC06C3EC93
:105100009488403BA2AFE433F9C2AFABF4AADFE42A
:10511000F5F4E5DF54CF4410F5DFECF5F3AF058F80
:10512000F275F1F075F62043F602125F6AAF038F55
:10513000F4AF028FDFAF01EF24FF92AF1217FC2212
:1051400043AD407DD07C07E5AD20E50BED4C60071D
:10515000ED1D70F31C80F0AFAFEF75F010A4FBAF46
:10516000AEE4C4F854F0C868FEEFC4540F48FFEE34
:1051700045F0FEEF4BFF53ADDFED4C70057EFF7F3A
:10518000FF2222125C36E490020EF090020BF090A7
:10519000022174FFF0900201F0E4900225F09002E9
:1051A00020F090020DF090032CF0900226F0A3F076
:1051B000900223F0A3F0900207121E890000000065
:1051C000E4900222F022AB07AA06A2AFE4339004D7
:1051D00069F0C2AFA9F4ACDF75F402E5DF54CF4447
:1051E00010F5DFAF058FF5EAF5F3AF038FF275F138
:1051F000F075F61043F602125F59AF018FF4AF0459
:105200008FDFE024FF92AF227B017A04797490044F
:105210008A7409F0906167E49390048BF07D0890A4
:105220000486121ECF90048BE0FF900486121EC6E7
:10523000AE058E82758300EF121C4B90048AE0F558
:1052400082758300EF021C4B90044EE0700F1260D9
:10525000DAEFD3946340037F63220260DA1260DAEC
:105260007E007C007D09121C6DEF2402FFE43EFEEF
:105270007D05121C7FEF2420FFE43EFED3EF9463F4
:10528000EE940040027F632290046B121ECFE5254E
:105290007002FF22A2AFE433FFC2AFE4FE74BA2E65
:1052A000F582E43404F583E0FD90046B121EC68E93
:1052B00082758300ED121C4B0EEEB40FE0E4F52571
:1052C000EF24FF92AF7F0122A2AFE433FFC2AFE52C
:1052D0001CB51E0DE51BB51D08EF24FF92AF7F0026
:1052E000227400251EF5827400351DF583E0121C22
:1052F00039E51E2401FDE4351D5401F51D8D1EEF19
:1053000024FF92AF7F0122AD07AC06A2AFE433F9D0
:10531000C2AFABF4AADF75F402E5DF54CF4410F559
:10532000DFECF5F3AF058FF275F1F075F62043F67B
:1053300002125F59AF038FF4AF028FDFAF01EF248A
:10534000FF92AF0217FCEFD394035036900455E060
:105350006401602B900422E06F6024EFF090041D44
:10536000F07E337F73125A78900422E0FF7E0012A1
:1053700049F77E337F16125A7890041E7401F0129A
:105380005FD4221260F59003D97480F0A3E4F08F0B
:10539000C7E5C420E1269003D9E07002A3E0601CB9
:1053A000E5C430E008AFC7125B8653C4FD9003D953
:1053B00074FFF5F0121CD41217FC80D553C4FE22E2
:1053C000E4900462F0A3F0A2AF33F9C2AFADF4AC45
:1053D000DF75F402E5DF54CF4410F5DF900462E09E
:1053E000FAA3E02FF582EA3EF583E493FFAE058E43
:1053F000F4AE048EDFAE01EE24FF92AF22E49004FF
:1054000071F0A3F0A2AF33F9C2AFADF4ACDFE4F5B5
:10541000F4E5DF54CF4410F5DF900471E0FAA3E027
:105420002FF582EA3EF583E493FFAE058EF4AE04D9
:105430008EDFAE01EE24FF92AF2290046FEFF0E01A
:10544000C4540FA3F0C3940A5005E02430800690A2
:105450000470E02437FF1258C590046FE0540FA386
:10546000F0C3940A5005E024308006900470E024D4
:1054700037FF1258C522900457EEF0A3EFF09004C6
:1054800057E07002A3E06028E4F58A758C83C28D32
:10549000D28C208D0B125E17125D491217FC80F220
:1054A000C28CC28D90045774FFF5F0121CD480CECC
:1054B00022C0E0C0F0C083C082C0D075D000C00060
:1054C000C001C002C003C004C005C006C007124D21
:1054D00008D007D006D005D004D003D002D001D028
:1054E00000D0D0D082D083D0F0D0E032E4FFEFC340
:1054F000951A501A12284DE4F0746A2F1227FEE410
:10550000F0A3F074582F1228A5E4F00F80E0E4F522
:1055100015F514F513F51290050674FFF0E49005E7
:1055200009F0A3F0C20122AB0790041FEBF0E49056
:105530000456F0900424F0900454F0900420F0A35A
:10554000F0125CF1EB6009125FD47E337F198004A6
:105550007E337F2312603690041E7401F0FF025FD9
:10556000B27E3F7F77125A789003D6E0FF7E00121A
:1055700049F77E3F7F83125A789003D5E0FF7E0083
:105580001249F77E3F7F8A125A7890039AE0FF7E95
:10559000001249F77E3F7F92025A78439A0F439157
:1055A000F043B1F043C1C075D9FF125FB9125EBCC0
:1055B000125E831260FC126053125D9C124F9212B5
:1055C0003969124E0C1260761255D3125183D2AF44
:1055D0000217FC9004FB7408F0A3E4F09004FEF0C2
:1055E000A3F0900502F0A3F0A3F09005007419F069
:1055F000E4A3F09004FDF053A1F753A2F775AB803C
:10560000F5AC75B51075AD87C2AE2290044EE06F53
:10561000602FEF90043B6013E0FF1256AEEFF09066
:10562000044E7401F07E337F688010E0FF125678DC
:10563000EFF0E490044EF07E337F5D126036125F2F
:10564000AB22900457EEF0A3EFF07E577F7A125A08
:10565000787E577F94125A787E577F96125A787EBA
:10566000577FA1125A78900457E0FEA3E0FF124939
:10567000F77E577FA8025A78EFC3942050037F101B
:1056800022EF24E0FFE434FFFE7C007D05121C6D58
:105690007D09121C7FC3EF9410EE940050047E002D
:1056A0007F10D3EF941FEE940040027F1F227E00F4
:1056B0007C007D09121C6DEF2402FFE43EFE7D0597
:1056C000121C7FEF2420FFE43EFEC3EF943DEE94D6
:1056D0000050047E007F3DD3EF9458EE94004002CA
:1056E0007F582290045E121ECFE4FF900461121EC8
:1056F000C68F82758300121C0CFE90045E121EC6BB
:105700008F82758300121C0C6E60037F00220FEFE6
:10571000B408D87F0122900459EEF0A3EFF07E4A3E
:105720007F64125A78900500E0FF7E001249F77EF0
:105730004A7F6B125A78900459E0FEA3E0FF1249A9
:10574000F77E4A7F70025A78EF14601214601414C6
:10575000601814601A2404701E90612D80089061F6
:105760002E800390612FE493FF22E4FF025FFB9001
:10577000611F740193FF227F00224144422D437533
:1057800072736F722053544147452D34422D302E91
:10579000312E30002000323032362D30392D303865
:1057A00000207469636B3D000D0A00EF7E0060020B
:1057B0007E01AF06900454E06F6020EFF090041E6D
:1057C0007401F07E337FF2125A78900454E0FF7E29
:1057D000001249F77E337F16125A7822E521C394CE
:1057E000784025E5257021FF74AB2FF582E4340461
:1057F000F583E0FE74BA2FF582E43404F583EEF00D
:105800000FEFB40FE3752501026008C0E0C083C04C
:1058100082C0D075D000C004C005C007309807C250
:1058200098AF99125AA0309902C299D007D005D0EA
:1058300004D0D0D082D083D0E032E490050DF09037
:105840000457F0900457E0FFC3951A501312351C0B
:10585000900457E0FF121080900457E004F080E3BA
:10586000AF15AE14AD13AC122212559B7E607FF9BA
:10587000125A78E4FFFE12564212360C7F017E0067
:1058800012547612298C121803122FC812149C126B
:1058900031FA12498780E59004657488F0A3E4F03A
:1058A000A3F0900465E0FEA3E0FF1250FA900465B7
:1058B000740275F000121CD4900467E004F0E0C399
:1058C000943C40DE2290050E7480F0A3E4F08F9F9C
:1058D000E59520E11990050EE07002A3E0600F90BD
:1058E000050E74FFF5F0121CD41217FC80E2026062
:1058F000F1125E179003D8E0FF90041BE0FEB5079D
:10590000037F002274DB2EF582E43403F583E0127A
:105910001C3990041BE004543FF07F01229004598D
:10592000EFF0900395E06F601F900459E0FF900343
:1059300095F0125F8B900459E060067E3F7F638094
:10594000047E3F7F6E125A7822900210EFF0A3740B
:1059500001F0E4A3F0A304F0ED7F0060027F01906A
:105960000214EFF07B017A0279109004747405F050
:105970007F07024064900210EFF0A37402F0E4A3EA
:10598000F0A37404F0E4A3F0A3F0ECA3F0A3EDF013
:105990007B017A0279109004747408F07F0702404A
:1059A00064AD07ED75F008A42433F582E43461F5A5
:1059B00083E493FEED75F008A42434F582E43461A9
:1059C000F583E4937C002400FFEC3EFE22EF600CA4
:1059D00090042AE0C394185003E004F0EF700C9098
:1059E000042AE0D394004003E014F0E4900442F071
:1059F000A3F090041E04F022EF7E0060027E01AF4F
:105A00000690044FE06F601AEFF07E337FE9125A80
:105A10007890044FE0FF7E001249F77E337F161224
:105A20005A78227F007E021253077D557F007E0246
:105A30001251C67DAA7F017E021251C67D69740291
:105A4000FFFE1251C67D967F037E020251C67B0186
:105A50007A04798E7D0B900462121ECFE4FFFEEE75
:105A6000C39D5013900462121EC68E82758300126D
:105A70001C0C2FFF0E80E82290047AEEF0A3EFF0CA
:105A800090047AE0FEA3E0F5828E83E493FF600F3A
:105A90001258C590047AE475F001121CD480E122FA
:105AA000E51C2401FDE4351B5401FCED651E70036B
:105AB000EC651D60127400251CF5827400351BF521
:105AC00083EFF08C1B8D1C22126008E4F5257522F3
:105AD0000153B1FB43B204438E02E589540F4410D5
:105AE000F589758BC0758DF9D2BBD2ABD28E22C031
:105AF00003C002C0017B017A04799A900461121EEE
:105B0000CFD001D002D0031236F9E49004AAF0906D
:105B1000048CF0A3F0229002107401F0FB7A027959
:105B200028E4900474F07F041240647B017A0279C7
:105B3000109004747401F07F05024064E49003D86F
:105B4000F090041BF01260F5438EC053C1CF43C2E6
:105B50003075C45075C50A75C61A53AAFDA304F062
:105B600022E4FE900378E0547FF0D2EE900378E0D8
:105B70005480701112429F43CF100EEEC394647490
:105B800080948040E7229003D8E0FE04543FFD90CB
:105B9000041BE06D601374DB2EF582E43403F5839F
:105BA000EFF0AF059003D8EFF0229002107416F0DA
:105BB000A37405F0E4A3F0A304F0A3EFF07B017A53
:105BC0000279109004747405F07F07024064EF7F3F
:105BD0000060027F01900427EFF0E4900423F0902E
:105BE0000448F0A3F090041E04F0EF600312263C7A
:105BF00022900210EFF0A37404F0E4A3F0A304F0E9
:105C0000A3EDF07B017A0279109004747405F07FA3
:105C10000702406490045D121ECFE4FFFEEEC39DB8
:105C2000501390045D121EC68E82758300121C0CE8
:105C30002FFF0E80E822E4F51FF51BF51CF51DF57E
:105C40001E125FEE123AD6759850125DB5C299C217
:105C500098D2AC751F0122439A10539BEFD2844314
:105C600091055392FAD290D29243A1A453A25BD24F
:105C7000A2D2A5D2A7221260D4EF60181260DAEF88
:105C8000FD7C007F03125975125DCEAC06AD077F17
:105C900017125975224F544120626567696E0D0ACB
:105CA000004F5441206372630D0A004F5441206F2E
:105CB0006B0D0A00E4FFEFC3951A50161227F4E0AB
:105CC000FCA3E0FD90032E122816ECF0A3EDF00FDC
:105CD00080E422AE07E4FDC2B1EE1392B012604A36
:105CE000D2B112604AEEC313FE0DEDB408E9C2B1A1
:105CF00022900450121E8900000000E490044DF030
:105D0000900436121E89000000007F02025FB290EC
:105D10000486121ECFE4FF900486121EC68F827581
:105D20008300E4121C4B0FEFB410EC22900455E0FA
:105D3000FE70037F0222EEB401037F00229004551F
:105D4000E07F01B402027F0322E51F6018A2AFE4E6
:105D500033FEC2AF309807C298AF99125AA0AF066F
:105D6000EE24FF92AF2274CF2FF582E43404F58342
:105D7000E0FE74CF2FF582E43404F583E4F0AF063F
:105D8000227E3E7FDC125A7890020D7401F0E4907E
:105D9000032CF0900226F0A3F0025B16E4FDFCD287
:105DA000A4125F7BC2A4125F7B0DBD00010CBC017D
:105DB000EEBD2CEB2275CE02438E04E4F5C975C806
:105DC000307C0DECF5CB75CA05C2CAC2AD2212609B
:105DD000DA7E007C007D09121C6D7D05121C7FEFB0
:105DE0002420FFE43EFE22E4FEFDEE25E0FEEF541B
:105DF000014EFEEFC313FF0DEDB408EEAF0622E433
:105E000090020FF07F551250B4EF700890020F040B
:105E1000F07F00227F012290041CE060101260F5E8
:105E2000E5C430E008AFC7125B8653C4FD224D4580
:105E30004D2077720D0A004D454D20777220666126
:105E4000696C0D0A001259A1EF7803C333CE33CE2B
:105E5000D8F9FF7C007D0A121C7F22900454E06078
:105E60000DE4F004125FAD7E337F0A125A7822905F
:105E7000043AE0FEB406037F0122EE7F00B407027D
:105E80007F0222539A9F439B60438F3075955075D4
:105E90009D15759E01227F10900457E4F0A3DFFC4E
:105EA0007B017A0479570260EC900456E0600302AB
:105EB00059CD90041FE0600312473E22438E01E556
:105EC0008954F04401F589C28CC2A9C28D22900484
:105ED0001FE06F600AEF7F0060027F0112552722EA
:105EE000EF75F008A42430F582E43461F583E4937F
:105EF000FF22E4FFEFC3951A50091227F41228E994
:105F00000F80F122D2B0D2B112604AC2B012604A00
:105F1000C2B102604AC2B0C2B112604AD2B11260CC
:105F20004AD2B002604A9004207407F0A374D0F003
:105F300090041E7401F02290044EE090043B600532
:105F4000E0FF025678E0FF22574946492065303D80
:105F5000002065313D000D0A000000000000000037
:105F6000000000000000000000220000000000000F
:105F70000000000000000000000022E4FFFE000F0F
:105F8000BF00010EBE01F7BFE0F42290044CE06FA9
:105F90006008EFF090041E7401F0229003D7E06FC8
:105FA00060089003D7EFF0125FE122740190041EA5
:105FB000F0FF900444E04FF02253A3BFC2A643A1D8
:105FC0004053A2BFC2A62243B10353B2FCD2B1D206
:105FD000B0025E96900455E0B40105E4900422F00E
:105FE0002290043AE06F6005EFF0125FAB22125F7F
:105FF000B953A3FC53A1FC43A2032274702FF58272
:10600000E43403F583E0FF22E4F526F521F527F5D6
:1060100023F524221260C8EFFD7C007F960259759B
:10602000906115E493FE740193FF22906119E4934B
:10603000FE740193FF22125A787E337F16025A783B
:1060400090032DE075F00384FF22E4FF000FEFB40E
:106050000CFA2243A11053A2EFC2A422EF7002FF58
:1060600022ED04FF2241038E0041050B0000900445
:1060700044E0FFE4F022E49004E8F0025AC8C2AF22
:10608000E4F5F4020000906113740193FF22906123
:106090000D740193FF2290032DE0C313FF2290049F
:1060A0001FE0FF22900455E0FF22900422E0FF222F
:1060B00090043BE0FF2290044EE0FF2290044FE06A
:1060C000FF22900454E0FF2290044DE0FF22900450
:1060D00027E0FF22900504E0FF22900500E0FF2268
:1060E000900221E0FF22900510E0FF227D8F024FF9
:1060F000DD5395FE2275DC02220D0A00025FC77F88
:106100000122D2EE22A20122D201220000000100CF
:10611000000005000A0BB800C8006400020000007F
:1061200000000400000001FFFFFFFF001D04280421
:1061300008200501AD04280408250501A904280448
:106140000828050153042804081605022104280420
:10615000081B0502220428040820050252FC60DA0C
:10616000F266B6BEE0FEF69E028040201008041CD7
:0561700017120A1508DA
:00000001FF
