:100000000228B0FC60DAF266B6BEE0FEF69E021C84
:0500100017120A15089B
:03001B00022E5062
:030023000242D2C4
:03005B00023D89DA
:100080009001ABEFF0E49001B3F09001ABE0900091
:100090000112110912124C9001ACF0A3EFF0E47FB1
:1000A00001FEFDFC9001ABE0F9F8120ACF8F198E2A
:1000B000188D178C16AF011242509001B1EEF0A3CB
:1000C000EFF012115C400512126E8005E49001AE53
:1000D000F09001AEE0640160030202329001ABE0F7
:1000E000FF2425121171E0C394FA748094805006A5
:1000F00012116EE004F012121FFCE4FBFAF9F8C3CF
:10010000120AAB600302021F900000E09001B0F001
:1001100012494EEF6030E49001AEF0A3F01211A945
:10012000501812116EE0C3940174809480400690C0
:1001300001AEE004F012123380E31211DC400790AC
:1001400001B0E0240FF09001ABE0242512117112F0
:10015000128E500302021FE49001AEF01248E5EF48
:10016000705E9001AFF01211A950229001ABE06FC8
:10017000601612489F9001AFE02425121171E0C370
:100180009F400512126E800512123380D912494E1B
:10019000EF3395E04F70639001AEE0705DA3F01215
:1001A00011A950569001ABE06F601012489F90016A
:1001B000AF1211C3E0C39F4002803C12123380DFB4
:1001C00012494EEF3395E04F70309001B0F090013E
:1001D000AFF01211A9501812116EE0C3940274808E
:1001E000948040069001B0E004F012123380E39056
:1001F00001B01211DF400312126E9001AEE06401F3
:100200007002D200E5154519FFE5144518FEE51307
:100210004517FDE51245168F158E148D13F51290B6
:1002200001ABE0FF243D12111FE4F0A31211B6024E
:1002300004459001ABE0FF1246A69001ACE0FCA3A0
:10024000E0FDD312115040081211C0E004F0800B01
:10025000900256E004F01211C0E4F0121256C3E40A
:100260009FFBE49EFAC3ED9BEA1211524066D31243
:10027000115D50601211FDF583E41211B612118761
:1002800060030203999001ACE0FEA3E0FF9001AB94
:10029000E09000311211A3EE8FF012095E12488A2D
:1002A00012113E4009121179E475F00180191248CB
:1002B0008AC3E49FFFE49EFE12113E4003020399AD
:1002C00012117974FFF5F012095E121134E4F0A3F3
:1002D000F0020399121256C3E49FFFE412115A5020
:1002E000731211FD1211B2F583E4F0743D2FF58203
:1002F000E43400F583E0FF75F00A84E5F07044C350
:10030000EF9464748094809001ABE040101212026C
:10031000F583E4F0D20190006104F0802612117E92
:10032000C083C082E0FEA3E0FF90004EE0A2E7138E
:10033000FD3395E0FCC3EF9DFFEE9CD082D083F0AF
:10034000A3EFF09001ABE0FF90024FE06F704A74B2
:10035000FFF08045121256D312115D403C9001AB64
:10036000E012120212118770301212751211B2F5DA
:1003700083E064207023121275F583E4F090004E40
:10038000E0A2E713A2E713FD3395E0FC75F002EF5E
:10039000121181EC8DF012095E12121F4D4E4F703A
:1003A000030204519001B1E0FCA3E0FDAE04780229
:1003B000CEA2E713CE13D8F8FFC3ED9FFFEC1211C6
:1003C0005A400302044A1211CEE004F01248ED90A4
:1003D00001B0EFF0E49001AFF01211A95018121122
:1003E0006EE0C394017480948040069001AEE004F6
:1003F000F012123380E31211DC4008900000E0900C
:1004000001B0F09001ABE0FB1211D212128E50033A
:1004100002049B745B2B1211D4E4F0AF19AE18AD3B
:1004200017AC16120A9EE5155FFFE5145EFEE51394
:100430005DFDE5125C8F158E148D13F51274252B5E
:10044000F582E43400F583E4F0221211CEE014F0DA
:10045000229001ABE02425121171121189700890CD
:1004600001ABE0FF123061E51A14FF9001ABE06FC1
:100470007029900256E0C3951A4020E49001AFF035
:100480001211A9500E12116EE0600312126E1212B8
:100490003380ED9001AEE07002C200227B017A024F
:1004A0007932123BDCEF700302087CE49001AAF081
:1004B0007F56124648900232E06F70279001AA04DE
:1004C000F0E4FC74322CF582E43402F583E0FF1290
:1004D000464874322CF582E43402F583EFF00CECDC
:1004E000B40FE0900232E06456600E7E1E7F22124E
:1004F0004327900232E0FF80231238D5900240E07B
:100500006F60237E1E7F2F124327900240E0FF1270
:100510003D127E1E7F3F1243271238D5123D127EB8
:100520001E7F1F024327900233E09001ABF0900240
:1005300036E09001ACF0900237E09001ADF090020F
:1005400038E0FF90023AE0FBA3E0FDA3E09001AEAB
:10055000F090023DE0FCEDC4131354019001B6F09D
:10056000EDC41313135401A3F0EF131313540190AC
:1005700001BCF09001ADE0FF131354019001BDF0F8
:10058000900231E06048900241E0FE9001ABE06EE5
:10059000703C900242E0FE9001ACE06E7030900240
:1005A00043E0FEEFB5062790022FE0FF9001B6E092
:1005B000B5071B900230E0FF9001B7E0B5070F9040
:1005C000022EE0FF9001BCE06F700302087C9001F6
:1005D000ABE0900241F09001ACE0FF900242F0905D
:1005E00001ADE0FE900243F09001B6E090022FF0E2
:1005F0009001B7E0900230F09001BCE090022EF044
:100600009002317401F0EE54C07E0070027E0190C1
:1006100001B4EEF0EFC45407FF9001AFF0A37401F2
:10062000F0E4A3F0BF0203F0802D9001AFE0FFB42F
:1006300001089001B17402F0801DEFB4030890012D
:10064000B17401F08011EFB405089001B17403F0AA
:100650008005E49001B0F09001ACE0FF5403FE90FF
:1006600001B2F0BE0205E4A3F0801D9001B2E0FEED
:10067000B40306A37401F0800FEE9001B3B401053A
:100680007402F0800374FFF09001ABE0FEC3946C41
:1006900050089001B57410F0800FEE24A49001B5BD
:1006A000F0D3941F4003741FF0EB541F9001BAF075
:1006B0009001AEE0541F9001BBF0E49001B8F0A3AC
:1006C000F0EF540C701AA3E07016A3E07012EC5413
:1006D0003F700DED543F70089001B87403F08079BD
:1006E0009001ACE0FF540C640C600AEF5404601AF3
:1006F000E0540860157E1E7F451243279001ACE050
:10070000FF123D127E1E7F1F804C9001ACE054040E
:10071000601D9001BBE0FFC39401400DEFD394181E
:1007200050079001B8740180237E1E7F548027906B
:1007300001ACE0540860229001BAE0FFC39401408C
:1007400011EFD39418500B9001B87402F0A3EFF09E
:1007500080077E1E7F6A1243277E1E7F7F124327FB
:100760009001AAE060067E1E7F8F80047E1E7F932C
:100770001243277E1E7F971243279001B4E0FF7E2D
:10078000001234217E1E7F9B1243279001AFE0FFB1
:100790007E001234217E1E7FA31243279001B2E017
:1007A000FF7E001234217E1E7FAB1243279001ABE7
:1007B000E0FF123D127E1E7F131243279001ADE031
:1007C000FF123D127E1E7F1F1243279001B0E07082
:1007D000077E1E7FAF1243279001B3E0B4FF077E70
:1007E0001E7FCD1243277E1E7FDF1243279001B765
:1007F000E060067E1E7FE880047E1E7FEA124327AB
:100800009001B6E060077E1E7FEC1243277E1E7FBC
:100810001F1243279001AEE0548060077E1E7FF1D7
:100820001243277B017A027932122ED79001B4E06D
:10083000FF9001B0E0FDA3E0FB9001B3E09001C1A7
:10084000F09001B5E09001C2F09001B6E09001C3D4
:10085000F09001B7E09001C4F09001B8E09001C5BC
:10086000F09001B9E09001C6F09001BCE09001C7A2
:10087000F09001BDE09001C8F0120E7B22BB010692
:1008800089828A83E0225002E722BBFE02E32289AA
:10089000828A83E49322BB010CE58229F582E583F9
:1008A0003AF583E0225006E92582F8E622BBFE06EF
:1008B000E92582F8E222E58229F582E5833AF5838B
:1008C000E49322BB010689828A83F0225002F72238
:1008D000BBFE01F322F8BB010DE58229F582E58319
:1008E0003AF583E8F0225006E92582C8F622BBFEDD
:1008F00005E92582C8F222EF8DF0A4A8F0CF8CF094
:10090000A428CE8DF0A42EFE22BC000BBE0029EF41
:100910008DF084FFADF022E4CCF875F008EF2FFFE6
:10092000EE33FEEC33FCEE9DEC984005FCEE9DFEB4
:100930000FD5F0E9E4CEFD22EDF8F5F0EE8420D2FB
:100940001CFEADF075F008EF2FFFED33FD4007986A
:100950005006D5F0F222C398FD0FD5F0EA22C5F07B
:10096000F8A3E028F0C5F0F8E5821582700215833F
:10097000E038F022EF2BFFEE3AFEED39FDEC38FCCB
:1009800022E88FF0A4CC8BF0A42CFCE98EF0A42CF0
:10099000FC8AF0EDA42CFCEA8EF0A4CDA8F08BF03C
:1009A000A42DCC3825F0FDE98FF0A42CCD35F0FC3A
:1009B000EB8EF0A4FEA9F0EB8FF0A4CFC5F02ECD06
:1009C00039FEE43CFCEAA42DCE35F0FDE43CFC22EB
:1009D00075F008758200EF2FFFEE33FECD33CDCCDE
:1009E00033CCC58233C5829BED9AEC99E582984061
:1009F0000CF582EE9BFEED9AFDEC99FC0FD5F0D63E
:100A0000E4CEFBE4CDFAE4CCF9A88222B800C1B967
:100A10000059BA002DEC8BF084CFCECDFCE5F0CBA5
:100A2000F97818EF2FFFEE33FEED33FDEC33FCEBDE
:100A300033FB10D703994004EB99FB0FD8E5E4F999
:100A4000FA227818EF2FFFEE33FEED33FDEC33FC86
:100A5000C933C910D7059BE99A4007EC9BFCE99A7A
:100A6000F90FD8E0E4C9FAE4CCFB2275F010EF2FBF
:100A7000FFEE33FEED33FDCC33CCC833C810D707BF
:100A80009BEC9AE899400AED9BFDEC9AFCE899F8FA
:100A90000FD5F0DAE4CDFBE4CCFAE4C8F922CFF4C8
:100AA000CFCEF4CECDF4CDCCF4CC22EB9FF5F0EA52
:100AB0009E42F0E99D42F0E89C45F022E8600FEC90
:100AC000C313FCED13FDEE13FEEF13FFD8F122E884
:100AD000600FEFC333FFEE33FEED33FDEC33FCD894
:100AE000F122E0FCA3E0FDA3E0FEA3E0FF22E0F89A
:100AF000A3E0F9A3E0FAA3E0FB22ECF0A3EDF0A35E
:100B0000EEF0A3EFF022A8828583F0D083D082128A
:100B10000B1D120B1D120B1D120B1DE473E493A38E
:100B2000C583C5F0C583C8C582C8F0A3C583C5F019
:100B3000C583C8C582C822A42582F582E5F0358325
:100B4000F58322E0FBA3E0FAA3E0F922EBF0A3EAAD
:100B5000F0A3E9F022EC8EF0A4CCC5F0CCCDF8EFF8
:100B6000A4CEC5F02DFDE43CFCE8A42EC8C5F03DA4
:100B7000FDE43CFCEFA4FFE5F028FEE43DFDE43C91
:100B8000FC22E49001AAF09001AAE0FFC394065071
:100B90005A1245C79001ABEFF060481246BC900175
:100BA000AAE07008A3E0FF12378D80379001AAE019
:100BB000B40108A3E0FF122F5D80289001AAE0B4E1
:100BC0000305123887801C9001AAE0B40205123395
:100BD0003F80109001AAE0B404047F018002E4FF8A
:100BE00012470A9001AAE004F0809C900177E0701F
:100BF00002A3E0601990017774FFF5F012095E908E
:100C00000177E07002A3E0700590017504F01249CD
:100C100025EF601D12492B90017EE06F6013124991
:100C20002B90017EEFF09001757401F07F04124863
:100C3000119001A9E0604E900197E475F00112094E
:100C40005E900189E475F00112095EC390018AE0AB
:100C500094F4900189E094014019E4F0A3F090012C
:100C600080E07F0070027F01900180EFF0900175BD
:100C70007401F0C3900198E09488900197E0941378
:100C800040031234F390017AE0602390019DE475F3
:100C9000F00112095EC390019EE0948890019DE0EE
:100CA0009413400AE490017AF090017504F0E4FF97
:100CB000FEFDFC900191120AEEC3120AAB60439054
:100CC0000191120AE2EF24FFFFEE34FFFEED34FF44
:100CD000FDEC34FFFC900191120AFAE4FFFEFDFCEA
:100CE000900191120AEEC3120AAB701690017CE0DB
:100CF0006004E4FF80027F01123DFF7E1D7FE91248
:100D00004895900176E07003020DA19001A3120AAC
:100D1000E2EF2401FFE43EFEE43DFDE43CFC9001F3
:100D2000A3120AFAE47F607EEAFDFC9001A3120A96
:100D3000EEC3120AAB40169001A3120B060000008E
:100D4000009001A0E0C3941E5003E004F090018BDA
:100D5000120AE2EF2401FFE43EFEE43DFDE43CFC28
:100D600090018B120AFA7F407E777D1B7C009001F8
:100D70008B120AEEC3120AAB402790018B120B06AE
:100D8000000000007F021248117E1D7FF6124327EB
:100D90009001A0E0FF7E001234217E1D7F041243EB
:100DA0002712493190019CE06F600EEFF0E4900152
:100DB00095F0A3F090017504F0EF6003B4060B907A
:100DC00001ACE4F0A374FAF08017EFB4010C9001C9
:100DD000AC7405F0A374DCF08007E49001ACF0A3E0
:100DE000F09001ACE0FCA3E0FD4C6032900195E492
:100DF00075F00112095EC3900196E09D900195E0A7
:100E00009C403FE4F0A3F090017BE07E0070027E06
:100E10000190017BEEF09001757401F08024EF6485
:100E2000036004EFB4040E90017BE0701504F090B1
:100E30000175F0800D90017BE06007E4F090017592
:100E400004F090019AE475F00112095E900175E0DA
:100E5000700FC390019BE0943290019AE09400409F
:100E60000EE490019AF0A3F0900175F0121436127E
:100E700036797B017A0179810232CC9001BEEFF0A4
:100E8000A3EDF0A3EBF0E49001A9F090017AF090CB
:100E90000176E09001CAF0900190E09001CBF090D3
:100EA00001A1E0FF9001CCF09001C4E0FE6F601A58
:100EB0009001A1EEF060067E1D7F5680047E1D7FAE
:100EC0004B1248959001757401F09001A1E06021EA
:100ED0009001C2E0FF123F869001C9EFF09001C37C
:100EE000E0602A9001C9E0C394585021E004F080EA
:100EF0001C9001C2E09001C9F0C39410500374101B
:100F0000F09001C9E0D3941F4003741FF09001904A
:100F1000E0FF9001C9E0FE6F602F900190EEF07E3F
:100F20001D7F1B124327900190E0FF7E00123421A9
:100F30009001A1E060067E1D7F2380047E1D7F2737
:100F40001243279001757401F09001CAE06019A363
:100F5000E0FF900190E0B5070C9001CCE0FF90011C
:100F6000A1E06F60031247879001BFE0604D9001E0
:100F7000A8E0FF9001C0E0FE6F6040EFB401089070
:100F80000174E0900179F0EEB4010D900179E090E8
:100F90000174F0E4900179F09001A8EEF07E1D7FDD
:100FA0006A1243279001A8E0FF7E001234217E1DC3
:100FB0007F041243279001757401F09001C1E0FF96
:100FC000D39402503B9001A8E06401603390017912
:100FD000E0FEEF6E602A9001C1E0900179F090018F
:100FE00074F07E1D7F61124327900179E0FF7E003F
:100FF0001234217E1D7F041243279001757401F085
:101000001248339001C5E0B40324E4FFFEFDFC90D8
:101010000191120AEEC3120AAB6068900191120BA3
:1010200006000000007E1D7F2B124895804F900126
:10103000C5E0FF64016005EF640270479001C6E0FF
:10104000FFE4FCFDFE7B807AEE7936F81209819090
:101050000191120AFA9001C5E07F00B401027F01FC
:1010600090017CEFF07E1D7F351243279001C6E092
:10107000FF7E001234217E1D7F3E124327900175B2
:101080007401F0900176E0FE9001BEE0FF6E600317
:10109000123DFF9001C7E07F0060027F019001C711
:1010A000EFF09001A2E06F60269001C7E09001A2EE
:1010B000F07E1D7FD71243279001A2E0FF7E001231
:1010C00034217E1D7F041243279001757401F09036
:1010D00001C8E07F0160027F009001A7E06F6020FF
:1010E000EFF07E1D7FE01243279001A7E0FF7E0016
:1010F0001234217E1D7F041243279001757401F084
:101100007F01024811E090004FFF75F002120B378B
:10111000E0FCA3E0FDEF90001975F002020B37F53B
:1011200082E43400F583E4F0745B2FF582E434004C
:10113000F583E4F0900031EF75F002020B37900177
:10114000ABE075F002900031120B37E0FCA3E0C376
:101150009FEE6480F8EC648098229EFEC39001ADFF
:10116000E09FEE6480F89001ACE0648098227425E2
:101170002FF582E43400F583229001ABE0FF75F097
:1011800002900001020B37F583E4F0FFFEFDFCAB9B
:1011900015AA14A913A812C3020AAB9001ACE0FD72
:1011A00090004F75F002020B379001AFE0FFC3953E
:1011B0001A22F583E004F0740D2FF582E434002246
:1011C0009001ABE0242BF582E43400F583229001FA
:1011D000ABE0245BF582E43400F583229001AEE0BD
:1011E000C3940374809480227D0A120909AD037CA4
:1011F000001208F79001B4E0FD900001229001ABCD
:10120000E0FF243DF582E4340022E0FCA3E0FD751C
:10121000F002EF90004F120B37ECF0A3EDF022E557
:10122000155519FFE5145518FEE5135517FDE51280
:101230005516229001AFE004F0227E00900250E0AB
:10124000FCA3E0FD1208F78EE78FE622E0FEA3E0A4
:10125000C39DFFEE9C2290004EE0FF3395E0FE22FE
:10126000A4FFE0C39FE5F06480F8748098229001A9
:10127000AE7401F0229001ABE0FF240DF582E4345E
:10128000002290004EE0FB3395E0FAFEEB22E0FFF7
:101290009001B0E0FEEFC39E229FEE6480F8EA6406
:1012A0008098229001AAE0FF90024EE02290004B2D
:1012B000E0FF30E70F547FF012198E90021E120AE1
:1012C000FA124951E4FB90021E120AE2EB90000F61
:1012D00093F9F8120ABCEF5401FFEF70030213E810
:1012E000EB25E02422F582E43402F583E0FEA3E05E
:1012F000C39460EE94EA5013EB25E02422F582E4D7
:101300003402F583E475F00112095EEB25E0242236
:10131000F582E43402F583E0FEA3E064014E703D03
:10132000EB6403600EEB64026009EB64046004EBA1
:10133000B4050D74182BF582E43402F5837401F0C2
:10134000EBB401192418F582E43402F583E0700D42
:1013500074182BF582E43402F5837401F0EB25E078
:101360002422F582E43402F583E0FEA3E064B87041
:1013700003EE640B702D74122BF582E43402F583B6
:10138000E0702074122BF582E43402F5837401F0CE
:10139000EB6003B4010D74182BF582E43402F5837D
:1013A0007402F0EB64046005EB6405707FEB25E0EC
:1013B0002422F582E43402F583E0FEA3E0FFC39427
:1013C00090EE94014066EF2470FFEE34FEFE7C0048
:1013D0007DC8120909ED4C705374182BF582E43462
:1013E00002F5837403F08044EB7025EB25E02422A2
:1013F000F582E43402F583E0FEA3E0C39428EE9482
:1014000000400D74182BF582E43402F5837401F06A
:10141000EB25E02422F582E43402F583E4F0A3F026
:1014200074122BF582E43402F583E4F00BEB6406CE
:1014300060030212C622E49001AEF0A3F0A3F0A371
:10144000F0A3F0FFFEFDFC900191120AEEC3120A18
:10145000AB60069001B07401F0900176E0600C90F2
:10146000019FE060069001B17401F09001A9E06075
:101470001B9001B07401F0900180E07003021532FE
:101480009001AE7401F090017F02151090017AE096
:1014900060369001B07401F0900191120AE2EF24DD
:1014A0007FFFEE34EEFEED3436FDE43CFC7B807ACB
:1014B000EE79367800120A0CEF70027F019001AECF
:1014C0007401F0A3EFF0806A900176E0606490010F
:1014D0009FE0701A90018FE0FFB406089001B1748C
:1014E00002F0800AEFB407069001B17403F0900196
:1014F000B1E0FF64026036EFB40302803090017700
:10150000E07002A3E060109001AE7401F0900190D1
:10151000E09001AFF0801B124925EF60109001AE02
:101520007401F0123B9C9001AFEFF08005E4900154
:10153000AEF09001A9E0700690017AE0600690019B
:10154000B27401F09001B1E0FF64026009EF64033E
:101550006004EFB401069001B27401F09001A7E0BD
:10156000FFFE9001B2E06004E4FE8008EF6005E455
:101570009001AEF0900176E0FFAD069001A8E0FB8F
:10158000900179E09001B6F09001AEE09001B7F0E3
:101590009001AFE09001B8F09001B0E09001B9F097
:1015A00090017BE09001BAF0A3EEF09001B1E090E1
:1015B00001BCF00215B69001B3EFF0A3EDF0A3EB80
:1015C000F07B017A0179BD1245549001BCE0FC64C6
:1015D0000170237B017A0179BD9001D37409F090E9
:1015E000000E123B6B7B017A0179BD9001D374062A
:1015F000F090000E8033EC64027014123B5C7B01AF
:101600007A0179BD9001D37406F0900004801A909D
:1016100001BCE064037015123B5C7B017A0179BD6B
:101620009001D37406F0900005E480539001B7E078
:101630006056A3E0FFC39464504EEFFB7C007D0A2C
:101640007E001209099001CDEFF07C007D0AAF0306
:101650007E00120909AC057B017A0179BD9001D3A6
:101660007409F09001CDE0900003123B6C7B017A8D
:101670000179BD9001D37406F0AF04EF900003939D
:101680009001D4F01D123B739001B3E06064A3E0BD
:101690007060A3E0FD70099001BDE04404F080217A
:1016A000EDB401099001BDE04410F080149001B543
:1016B000E09001BEB40206E04408F08004E0440279
:1016C000F09001B6E0FD70099001C7E04404F0809D
:1016D00021EDB401099001C7E04410F0801490019D
:1016E000B6E09001CCB40206E04402F08004E0448D
:1016F00008F09001B9E060079001BEE04410F0905E
:1017000001BAE060079001C7E04402F09001BBE03D
:101710009001CE60057488F08003748FF07B017AAD
:101720000179BD9001CEE0FD0239BA9001AAEFF037
:101730009002541211DF403EE4F0900061E0702B03
:101740009001ABF09001ABE0C3951A501EE0FF1280
:1017500011A0E0FCA3E0FD75F002EF121181ECF0A6
:10176000A3EDF09001ABE004F080D9123DC4C201BA
:10177000E4900061F02290024EE004F01212A3B552
:101780000708124753E490024FF01212A3D39F5060
:101790000302185CE49001ABF09001ABE0C3951A32
:1017A000507A12110512124CAD07FC900061E070E6
:1017B0002E1212827802C333CE33CED8F9FFD3ED86
:1017C0001211504046E49BFFE49AFEEF7802C333C7
:1017D000CE33CED8F9FFC3ED121150502E803D12FA
:1017E00012827803C333CE33CED8F9FFD3ED121172
:1017F000504018E49BFFE49AFEEF7803C333CE33E6
:10180000CED8F9FFC3ED12115040119001ABE0FFAB
:101810001221089001ABE004F00217999001ABE0AF
:10182000B51A0690024FE004F09001AAE0FD75F0B1
:101830000890024E1212604023E4F0C2009002545D
:10184000E004F0ED75F00490024F121260400DE4D8
:10185000900254F01244F9123DC4C201229001B327
:10186000EFF09001B8E07002A3E0700302198DED73
:1018700064027025C39001B9E094049001B8E0942B
:10188000004016900002120896FE9000031208967F
:10189000FDEDFF9001BAEE800812087DFF9001BABD
:1018A000E4F0A3EFF09001B3E0B401169001BAA305
:1018B000E0FF12472F1248F5AD077F011241F802F1
:1018C00048739001B3E0B402149001BAA3E0FF1290
:1018D00035BB124798EFFD7C007F02807A9001B300
:1018E000E0B404129001BAA3E0FF1230E112457196
:1018F000AD077F0480309001B3E0B405129001BAC7
:10190000A3E0FF123C5B124901AD077F05801790F1
:1019100001B3E0B413139001BAA3E0FF123EE31247
:10192000490DAD077F130244559001B3E064187070
:10193000299001BAA3E0FF12361A12490DEF600B8D
:101940001249077E007C00AD07800A9001BAE0FED4
:10195000A3E0AC06FD7F180242249001B3E0B41965
:10196000129001BAA3E0FF1242A7124913AD077FFC
:101970001980179001B3E0B478139001BAA3E0FF87
:101980001240B7124919AD077F781241F822E4F5E9
:1019900009F511F510F50FF50E1249545003021A0E
:1019A000A71241178F0D8E0C8D0B8C0AE4F508E5FC
:1019B00008C3951A505CE50D5401FFE4FEFDFCFBE5
:1019C000FAF9F8C3120AAB6030E47F01FEFDFC7443
:1019D000132508F582E43400F583E0F9F8120ACF04
:1019E000E5114FFFE5104EFEE50F4DFDE50E4C8F66
:1019F000118E108D0FF50E0509AF0DAE0CAD0BACB1
:101A00000A7801120ABC8F0D8E0C8D0B8C0A05080A
:101A1000809DE509C394024015D200E50994034076
:101A20000512495780081248E5EF6002C200200005
:101A300028E4FFFEFDFCAB11AA10A90FA80EC312EB
:101A40000AAB600C90004CE475F00112095E801C3A
:101A5000E490004CF0A3F08013900049E475F0018D
:101A600012095EE4F511F510F50FF50E12487FD35B
:101A700090004DE09F90004CE09E400A124957E4D0
:101A800090004CF0A3F0D390004AE0942C900049D1
:101A9000E09401401D1249579000617401F0E490F8
:101AA0000049F0A3F0800B90496AE4740193FF129F
:101AB000172BAF11AE10AD0FAC0E22AD079000FA90
:101AC000E0FF7014ED64556003021BDD9000F8ED3B
:101AD000F09000FA7401F022EFB4011CEDB4AA0DED
:101AE0009000F8E02DF09000FA7402F022ED6455B9
:101AF0007003021BDD021BD89000FAE0FFB4021253
:101B00009000F6EDF09000F8E02DF09000FA7403EC
:101B1000F022EFB403129000F0EDF09000F8E02D09
:101B2000F09000FA7404F0229000FAE0FCB404157E
:101B3000ED9000F2F0A3E4F09000F8E02DF09000BA
:101B4000FA7405F022EC6405703FEDFF9000F2E0BE
:101B5000FEA3E04FFF9000F2EEF0FEA3EFF0900046
:101B6000F8E02DF0E49000F4F0A3F0D3EF9420EE31
:101B70009400400280629000F2E07002A3E09000C6
:101B8000FA700280457406F0229000FAE0B4063E36
:101B90009000F4E0FEA3E02413F58274013EF58387
:101BA000EDF09000F8E02DF09000F4E475F00112F3
:101BB000095E9000F2E0FEA3E0FFC39000F5E09F15
:101BC0009000F4E09E40169000FA7407F022900016
:101BD000F8E0B5050312200BE49000FAF022900221
:101BE00047E475F00112095EC3900248E0946490E6
:101BF0000247E094005003021CF7E4900247F0A370
:101C0000F0123AD79001AAEEF0A3EFF0F47002EED2
:101C1000F460179001AAE0FEA3E0FFC3EE94024037
:101C200009D3EF9480EE940C402490024AE06003C4
:101C3000021CF704F07E347F9D1243279001AAE036
:101C4000FEA3E0FF1234217E347F9A024327E49002
:101C5000024AF0900246E070159001AAE0FFA3E06E
:101C6000900244CFF0A3EFF0A37401F0803690020D
:101C700044E0FEA3E0FF7C007D07120B55A804A9F9
:101C800005AA06AB079001AAE0FEA3E0FFE4FCFD75
:101C9000120974E47B08FAF9F8120A0C900244EE77
:101CA000F0A3EFF090024DE07016123A0290024954
:101CB000EFF090024D7401F0E490024BF0A3802B02
:101CC00090024BE475F06412095EC390024CE094FC
:101CD000E890024BE09403401EE490024BF0A3F026
:101CE000123A02900249E06F600DEFF0900244E07A
:101CF000FEA3E0FF12402222484D49207363723D4B
:101D0000300D0A000D0A00484D49207077723D31B0
:101D100000484D49207077723D3000484D4920748D
:101D2000733D00460D0A00430D0A00484D492074DA
:101D30006D723D3000484D4920746D723D00680D54
:101D40000A00484D49207769666900484D49207569
:101D50006E69743D4300484D4920756E69743D4677
:101D600000484D492066616E3D00484D49206D6F29
:101D700064653D00484D4920746D72206564697446
:101D8000004D454D206D6973730D0A004D454D2082
:101D90006F6B20703D00206D3D0020663D0020747B
:101DA000733D00484D4920703D00460043002074BB
:101DB0006D723D0020773D00207361763D002073F9
:101DC0006C703D00207573653D00206C6F73743D31
:101DD0000020666C743D00484D4920736C703D00D6
:101DE000484D49207363723D00484D4920746D721F
:101DF00020646F6E6500484D49207573653D000194
:101E000002030001030002495220657874726120C8
:101E1000433D0020453D0020463D0020473D000D4C
:101E20000A0049522064726F70207379733D004933
:101E300052206261642073756D20676F743D0020CD
:101E40006578703D00495220746D7220626F74682D
:101E500020443D00495220746D72206F66662D6DDE
:101E6000696E206F6E6C790D0A00495220746D7294
:101E7000206F6E2D6D696E206F6E6C790D0A0049B2
:101E800052206F6B206269746F726465723D006DE1
:101E90007362006C73620020703D00206D62697493
:101EA000733D002066626974733D0020413D004926
:101EB00052206175746F2F756E6B6E6F776E206D2B
:101EC0006F64652069676E6F72650D0A0049522064
:101ED00066616E3D6F6666206B6565700D0A004930
:101EE0005220756E69743D004600430020462B3138
:101EF0000049522066616E2B3120666C6167206C50
:101F00006F672D6F6E6C790D0A0012484D1247FBFA
:101F10007B017A0179AA12449AEF6028900110E0BF
:101F2000701804F07E2A7F1A1243279001AAE0FF5E
:101F3000123D127E297FFC1243279001AAE0FF1276
:101F40001ABB80CC900110E07067C390010FE09441
:101F50006090010EE094EA5007E475F00112095E0A
:101F600090010EE064077004A3E064D070437E2A01
:101F70007F23124327A2A0E4FE33FF1234217E2ADE
:101F80007F32124327A2A1E4FE33FF1234217E2ABE
:101F90007F38124327A2A6E4FE33FF1234217E2AA3
:101FA0007F3E124327AF98123D127E297FFC1243D9
:101FB000279000F9E06031900111E475F0011209F9
:101FC0005EC3900112E0942C900111E0940140183E
:101FD000E4F0A3F012439D900133E004F0E0C394D9
:101FE000064005E49000F9F01248CD9001ABEFF007
:101FF00030E003022C229001ABE030E10312487381
:102000009001ABE030E2031244DA229000F6E0FFE8
:102010006007640360030221079000F0E0703190D4
:10202000010CE0700904F07E297FE912432790003B
:10203000F7E07F0060027F019001ACEFF09000F7C5
:102040007401F0FB7A0179AC9001C0F0E4FF8024C8
:102050009000F0E0B401097C2A7D457F0102281040
:102060009000F0E0B402107B017A017913E4900152
:10207000C0F07F02022B019000F0E06403706190D9
:1020800000F2E07002A3E06032900113E0FF9001E3
:102090000DF09000F1E0FEEF6E602090010DE090F9
:1020A00000F1F07E297FF312432790010DE0FF7EBF
:1020B000001234217E297FFC1243277B017A0179AB
:1020C00013E49001C0F07F03122B0190010DE0FF9B
:1020D000D394014005EF6406702DE49000F9F022DE
:1020E0009000F0E0B4040CE49000F9F07E297FFF4A
:1020F0000243279000F0E0B406030223B59000F0FD
:10210000E0B40803122C22229001ACEFF0F9121176
:102110000512124C9001ADF0A3EFF0AF0112425046
:10212000AD07AC069001ADE0FEA3E0FFD39DEC64EB
:1021300080F8EE6480985014C3E49DFBE49CFAC3DD
:10214000EF9BEA6480F8EE648098500E9001ACE05A
:10215000FF12111612120A0221ECECA2E713FEED97
:1021600013FF9001ADE0FAA3E0FBD31212995016D1
:10217000ECA2E713FEED13FFC3E49FFFE49EFEC352
:10218000EB121299502312119BE0FAA3E0FBEAC371
:1021900013FEEB13FFC3EB9FFBEA9EFAED12111641
:1021A000E0C313FEA3E013803212119BE0FAA3E018
:1021B000FBAE027803CEC313CE13D8F9FFC3EB9F57
:1021C000FBEA9EFA75F002ED900019120B37E0FE63
:1021D000A3E07803CEC313CE13D8F92BFFEA3EFE5B
:1021E0009001ACE01211A0EEF0A3EFF09001AC1260
:1021F0001105ECF0A3EDF0227E1D7FA31243279082
:102200000176E0FF7E001234217E1D7F9612432767
:102210009001A8E0FF7E001234217E1D7F9A1243B8
:1022200027900179E0FF7E001234217E1D7F9E12EF
:102230004327900190E0FF7E001234219001A1E03D
:1022400060067E1D7FAA80047E1D7FAC1243277E20
:102250001D7FAE1243277B807AEE7936780090019D
:1022600091120AE2120A0C1234217E1D7FB412432D
:102270002790019CE0FF7E001234217E1D7FB81262
:1022800043279001A7E0FF7E001234217E1D7FBE10
:102290001243279001A2E0FF7E001234217E1D7FB1
:1022A000C41243279001A0E0FF7E001234217E1D5E
:1022B0007FCA12432790019FE0FF7E001234217EE7
:1022C0001D7FD112432790018FE0FF7E0012342141
:1022D0007E1D7F040243277B019001B4120B4C90BA
:1022E00001AE120B439001B1120B4C9001B1120BD5
:1022F0004312087DFF9001B4120B43EF1208C39004
:1023000001B1120B43900001120896FF9001B41224
:102310000B43900001EF1208D59001B1120B4390CE
:102320000002120896FF9001B4120B43900002EFD6
:102330001208D59001B1120B43900003120896FFCA
:102340009001B4120B43900003EF1208D59001B135
:10235000120B43900004120896FF9001B4120B4335
:10236000900004EF1208D59001B1120B43900005C4
:10237000120896FF9001B4120B43900005EF12086B
:10238000D59001B1120B43900006120896FF900100
:10239000B4120B43900006EF1208D59001B1120B56
:1023A00043900007120896FF9001B4120B4390006F
:1023B00007EF0208D5E49001ADF0A3F09001AEE084
:1023C0002404FF9001ADE03400FE9000F2E0FCA395
:1023D000E0FDC39FEC9E50030224909001ADE0FE0F
:1023E000A3E0FF2413F58274013EF583E09001B170
:1023F000F074142FF58274013EF583E09001B2F081
:102400009001ADE0FAA3E0FB2415F58274013AF5E2
:1024100083E0FE74162BF58274013AF583E0FBEB42
:10242000FF9001AFEEF0A3EFF09001AEE02404FBCB
:102430009001ADE03400CB2FFFEB3EFEC3ED9FECEF
:102440009E404D9001B2E0FD9001ADE0FEA3E0247E
:1024500017F974013EFA7B01A3E0FFA3E09001B8F5
:10246000CFF0A3EFF09001B1E0FF12185D9001AE44
:10247000E02404FF9001ADE03400FE9001B0E02FB5
:10248000FF9001AFE03E9001ADF0A3EFF00223BC5E
:10249000229001AA120B4CE49001F3F09001D5F0C8
:1024A000A3F09001ADF09001ADE0FFC3940C501C7F
:1024B0007E00123CD59001ADE024D7F582E43401D2
:1024C000F583EFF09001ADE004F080DA9001D7E001
:1024D000B4A50BA3E0B45A06A3E0640160037F0037
:1024E000221242FD9001E2E06F60037F0022900122
:1024F000DAE0FF9001AA120B43EF1208C39001DB50
:10250000E0FF9001AA120B43900001EF1208D59052
:1025100001DCE09000021208D59001DDE09000039C
:102520001208D59001DEE09000041208D59001DF7A
:10253000E09000051208D59001E0E0900006120836
:10254000D59001E1E09000071208D5122B92EF7FA1
:10255000017001FF227B017A017981122491EF70D1
:10256000077E1D7F810225F8900181E0900176F0C1
:10257000900182E09001A8F0900183E0900179F051
:10258000900184E0900174F0900185E09001A1F049
:10259000900186E0900190F0900187E09001A2F018
:1025A000900188E09001A7F01248337F0112481192
:1025B0007E1D7F8C124327900176E0FF7E0012344F
:1025C000217E1D7F961243279001A8E0FF7E001216
:1025D00034217E1D7F9A124327900179E0FF7E000F
:1025E0001234217E1D7F9E124327900190E0FF7ED2
:1025F000001234217E1D7F041243271236797B019D
:102600007A01798112437622E49001AAF0A3F0A323
:10261000F0A3F0A2A0339001B0F0A2A1E433A3F0A4
:10262000E49001AEF0A3F0E4F58A758C83C28DD2FC
:102630008C208D3BA2A0E433FF9001B0E06F600FCF
:102640009001AAE475F00112095E9001B0EFF0A2CA
:10265000A1E433FF9001B1E06F600F9001ACE4752D
:10266000F00112095E9001B1EFF012493C80C2C244
:102670008CC28D9001AEE475F00112095EC3900129
:10268000AFE094509001AEE09400409B7E477FA95C
:102690001243279001AAE0FEA3E0FF1234217E47F7
:1026A0007FB21243279001ACE0FEA3E0FF12342179
:1026B0007E477FB70243279001B1120B4C9001D7A0
:1026C00074A5F0A3745AF0A37401F0E49001B4F07F
:1026D0009001B1120B439001B4E0FFF582758300C5
:1026E000120896FE74DA2FF582E43401F583EEF0D9
:1026F0009001B4E004F0E0B408D61242FD9001E28B
:10270000EFF0E4FFFE123C1CE49001B4F09001B441
:10271000E0FF7E0024D7F582E43401F583E0FD126A
:102720003B1A9001B4E004F0E0C3940C40DF12497E
:102730003CE49001B4F09001B4E0FFC3940C50214C
:102740007E00123CD59001B4E024D7F582E4340138
:10275000F583E06F60037F00229001B4E004F08015
:10276000D57F0122E4900176F09001A8F0900179E4
:1027700004F0900174F09001A1F09001907448F081
:10278000E49001A7F09001A9F090017AF0900191F6
:10279000120B0600000000E490017CF090017BF039
:1027A000900195F0A3F090019C74FFF0900180746B
:1027B00001F0E4900189F0A3F090017DF090019781
:1027C000F0A3F090019DF0A3F090019AF0A3F09097
:1027D000017504F0E490019FF090018FF090017773
:1027E000F0A3F090017E74FFF0E49001A2F0A31238
:1027F0000B0600000000E49001A0F090018B120B8A
:102800000600000000E4900199F0122555021436EC
:102810009001ADEFF0A3ECF0A3EDF0E49001B1F086
:102820008D828C83E493600D9001B1E004F00DBDC6
:1028300000010C80EB1246607FAA1246677F0312EC
:1028400046679001ADE0FF124667E4FF12466790CD
:1028500001B1E0FF1246679001ADE02402FF900154
:10286000B1E02F9001B0F09001AEE0FEA3E0F58260
:102870008E83E493FF60231246679001AEE0FEA3CF
:10288000E0F5828E83E493FF9001B0E02FF0900199
:10289000AEE475F00112095E80CD9001B0E0FF1248
:1028A00046679000FBE060077E297FDD1243272208
:1028B000787FE4F6D8FD9000007F007E20E4F0A34E
:1028C000DFFCDEFA758127022905024146E493A365
:1028D000F8E493A34003F68001F208DFF48029E4D2
:1028E00093A3F85407240CC8C333C4540F4420C81E
:1028F000834004F456800146F6DFE4800B010204B5
:1029000008102040809048C4E47E019360BCA3FF7F
:10291000543F30E509541FFEE493A360010ECF54E9
:10292000C025E060A840B8E493A3FAE493A3F8E4D8
:1029300093A3C8C582C8CAC583CAF0A3C8C582C844
:10294000CAC583CADFE9DEE780BE505752207478DB
:10295000002073756D3D00206375723D6E74630DCC
:102960000A00206375723D7365740D0A005057525A
:10297000206C6F73740D0A00505752206F6B0D0A54
:1029800000505752207278207665723D002074798D
:1029900070653D00206661756C743D000D0A005045
:1029A0005752205553434932203438303020503468
:1029B0002E342F50342E3520706572696F643D318E
:1029C00035306D73206375723D73657420756E7458
:1029D000696C204E54430D0A00030002015749461A
:1029E00049207478746F0D0A00574946492068627F
:1029F0000D0A00574946492073743D000D0A0057DF
:102A000049464920727374206F6B0D0A005749467E
:102A1000492072657365740D0A0057494649207252
:102A2000783D0057494649206E6F727820703230E9
:102A30003D00207032313D00207032363D00207361
:102A4000636F6E3D007B2270223A2275666F726C56
:102A5000796E6C676A357878337A67222C22762211
:102A60003A22312E302E30222C226D223A327D0035
:102A70001248F59001ADEFF01248FB9001AEEFF077
:102A80001249019001AFEFF01247989001AEE0D3E8
:102A900094034002E4F090008F7466F0A37499F000
:102AA000EF2428A3F0124925EF600C12492BEF24E4
:102AB00028900092F08006900091E0A3F09001AD84
:102AC000E0FF9001AFE0FD1248BBEFC454F0FF906F
:102AD00001AEE09029D9934F900093F09001ADE0C2
:102AE0005401900094F07F0E900095E4F0A3DFFC79
:102AF0007B017A00798F7D141244789000A3EFF067
:102B0000229001BCEFF0A3120B4C1246607FAA1278
:102B100046677F031246679001BCE0FF124667E4F8
:102B2000FF1246679001C0E0FF1246679001BCE0CB
:102B30002402FF9001C0E02FA3F0E4A3F09001C0B5
:102B4000E0FF9001C2E0FEC39F50319001BD120B27
:102B5000438E82758300120896FF1246679001BD6E
:102B6000120B439001C2E0F582758300120896FFB4
:102B70009001C1E02FF0A3E004F080C19001C1E01A
:102B8000FF1246679000FBE060077E297FDD12435D
:102B9000272212087DD3940140037F002290000178
:102BA000120896D3940340037F002290000212087B
:102BB00096D3940340037F0022900003120896D31B
:102BC000940340037F0022900004120896FED394E1
:102BD0000140037F0022900006120896D394014022
:102BE000037F0022900007120896D3940140037FD0
:102BF0000022EE6015900005120896FFC3943D4038
:102C000006EFD3945840187F0022900005120896D2
:102C1000FFC394104006EFD3941F40037F00227F30
:102C2000012212490D9001ADEFF01248F5AD077F7A
:102C3000011241F8124798EFFD7C007F02124224F6
:102C40001244DA124571AD077F041244551249014E
:102C5000AD077F051244559001ADE0FD7F1312448E
:102C6000551246D01244319001ADE0600912490777
:102C7000EFFD7C00801F1247987E007C007D0912CA
:102C800008F7EF2402FFE43EFE7D05120909EF2458
:102C900020FDE43EFC7F18124224124913AD077F49
:102CA000191241F8124919AD077F781241F802480C
:102CB00073EF7033C3ED948CEC94004012D3ED9419
:102CC000F0EC94005009752601E4F521F52722E582
:102CD000266065C3ED9406EC9400405CD3ED941837
:102CE000EC940040568051E5266050E5217012C3F7
:102CF000ED943CEC94004009D3ED948CEC940040AE
:102D00003AE521C3947840030240E8C3ED9406EC11
:102D10009400400DD3ED9412EC94005004E4FF8035
:102D200014C3ED9418EC9400400ED3ED9432EC945F
:102D30000050057F01023A4A12486722C2AF75FE71
:102D4000C1AFFFD2AFEF5430FD7C0070047920801A
:102D50001CED64104C700479108012ED64204C70EE
:102D60000479088008ED64304C70027904E924F895
:102D7000601824F8602024F06028241C7030900132
:102D8000AC7401F0A374F4F080269001AC7403F0ED
:102D9000A374E8F0801A9001AC7407F0A374D0F02B
:102DA000800E9001AC740FF0A374A0F08002E4F9DF
:102DB0009001ACE07002A3E0600C9001AC74FFF5F0
:102DC000F012095E80EA2275FE8543FF2053DB7F07
:102DD000D2AFC201E4900255F090004BF0123923BB
:102DE000E4FF124054EF2401FDE433FC7E0F7FA08A
:102DF000120909900250EEF0A3EFF0E4FF124741F0
:102E000012123A7F02124054EFC454F0FEC006E49E
:102E1000FF124054D0E02FF5E17F03124054E5E269
:102E200054804FF5E27F04124054EF6008E5E2540D
:102E3000804480F5E27F011240548FE3123DC44389
:102E4000A910900013E04480F5E81232560244F9CC
:102E5000C0E0C083C082C0D075D000C000C003C035
:102E600004C005C006C007758BC0758DF9A2B2E419
:102E700033FB65227039C3E52494D0E523940750D1
:102E8000080524E52470020523EB6036C3E524948D
:102E900050E5239400402BE5266027E521947840F7
:102EA000051240E8801CE52160181248678013ADC8
:102EB00024AC23AF22122CB1AF038F2275230075EF
:102EC0002401D007D006D005D004D003D000D0D044
:102ED000D082D083D0E032900003120896FF900198
:102EE000BEF09000051208969001BFF09000061207
:102EF00008969001C0F09000071208969001C1F06A
:102F0000EF540170149001BFE0543B700CA3E054E7
:102F1000E77006A3E0547F60437E1E7F07124327BD
:102F20009001BEE0FF123D127E1E7F1312432790D8
:102F300001BFE0FF123D127E1E7F17124327900152
:102F4000C0E0FF123D127E1E7F1B1243279001C17D
:102F5000E0FF123D127E1E7F1F124327229001AE1A
:102F6000EFF064027037900176E070729001A1E09A
:102F70009001906012E0FF123F50EFF0E49001A149
:102F8000F07E1D7F4B8011E0FF123F86EFF0900135
:102F9000A17401F07E1D7F56124895803E9001AECF
:102FA000E064017039900176E060339001A8E0643C
:102FB00001602B900179E0901DFF93900179F090D2
:102FC0000174F07E1D7F61124327900179E0FF7E3E
:102FD000001234217E1D7F0412432712480A221258
:102FE0002A70E49001ACF09001ACE0FFC39415505E
:102FF00017748F2FF582E43400F583E0FF123C98BC
:103000009001ACE004F080DFE4FF900064E0FE900B
:103010000091E0FDB50624900065E0FE900092E08E
:10302000B50618900066E0FE900093E0B5060C909F
:103030000067E0FE900094E06E601F7F01900064E6
:10304000EDF0900092E0900065F0900093E0900029
:1030500066F0900094E0900067F0EF60031237E4B0
:10306000229001B4EFF012485A9001B5EFF01230FF
:10307000D6900251E025E0FF900250E033FE7C0044
:103080001211E8121119E0FAA3E0C39FEA9E500959
:103090009001B5E0603F14802D1230D6900250E0D0
:1030A000FEA3E0FF7C007D071208F71211E8121161
:1030B00038E0FAA3E0D39FEA9E401A9001B5E0FF02
:1030C000647E6011EF04FF74432DF582E43400F553
:1030D00083EFF0D201229001B4E0FF124741EFFBF1
:1030E00022EF70079001BC04F08022EFB401089039
:1030F00001BC7403F08016EFB40207E49001BCF049
:10310000800BEF640370569001BC7402F09001A82C
:10311000E0FF9001BCE0FE6F6043EFB40108900156
:1031200074E0900179F0EEB4010D900179E0900126
:1031300074F0E4900179F09001A8EEF01248337E2B
:103140001D7F6A1243279001A8E0FF7E0012342100
:103150007E1D7F041243279001757401F0227B01CC
:103160007A00796E7D2012447890008EE06F706A4C
:10317000E49000A6F0A3F0FF1241CC900070E09024
:1031800000A9F0900071E09000A8F0900077E0FFB7
:1031900090006DF01247EB9000A57401F090006B69
:1031A000E0FF9000A9E0FEB5071890006AE0FF90EC
:1031B00000A8E0B5070C900069E0FF90006DE06F9B
:1031C000601890006BEEF09000A8E090006AF0901C
:1031D000006DE0900069F0123E3922900190E0FE0F
:1031E000FD9001A1E0601DEF600CEEC39458500605
:1031F000900190E004F0EF7029900190E0D3943DAD
:103200004020801BEF600C900190E0C3941F50039E
:10321000E004F0EF700C900190E0D394104003E0D4
:1032200014F0900190E06D602C7E1D7F1B124327EF
:10323000900190E0FF7E001234219001A1E0600631
:103240007E1D7F2380047E1D7F2712432712478720
:103250007F01124811229001AA7420F01243E8E481
:103260009001ABF09001ABE0FFC3951A5021E0FE56
:10327000121116E0FCA3E0FD75F002EE121181ECD4
:10328000F0A3EDF01230619001ABE004F080D59036
:1032900001AAE0FF14F0EF70C31247531248DD900B
:1032A00001AAEFF01243E8E49001ABF09001ABE02B
:1032B000FFC3951A500B1221089001ABE004F08077
:1032C000EB9001AAE0FF14F0EF70D9229001AE124A
:1032D0000B4C7A0179EB1222D77B017A0179E390CA
:1032E00001B4120B4C7A0179EB123FEFEF70157AB3
:1032F0000179E31222D79001F37401F0E49001D533
:10330000F0A3F0229001F3E06034C39001D6E09482
:10331000D09001D5E094075007E475F00102095EF2
:10332000E49001F3F07B017A0179E31226B7EF60B4
:10333000067E467F8F80047E467F98124327229028
:1033400001A9E060030234F390017AE06015900176
:1033500091120B0600000000E490017AF07E1D7FC0
:103360002B8044E4FFFEFDFC900191120AEEC31293
:103370000AAB601390017A7401F0E490019DF0A310
:10338000F090017504F0229001A97401F090017F82
:10339000F0E4900197F0A3F0900189F0A3F0900180
:1033A0008004F07E1D7F741248959001757401F0C1
:1033B00022E49001ABF07B017A0179AA1241A0EFDF
:1033C00060149001AAE0FF1235579001ABE004F0C1
:1033D000E0C3941040E0900062E475F00112095ED1
:1033E000C3900063E09496900062E094004007E48C
:1033F000F0A3F0122FDFC39000A7E094889000A6FE
:10340000E09413501BE475F00112095EC39000A70D
:10341000E094889000A6E0941340057F011241CC0F
:10342000229001CDEEF0A3EFF04E70057F30024107
:1034300074E4FB9001CDE0FEA3E0FF4E602F7C0022
:103440007D0A120909AE030B74CF2EF582E4340114
:10345000F583EDF09001CDE0FEA3E0FF7C007D0A56
:103460001209099001CDEEF0A3EFF080C69001D4CF
:10347000EBF09001D4E0601514F0E024CFF582E485
:103480003401F583E02430FF12417480E5224E546C
:103490004320633D002061643D000D0A004E54430B
:1034A00020626164206164633D0028292B2C2E304A
:1034B00031333536383A3C3E40424446484A4C4E19
:1034C00050525456585A5D5F616365686A6C6E70FD
:1034D000737577797B7E80828486888A8C8E9193BF
:1034E0009596989A9C9EA0A2A4A5A7A9ABACAEB0B5
:1034F000B1B3B490017FE07013900191120B0600FC
:103500000000007E1D7F2B124895803990017FE0DE
:10351000FFE4FCFDFE7B807AEE7936F8120981909B
:103520000191120AFA900176E090017CF07E1D7FF5
:103530003512432790017FE0FF7E001234217E1D6B
:103540007F3E124327E49001A9F090017AF09001A8
:103550007504F0FF02481190006CE0FE7011EF64FA
:1035600055705790006EEFF090006C7401F022EEF1
:103570006401701FEFB45A0C90006FF09000A474B7
:1035800002F0800AEFB4550590006EF022E490003E
:103590006CF0229000A4E0246EF582E43400F58300
:1035A000EFF09000A4E004F0E0C39421400C12314D
:1035B0005EE490006CF09000A4F022EFC3941050F1
:1035C000027F10EFD3941F40027F1F9001A1E060A3
:1035D00005123F8680009001BCEFF0900190E0FF63
:1035E0009001BCE0FE6F6031900190EEF07E1D7F97
:1035F0001B124327900190E0FF7E001234219001BE
:10360000A1E060067E1D7F2380047E1D7F2712437C
:10361000271247877F0112481122EFC3943D5002C1
:103620007F3DEFD3945840027F589001A1E06002A3
:103630008003123F509001BCEFF0900190E0FF90AA
:1036400001BCE0FE6F6031900190EEF07E1D7F1BAB
:10365000124327900190E0FF7E001234219001A1D7
:10366000E060067E1D7F2380047E1D7F2712432796
:103670001247877F0112481122900176E07F006097
:10368000027F01900181EFF09001A8E0900182F0AB
:10369000900179E0900183F0900174E0900184F052
:1036A0009001A1E07F0060027F01900185EFF09022
:1036B0000190E0900186F09001A2E07F0060027F1F
:1036C00001900187EFF09001A7E07F0060027F0189
:1036D000900188EFF022E4F509F50AF50E750D0565
:1036E000750CA4750B10F509E50E5401FFE4FEFD01
:1036F000FCFBFAF9F8C3120AAB60177413250AF53C
:1037000082E43400F583E509F0050AE50AC394066E
:10371000501CAF0EAE0DAD0CAC0B7801120ABC8F75
:103720000E8E0D8D0C8C0B0509E509B41FBA850AA8
:103730001A22C202900255E0121116E5E5F0A3E547
:10374000E4F0900255E004F0E0C3951A400BE4F079
:1037500090004BE04480F08002D202900255E0FFDE
:1037600012474112123A900255E0FF12485AE5E220
:1037700054804FF5E2900255E02413F582E43400C2
:10378000F583E04480F5E8300202D2EE229001AEEB
:10379000EFF0BF021D900176E070481245E2900103
:1037A0007D7401F07E1D7F42124895900175740171
:1037B000F0229001AEE06401702990017DE0600389
:1037C000E4F022900176E0900191600B120B06006C
:1037D000000000E4FF8009120B06000000007F01DA
:1037E000123DFF227E297F4A124327E49001ADF06B
:1037F0007F201241749001ADE0248FF582E4340003
:10380000F583E0FF123D129001ADE004F0E0C394B7
:103810000640DD7E297F511243279000A3E0FF126E
:103820003D12124925EF60067E297F5780047E29CC
:103830007F62124327227F1590008FE4F0A3DFFC04
:10384000E490006CF09000A4F0900068F09000AA62
:10385000F09000A5F090006474FFF0A3F0A3F0A333
:10386000F090006BF090006AF0900069F0E4900036
:1038700062F0A3F09000A6F0A3F01243C37E297F6C
:103880009F124327022FDF900176E060479001A846
:10389000E0FF901E0393FEEFB40108900174E090E6
:1038A0000179F0EEB4010D900179E0900174F0E43B
:1038B000900179F09001A8EEF07E1D7F6A124327F7
:1038C0009001A8E0FF7E001234217E1D7F04124388
:1038D0002712480A227B017A0279327D0E9001BEBE
:1038E000120B4C9001C1EDF0E4FFFEA3F09001C17A
:1038F000E0FDA3E0FCC39D50299001BE120B438C58
:1039000082758300120896FDC4540F2FFFE43EFE1B
:10391000ED540F7C002FFFEC3EFE9001C2E004F05E
:1039200080CB22904960740193900000F090497A16
:1039300074019390004EF01236D6E4F508E508C302
:10394000951A5023E50875F008A42480F582E43424
:1039500049F583E493FF74432508F582E43400F5C8
:1039600083EFF0050880D6E490004CF0A3F022121B
:1039700044BB43A910D2AF12493C122DC712493C97
:1039800090021E120B0600000000E4FFEF25E02469
:1039900022F582E43402F583E4F0A3F074122FF5EB
:1039A00082E43402F583E4F074182FF582E43402E3
:1039B000F583E4F00FEFB406D3229001CF120B4C45
:1039C0009001D2EDF01247657F40124518124776FC
:1039D0001247657FC0124518E4FC9001CF120B43DB
:1039E0008C82758300120896FF1245180CECB410F7
:1039F000E91247761247659001D2E0FF124518029E
:103A00004776900244E0FEA3E0FFEEC4F854F0C80D
:103A1000EFC4540F48FF9034AAE493FEEFD39E50B6
:103A2000037F00229034F2E493FEEFC39E40037FB5
:103A30004822E4FEEE9034AB93FDEFC39D5003AFFC
:103A400006220EEEB448ED7F4822E521C39478505B
:103A50003FEF6012E5215407FF7401A807088002B8
:103A6000C333D8FC42270521E52154077022E52104
:103A700024FFFFE434FFFEEF7803CEC313CE13D848
:103A8000F924F4F582E43401F583E527F0E4F52721
:103A900022124616C2ACC2998F9974FF9001C3F0EE
:103AA000A3F02099199001C3E07002A3E0600F9089
:103AB00001C374FFF5F012095E12493C80E43099AD
:103AC00002C299D2AC1247FB9001C3E07002A3E09E
:103AD0007F0060027F012243AD407DD07C07E5ADD1
:103AE00020E50BED4C6007ED1D70F31C80F0AFAFCF
:103AF000EF75F010A4FBAFAEE4C4F854F0C868FE54
:103B0000EFC4540F48FFEE45F0FEEF4BFF53ADDF1F
:103B1000ED4C70057EFF7FFF2222AB07AA06A2AF05
:103B2000E4339001B5F0C2AFA9F4ACDF75F402E55F
:103B3000DF54CF4410F5DFAF058FF5EAF5F3AF039F
:103B40008FF275F1F075F61043F6021247BAAF0125
:103B50008FF4AF048FDFE024FF92AF227B017A0164
:103B600079BD9001D37409F090000DE4939001D4D5
:103B7000F07D089001CF120B4C9001D4E0FF900132
:103B8000CF120B43AE058E82758300EF1208D590DD
:103B900001D3E0F582758300EF0208D59001A1E022
:103BA000700F12492BEFD3946340037F63220249C5
:103BB0002B12492B7E007C007D091208F7EF2402AE
:103BC000FFE43EFE7D05120909EF2420FFE43EFEDE
:103BD000D3EF9463EE940040027F63229001BE1203
:103BE0000B4CE5257002FF22A2AFE433FFC2AFE425
:103BF000FE74032EF582E43402F583E0FD9001BEED
:103C0000120B438E82758300ED1208D50EEEB40FB1
:103C1000E0E4F525EF24FF92AF7F0122AD07AC066B
:103C2000A2AFE433F9C2AFABF4AADF75F402E5DF6B
:103C300054CF4410F5DFECF5F3AF058FF275F1F0DA
:103C400075F62043F6021247BAAF038FF4AF028F26
:103C5000DFAF01EF24FF92AF02493CEFD394035052
:103C6000369001A8E06401602B900179E06F602438
:103C7000EFF0900174F07E1D7F611243279001796F
:103C8000E0FF7E001234217E1D7F04124327900145
:103C9000757401F0124833221249449000AC7480CC
:103CA000F0A3E4F08FC7E5C420E1269000ACE070FB
:103CB00002A3E0601CE5C430E008AFC712440D5316
:103CC000C4FD9000AC74FFF5F012095E12493C800F
:103CD000D553C4FE22E49001B5F0A3F0A2AF33F9AE
:103CE000C2AFADF4ACDF75F402E5DF54CF4410F59C
:103CF000DF9001B5E0FAA3E02FF582EA3EF583E418
:103D000093FFAE058EF4AE048EDFAE01EE24FF927B
:103D1000AF229001C2EFF0E0C4540FA3F0C3940AA5
:103D20005005E0243080069001C3E02437FF1241A3
:103D3000749001C2E0540FA3F0C3940A5005E0242C
:103D40003080069001C3E02437FF124174229001B5
:103D5000AAEEF0A3EFF09001AAE07002A3E06028C1
:103D6000E4F58A758C83C28DD28C208D0B12467837
:103D70001247FB12493C80F2C28CC28D9001AA749A
:103D8000FFF5F012095E80CE22C0E0C0F0C083C013
:103D900082C0D075D000C000C001C002C003C00402
:103DA000C005C006C007123732D007D006D005D0F4
:103DB00004D003D002D001D000D0D0D082D083D0A4
:103DC000F0D0E032E4FFEFC3951A501A12116EE4FE
:103DD000F0743D2F12111FE4F0A3F0742B2F121179
:103DE000C6E4F00F80E0E4F515F514F513F5129034
:103DF000024F74FFF0E4900252F0A3F0C20122AB34
:103E000007900176EBF0E49001A9F090017AF09030
:103E100001A7F0900177F0A3F0124536EB6009128C
:103E200048337E1D7F0780047E1D7F1112489590C8
:103E300001757401F0FF0248117E297F811243272A
:103E40009000A9E0FF7E001234217E297F8D12436D
:103E5000279000A8E0FF7E001234217E297F941273
:103E6000432790006DE0FF7E001234217E297F9C65
:103E7000024327439A0F4391F043B1F043C1C07509
:103E8000D9FF12481812471D1246E412494B124836
:103E9000B21245FD12396F1227641238361248D516
:103EA000123EAB123FBBD2AF02493C9002447408B1
:103EB000F0A3E4F0900247F0A3F090024BF0A3F0DF
:103EC000A3F09002497419F0E4A3F0900246F05375
:103ED000A1F753A2F775AB80F5AC75B51075AD873A
:103EE000C2AE229001A1E06F602FEF9001906013AD
:103EF000E0FF123F86EFF09001A17401F07E1D7F7C
:103F0000568010E0FF123F50EFF0E49001A1F07EE8
:103F10001D7F4B12489512480A229001AAEEF0A389
:103F2000EFF07E407F861243277E407FA01243271A
:103F30007E407FA21243277E407FAD12432790012F
:103F4000AAE0FEA3E0FF1234217E407FB4024327A3
:103F5000EFC3942050037F1022EF24E0FFE434FFEE
:103F6000FE7C007D051208F77D09120909C3EF9454
:103F700010EE940050047E007F10D3EF941FEE9457
:103F80000040027F1F227E007C007D091208F7EFAF
:103F90002402FFE43EFE7D05120909EF2420FFE420
:103FA0003EFEC3EF943DEE940050047E007F3DD36F
:103FB000EF9458EE940040027F582212458EE49010
:103FC00000FAF09000F7F090010D74FFF09000F10E
:103FD000F0E4900110F090010CF09000F9F09001E5
:103FE00033F0900111F0A3F090010EF0A3F02290B5
:103FF00001B1120B4CE4FF9001B4120B438F827598
:104000008300120896FE9001B1120B438F827583D4
:10401000001208966E60037F00220FEFB408D87F6D
:1040200001229001ACEEF0A3EFF07E347F8E1243BC
:1040300027900249E0FF7E001234217E347F9512E2
:1040400043279001ACE0FEA3E0FF1234217E347FD1
:104050009A024327EF14601214601414601814605D
:104060001A2404701E90497C800890497D8003903A
:10407000497EE493FF22E4FF02485A90496E74019E
:1040800093FF227F00224144422D437572736F7269
:104090002053544147452D34432D302E312E3000CE
:1040A0002000323032362D30392D303800207469FE
:1040B000636B3D000D0A00EF7E0060027E01AF06DB
:1040C0009001A7E06F6020EFF09001757401F07E21
:1040D0001D7FE01243279001A7E0FF7E00123421EC
:1040E0007E1D7F0412432722E521C394784025E5F5
:1040F000257021FF74F42FF582E43401F583E0FE8E
:1041000074032FF582E43402F583EEF00FEFB40F61
:10411000E3752501024867E4900256F09001AAF089
:104120009001AAE0FFC3951A50131221089001AA2A
:10413000E0FF1200809001AAE004F080E3AF15AE2A
:1041400014AD13AC1222123E737E497F48124327EE
:10415000E4FFFE123F1A1221F87F017E00123D4E4D
:104160001212AD12049C121BDE120B82121F0A12D5
:1041700033B180E59002577480F0A3E4F08F9FE59F
:104180009520E119900257E07002A3E0600F9002C1
:104190005774FFF5F012095E12493C80E202494073
:1041A0001246789000ABE0FF9000EEE0FEB507030A
:1041B0007F002274AE2EF582E43400F583E012080D
:1041C000C39000EEE004543FF07F01229001ACEF79
:1041D000F0900068E06F601F9001ACE0FF90006815
:1041E000F01247DB9001ACE060067E297F6D800411
:1041F0007E297F78124327229000FCEFF0A3740100
:10420000F0E4A3F0A304F0ED7F0060027F019001D1
:1042100000EFF07B017A0079FC9001C07405F07F1B
:1042200007022B019000FCEFF0A37402F0E4A3F06E
:10423000A37404F0E4A3F0A3F0ECA3F0A3EDF07BEF
:10424000017A0079FC9001C07408F07F07022B010D
:10425000AD07ED75F008A42482F582E43449F583B6
:10426000E493FEED75F008A42483F582E43449F567
:1042700083E4937C002400FFEC3EFE22EF600C9070
:10428000017FE0C394185003E004F0EF700C90013C
:104290007FE0D394004003E014F0E4900197F0A392
:1042A000F090017504F022EF7E0060027E01AF06FF
:1042B0009001A2E06F601AEFF07E1D7FD7124327B6
:1042C0009001A2E0FF7E001234217E1D7F04124384
:1042D0002722C0E0C083C082C0D075D000C006C015
:1042E00007309807C298AF991245AB309902C2992E
:1042F000D007D006D0D0D082D083D0E0327B017AF4
:104300000179D77D0B9001B5120B4CE4FFFEEEC393
:104310009D50139001B5120B438E827583001208D5
:10432000962FFF0E80E8229001CDEEF0A3EFF090E3
:1043300001CDE0FEA3E0F5828E83E493FF600F12CF
:1043400041749001CDE475F00112095E80E1221202
:104350004867E4F52575220153B1FB43B204438E4F
:1043600002E589540F4410F589758BC0758DF9D21B
:10437000BBD2ABD28E22C003C002C0017B017A0146
:1043800079E39001B4120B4CD001D002D003122279
:10439000E5E49001F3F09001D5F0A3F0229000FC49
:1043A0007401F0FB7A017913E49001C0F07F0412EC
:1043B0002B017B017A0079FC9001C07401F07F052C
:1043C000022B01E49000ABF09000EEF01249444360
:1043D0008EC053C1CF43C23075C45075C50A75C66F
:1043E0001A53AAFDA304F022E4FE90004BE0547F90
:1043F000F0D2EE90004BE054807011122D3C43CF70
:10440000100EEEC394647480948040E7229000AB59
:10441000E0FE04543FFD9000EEE06D601374AE2E9C
:10442000F582E43400F583EFF0AF059000ABEFF0D8
:10443000229000FC7416F0A37405F0E4A3F0A3042A
:10444000F0A3EFF07B017A0079FC9001C07405F0D5
:104450007F07022B019000FCEFF0A37404F0E4A3AB
:10446000F0A304F0A3EDF07B017A0079FC9001C089
:104470007405F07F07022B019001B0120B4CE4FF92
:10448000FEEEC39D50139001B0120B438E827583D4
:10449000001208962FFF0E80E822E51BB51C037F53
:1044A00000227434251CF582E43401F583E01208FF
:1044B000C3E51C04543FF51C7F0122439A10539B13
:1044C000EFD2844391055392FAD290D29243A1A4A1
:1044D00053A25BD2A2D2A5D2A722124925EF60181F
:1044E00012492BEFFD7C007F0312422412462FACB1
:1044F00006AD077F1712422422E4FFEFC3951A503E
:1045000016121115E0FCA3E0FD900001121137EC2A
:10451000F0A3EDF00F80E422AE07E4FDC2B1EE138C
:1045200092B01248A9D2B11248A9EEC313FE0DED04
:10453000B408E9C2B1229001A3120B0600000000EA
:10454000E49001A0F090018B120B06000000007FA8
:10455000020248119001CF120B4CE4FF9001CF12E0
:104560000B438F82758300E41208D50FEFB410EC73
:10457000229001A8E0FE70037F0222EEB401037FC7
:1045800000229001A8E07F01B402027F0322E4F53B
:104590001DF51BF51C12484D122608759850124641
:1045A00016C299C298D2AC751D0122E51B04543F76
:1045B000FE651C60117434251BF582E43401F5831B
:1045C000EFF0AF068F1B2274182FF582E43402F54A
:1045D00083E0FE74182FF582E43402F583E4F0AF33
:1045E00006227E2A7F0D1243279000F97401F0E421
:1045F000900133F0900111F0A3F002439DE4FDFC23
:10460000D2A41247CBC2A41247CB0DBD00010CBCF3
:1046100001EEBD2CEB2275CE02438E04E4F5C97584
:10462000C8307C0DECF5CB75CA05C2CAC2AD2212EA
:10463000492B7E007C007D091208F77D05120909CF
:10464000EF2420FFE43EFE22E4FEFDEE25E0FEEF37
:1046500054014EFEEFC313FF0DEDB408EEAF06227A
:10466000E49000FBF07F55123A91EF70089000FB48
:1046700004F07F00227F01229000EFE060101249D9
:1046800044E5C430E008AFC712440D53C4FD224DC9
:10469000454D2077720D0A004D454D2077722066FA
:1046A00061696C0D0A00124250EF7803C333CE33B8
:1046B000CED8F9FF7C007D0A120909229001A7E0FB
:1046C000600DE4F00412480C7E1C7FF81243272290
:1046D00090018FE0FEB406037F0122EE7F00B40755
:1046E000027F0222539A9F439B60438F30759550FF
:1046F000759D15759E01227F109001AAE4F0A3DF3D
:10470000FC7B017A0179AA0249379001A9E0600394
:1047100002427C900176E060031231DB22438E017D
:10472000E58954F04401F589C28CC2A9C28D22905A
:104730000176E06F600AEF7F0060027F01123DFFAB
:1047400022EF75F008A4247FF582E43449F583E470
:1047500093FF22E4FFEFC3951A50091211151212AC
:104760000A0F80F122D2B0D2B11248A9C2B01248C9
:10477000A9C2B10248A9C2B0C2B11248A9D2B112AD
:1047800048A9D2B00248A99001777407F0A374D069
:10479000F09001757401F0229001A1E09001906009
:1047A00005E0FF023F50E0FF2257494649206530AF
:1047B0003D002065313D000D0A00000000000000B2
:1047C0000000000000000000000022E4FFFE000FD7
:1047D000BF00010EBE01F7BFE0F42290019FE06F21
:1047E0006008EFF09001757401F0229000AAE06F6C
:1047F00060089000AAEFF012484022E51D600A30E0
:104800009807C298AF991245AB227401900175F0D8
:10481000FF900199E04FF02253A3BFC2A643A140ED
:1048200053A2BFC2A62243B10353B2FCD2B1D2B04D
:104830000246F79001A8E0B40105E4900179F02266
:1048400090018FE06F6005EFF012480A22124818BD
:1048500053A3FC53A1FC43A2032274432FF582E42B
:104860003400F583E0FF22E4F526F521F527F52352
:10487000F5242212491FEFFD7C007F96024224900E
:104880004964E493FE740193FF22904968E493FE27
:10489000740193FF221243277E1D7F040243279059
:1048A0000000E075F00384FF22E4FF000FEFB40C7A
:1048B000FA2243A11053A2EFC2A422EF7002FF22FA
:1048C000ED04FF2241006100410254000090019973
:1048D000E0FFE4F022E4900231F002434F9049629D
:1048E000740193FF2290495C740193FF22900000B1
:1048F000E0C313FF22900176E0FF229001A8E0FFC1
:1049000022900179E0FF22900190E0FF229001A126
:10491000E0FF229001A2E0FF229001A7E0FF229099
:1049200001A0E0FF2290024DE0FF22900249E0FF4B
:104930002290010DE0FF227D8F0239BA43CF102271
:104940005395FE2275DC02220D0A000248267F01E3
:1049500022D2EE22A20122D2012200000001000098
:104960000005000A0BB800C8006400020000000047
:10497000000400000001FFFFFFFF001D04280408E1
:10498000200501AD04280408250501A90428040810
:1049900028050153042804081605022104280408E8
:0C49A0001B050222042804082005025216
:00000001FF
