:10000000021C45FC60DAF266B6BEE0FEF69E021CFB
:0500100017120A15089B
:03001B000220338D
:03005B00022BFA7B
:100080009000F1EFF0E49000F9F09000F1E09000C2
:1000900001120F761210B99000F2F0A3EFF0E47F96
:1000A00001FEFDFC9000F1E0F9F8120A778F198E3D
:1000B000188D178C16AF01122F959000F7EEF0A354
:1000C000EFF0120FC940051210DB8005E49000F438
:1000D000F09000F4E0640160030202329000F1E06D
:1000E000FF2425120FDEE0C394FA7480948050063A
:1000F000120FDBE004F012108CFCE4FBFAF9F8C3F9
:10010000120A53600302021F900000E09000F6F014
:100110001233BFEF6030E49000F4F0A3F012101639
:100120005018120FDBE0C394017480948040069055
:1001300000F4E004F01210A080E312104940079090
:1001400000F6E0240FF09000F1E02425120FDE12FB
:1001500010FB500302021FE49000F4F012337AEF18
:10016000705E9000F5F012101650229000F1E06FD2
:10017000601612333C9000F5E02425120FDEE0C338
:100180009F40051210DB80051210A080D91233BFEA
:10019000EF3395E04F70639000F4E0705DA3F012D0
:1001A000101650569000F1E06F601012333C900032
:1001B000F5121030E0C39F4002803C1210A080DF97
:1001C0001233BFEF3395E04F70309000F6F090009F
:1001D000F5F01210165018120FDBE0C39402748071
:1001E000948040069000F6E004F01210A080E390A6
:1001F00000F612104C40031210DB9000F4E0640192
:100200007002D200E5154519FFE5144518FEE51307
:100210004517FDE51245168F158E148D13F51290B6
:1002200000F1E0FF243D120F8CE4F0A31210230232
:1002300004459000F1E0FF1231D29000F2E0FCA3FF
:10024000E0FDD3120FBD400812102DE004F0800B2A
:100250009001A0E004F012102DE4F01210C3C3E4EA
:100260009FFBE49EFAC3ED9BEA120FBF4066D312D8
:100270000FCA506012106AF583E4121023120FF4B3
:1002800060030203999000F2E0FEA3E0FF9000F10A
:10029000E0900031121010EE8FF012090612332791
:1002A000120FAB4009120FE6E475F001801912330A
:1002B00027C3E49FFFE49EFE120FAB4003020399A5
:1002C000120FE674FFF5F0120906120FA1E4F0A375
:1002D000F00203991210C3C3E49FFFE4120FC7504A
:1002E0007312106A12101FF583E4F0743D2FF5822B
:1002F000E43400F583E0FF75F00A84E5F07044C350
:10030000EF9464748094809000F1E0401012106FBC
:10031000F583E4F0D20190006104F08026120FEB27
:10032000C083C082E0FEA3E0FF90004EE0A2E7138E
:10033000FD3395E0FCC3EF9DFFEE9CD082D083F0AF
:10034000A3EFF09000F1E0FF900199E06F704A7424
:10035000FFF080451210C3D3120FCA403C9000F149
:10036000E012106F120FF470301210E212101FF52D
:1003700083E0642070231210E2F583E4F090004ED5
:10038000E0A2E713A2E713FD3395E0FC75F002EF5E
:10039000120FEEEC8DF012090612108C4D4E4F70BC
:1003A000030204519000F7E0FCA3E0FDAE047802E4
:1003B000CEA2E713CE13D8F8FFC3ED9FFFEC120FC8
:1003C000C7400302044A12103BE004F0123382904B
:1003D00000F6EFF0E49000F5F01210165018120F2E
:1003E000DBE0C394017480948040069000F4E00444
:1003F000F01210A080E31210494008900000E09035
:1004000000F6F09000F1E0FB12103F1210FB5003D9
:1004100002049B745B2B121041E4F0AF19AE18ADCF
:1004200017AC16120A46E5155FFFE5145EFEE513EC
:100430005DFDE5125C8F158E148D13F51274252B5E
:10044000F582E43400F583E4F02212103BE014F06E
:10045000229000F1E02425120FDE120FF6700890B2
:1004600000F1E0FF122247E51A14FF9000F1E06F5F
:1004700070299001A0E0C3951A4020E49000F5F0A7
:10048000121016500E120FDBE060031210DB121078
:10049000A080ED9000F4E07002C200227B017A019E
:1004A000797C122B41EF700302083DE49000F0F0DC
:1004B0007F561231A390017CE06F70279000F0040A
:1004C000F0E4FC747C2CF582E43401F583E0FF1247
:1004D00031A3747C2CF582E43401F583EFF00CEC4D
:1004E000B40FE090017CE06456600E7E187FE91244
:1004F000301790017CE0FF80231228C290018AE02F
:100500006F60237E187FF612301790018AE0FF1289
:100510002BBE7E197F061230171228C2122BBE7E08
:10052000187FE602301790017DE09000F1F0900115
:1005300080E09000F2F0900181E09000F3F09001F3
:1005400084E0FFA3E0FDA3E09000F4F0900187E0D9
:10055000FCEDC4131354019000FCF0EDC41313130D
:100560005401A3F090017BE0603F90018BE0FE908E
:1005700000F1E06E703390018CE0FE9000F2E0B587
:10058000062790018DE0FE9000F3E0B5061B900178
:1005900079E0FE9000FCE0B5060F90017AE0FE9055
:1005A00000FDE06E700302083D9000F1E090018BC9
:1005B000F09000F2E0FE90018CF09000F3E0FB90F0
:1005C000018DF09000FCE0900179F09000FDE0904A
:1005D000017AF0A37401F0EB54C07B0070027B0140
:1005E0009000FAEBF0EEC45407FE9000F5F0A3740F
:1005F00001F0E4A3F0BE0203F0802D9000F5E0FED0
:10060000B401089000F77402F0801DEEB403089066
:1006100000F77401F08011EEB405089000F7740340
:10062000F08005E49000F6F09000F2E0FE5403FB49
:100630009000F8F0BB0205E4A3F0801D9000F8E004
:10064000FBB40306A37401F0800FEB9000F9B40132
:10065000057402F0800374FFF09000F1E0FBC39496
:100660006C50089000FB7410F0800FEB24A49000F5
:10067000FBF0D3941F4003741FF0EF541F90010050
:10068000F09000F4E0541F900101F0E49000FEF0BF
:10069000A3F0EE540C701AA3E07016A3E07012ECF5
:1006A000543F700DED543F70089000FE7403F080CD
:1006B000799000F2E0FF540C640C600AEF5404607F
:1006C0001AE0540860157E197F0C1230179000F262
:1006D000E0FF122BBE7E187FE6804C9000F2E054C3
:1006E00004601D900101E0FFC39401400DEFD3941D
:1006F0001850079000FE740180237E197F1B80270D
:100700009000F2E054086022900100E0FFC39401E1
:100710004011EFD39418500B9000FE7402F0A3EF39
:10072000F080077E197F311230177E197F46123014
:10073000179000F0E060067E197F5680047E197FD6
:100740005A1230177E197F5E1230179000FAE0FFC0
:100750007E001225807E197F621230179000F5E02E
:10076000FF7E001225807E197F6A1230179000F8F4
:10077000E0FF7E001225807E197F721230179000F4
:10078000F1E0FF122BBE7E187FDA1230179000F3D3
:10079000E0FF122BBE7E187FE61230179000F6E0C5
:1007A00070077E197F761230179000F9E0B4FF07CA
:1007B0007E197F941230177E197FA6123017900091
:1007C000FDE060067E197FAF80047E197FB1123094
:1007D000179000FCE060077E197FB31230177E1877
:1007E0007FE61230179000F4E0548060077E197F96
:1007F000B81230177B017A01797C1220BA9000FA86
:10080000E0FF9000F6E0FDA3E0FB9000F9E090012E
:1008100005F09000FBE0900106F09000FCE09001F4
:1008200007F09000FDE0900108F09000FEE09001DC
:1008300009F09000FFE090010AF0120D5622BB0172
:100840000CE58229F582E5833AF583E0225006E93A
:100850002582F8E622BBFE06E92582F8E222E5823F
:1008600029F582E5833AF583E49322BB0106898268
:100870008A83F0225002F722BBFE01F322F8BB016B
:100880000DE58229F582E5833AF583E8F0225006EA
:10089000E92582C8F622BBFE05E92582C8F222EFCF
:1008A0008DF0A4A8F0CF8CF0A428CE8DF0A42EFE5D
:1008B00022BC000BBE0029EF8DF084FFADF022E4D6
:1008C000CCF875F008EF2FFFEE33FEEC33FCEE9D15
:1008D000EC984005FCEE9DFE0FD5F0E9E4CEFD223C
:1008E000EDF8F5F0EE8420D21CFEADF075F008EFC7
:1008F0002FFFED33FD4007985006D5F0F222C39844
:10090000FD0FD5F0EA22C5F0F8A3E028F0C5F0F815
:10091000E582158270021583E038F022EF2BFFEE9E
:100920003AFEED39FDEC38FC22E88FF0A4CC8BF0D8
:10093000A42CFCE98EF0A42CFC8AF0EDA42CFCEA9B
:100940008EF0A4CDA8F08BF0A42DCC3825F0FDE9D5
:100950008FF0A42CCD35F0FCEB8EF0A4FEA9F0EBCB
:100960008FF0A4CFC5F02ECD39FEE43CFCEAA42DD7
:10097000CE35F0FDE43CFC2275F008758200EF2FC7
:10098000FFEE33FECD33CDCC33CCC58233C5829B55
:10099000ED9AEC99E58298400CF582EE9BFEED9A7B
:1009A000FDEC99FC0FD5F0D6E4CEFBE4CDFAE4CC17
:1009B000F9A88222B800C1B90059BA002DEC8BF019
:1009C00084CFCECDFCE5F0CBF97818EF2FFFEE33D6
:1009D000FEED33FDEC33FCEB33FB10D70399400401
:1009E000EB99FB0FD8E5E4F9FA227818EF2FFFEE28
:1009F00033FEED33FDEC33FCC933C910D7059BE959
:100A00009A4007EC9BFCE99AF90FD8E0E4C9FAE4B4
:100A1000CCFB2275F010EF2FFFEE33FEED33FDCC53
:100A200033CCC833C810D7079BEC9AE899400AED3D
:100A30009BFDEC9AFCE899F80FD5F0DAE4CDFBE4E5
:100A4000CCFAE4C8F922CFF4CFCEF4CECDF4CDCC9D
:100A5000F4CC22EB9FF5F0EA9E42F0E99D42F0E8EB
:100A60009C45F022E8600FECC313FCED13FDEE1380
:100A7000FEEF13FFD8F122E8600FEFC333FFEE3330
:100A8000FEED33FDEC33FCD8F122E0FCA3E0FDA346
:100A9000E0FEA3E0FF22E0F8A3E0F9A3E0FAA3E080
:100AA000FB22ECF0A3EDF0A3EEF0A3EFF022A8827E
:100AB0008583F0D083D082120AC5120AC5120AC5F6
:100AC000120AC5E473E493A3C583C5F0C583C8C502
:100AD00082C8F0A3C583C5F0C583C8C582C822A457
:100AE0002582F582E5F03583F58322E0FBA3E0FA69
:100AF000A3E0F922EBF0A3EAF0A3E9F022EC8EF0F8
:100B0000A4CCC5F0CCCDF8EFA4CEC5F02DFDE43CCF
:100B1000FCE8A42EC8C5F03DFDE43CFCEFA4FFE5D5
:100B2000F028FEE43DFDE43CFC22E49000F0F0906F
:100B300000F0E0FFC39406505A12316F9000F1EFBD
:100B4000F060481232DB9000F0E07008A3E0FF1282
:100B5000251280379000F0E0B40108A3E0FF1221D5
:100B60004080289000F0E0B40305122820801C90FB
:100B700000F0E0B4020512243080109000F0E0B4E0
:100B800004047F018002E4FF12320E9000F0E004C2
:100B9000F0809C90011BE07002A3E0601990011BA3
:100BA00074FFF5F012090690011BE07002A3E070DB
:100BB0000590011904F012339CEF60181233A290D3
:100BC0000122E06F600E1233A2900122EFF090013B
:100BD000197401F090013EE0604E90012FE475F031
:100BE00001120906900125E475F001120906C3906F
:100BF0000126E094F4900125E094014019E4F0A36B
:100C0000F0900124E07F0070027F01900124EFF05A
:100C10009001197401F0C3900130E0948890012F85
:100C2000E0941340031226B690011EE06023900169
:100C300038E475F001120906C3900139E0948890F8
:100C40000138E09413400AE490011EF09001190469
:100C5000F0E4FFFEFDFC900129120A96C3120A532C
:100C60006043900129120A8AEF24FFFFEE34FFFE51
:100C7000ED34FFFDEC34FFFC900129120AA2E4FFE1
:100C8000FEFDFC900129120A96C3120A53701690B9
:100C90000120E06004E4FF80027F01122DED7E1B45
:100CA0007F73123332900131E0607DE4FFFEFDFC82
:100CB000900134120A96C3120A53601C9001341238
:100CC0000A8AEF24FFFFEE34FFFEED34FFFDEC3423
:100CD000FFFC900134120AA290012DE475F001127C
:100CE0000906C390012EE094FA90012DE094004093
:100CF00019E4F0A3F090011FE07F0070027F0190E3
:100D0000011FEFF09001197401F0E4FFFEFDFC906B
:100D10000134120A96C3120A53700D900131F090FB
:100D2000011FF090011904F0900132E475F00112F6
:100D30000906900119E0700FC3900133E0943290DE
:100D40000132E09400400EE4900132F0A3F09001F3
:100D500019F012141822900102EFF0A3EDF0A3EBAA
:100D6000F01232DBE490013EF090011EF090011A87
:100D7000E090010CF0900128E090010DF090013B13
:100D8000E0FF90010EF0900108E0FE6F601A900104
:100D90003BEEF060067E1B7F1380047E1B7F0812F3
:100DA00033329001197401F090013BE06021900111
:100DB00006E0FF122D8690010BEFF0900107E06036
:100DC0002A90010BE0C394585021E004F0801C905D
:100DD0000106E090010BF0C3941050037410F090E2
:100DE000010BE0D3941F4003741FF0900128E0FF33
:100DF00090010BE0FE6F602F900128EEF07E1A7FCD
:100E0000D8123017900128E0FF7E00122580900153
:100E10003BE060067E1A7FE080047E1A7FE4123099
:100E2000179001197401F090010CE06019A3E0FF24
:100E3000900128E0B5070C90010EE0FF90013BE027
:100E40006F6003123279900103E0604D90013DE044
:100E5000FF900104E0FE6F6040EFB40108900118BC
:100E6000E090011DF0EEB4010D90011DE09001181D
:100E7000F0E490011DF090013DEEF07E1B7F271203
:100E8000301790013DE0FF7E001225807E1A7FC161
:100E90001230179001197401F0900105E0FFD3940E
:100EA00002503B90013DE06401603390011DE0FE83
:100EB000EF6E602A900105E090011DF0900118F09E
:100EC0007E1B7F1E12301790011DE0FF7E00122551
:100ED000807E1A7FC11230179001197401F012320E
:100EE000F6900109E0B40324E4FFFEFDFC90012923
:100EF000120A96C3120A536068900129120AAE00C2
:100F00000000007E1A7FE8123332804F900109E022
:100F1000FF64016005EF6402704790010AE0FFE49E
:100F2000FCFDFE7B807AEE7936F8120929900129C2
:100F3000120AA2900109E07F00B401027F01900132
:100F400020EFF07E1A7FF212301790010AE0FF7E48
:100F5000001225807E1A7FFB123017900119740150
:100F6000F090011AE0FE900102E0FF6E6003122D86
:100F7000ED22E090004FFF75F002120ADFE0FCA3C3
:100F8000E0FDEF90001975F002020ADFF582E4340B
:100F900000F583E4F0745B2FF582E43400F583E41C
:100FA000F0900031EF75F002020ADF9000F1E07579
:100FB000F002900031120ADFE0FCA3E0C39FEE6470
:100FC00080F8EC648098229EFEC39000F3E09FEED0
:100FD0006480F89000F2E06480982274252FF582F6
:100FE000E43400F583229000F1E0FF75F0029000F8
:100FF00001020ADFF583E4F0FFFEFDFCAB15AA1445
:10100000A913A812C3020A539000F2E0FD90004F0A
:1010100075F002020ADF9000F5E0FFC3951A22F591
:1010200083E004F0740D2FF582E43400229000F187
:10103000E0242BF582E43400F583229000F1E024D3
:101040005BF582E43400F583229000F4E0C394035E
:1010500074809480227D0A1208B1AD037C001208CE
:101060009F9000FAE0FD900001229000F1E0FF2443
:101070003DF582E4340022E0FCA3E0FD75F002EFD0
:1010800090004F120ADFECF0A3EDF022E5155519A0
:10109000FFE5145518FEE5135517FDE51255162208
:1010A0009000F5E004F0227E0090019AE0FCA3E0BD
:1010B000FD12089F8EE78FE622E0FEA3E0C39DFFAE
:1010C000EE9C2290004EE0FF3395E0FE22A4FFE06C
:1010D000C39FE5F06480F8748098229000F4740156
:1010E000F0229000F1E0FF240DF582E4340022901C
:1010F000004EE0FB3395E0FAFEEB22E0FF9000F6B5
:10110000E0FEEFC39E229FEE6480F8EA648098229E
:101110009000F0E0FF900198E02290004BE0FF305B
:10112000E70F547FF0121687900169120AA212335A
:10113000C2E4FB900169120A8AEB90000F93F9F860
:10114000120A64EF5401FFEF7003021255EB25E021
:10115000246DF582E43401F583E0FEA3E0C39460DE
:10116000EE94EA5013EB25E0246DF582E43401F5AA
:1011700083E475F001120906EB25E0246DF582E4A5
:101180003401F583E0FEA3E064014E703DEB64039F
:10119000600EEB64026009EB64046004EBB4050DBF
:1011A00074632BF582E43401F5837401F0EBB40130
:1011B000192463F582E43401F583E0700D74632B28
:1011C000F582E43401F5837401F0EB25E0246DF53C
:1011D00082E43401F583E0FEA3E064B87003EE64BA
:1011E0000B702D745D2BF582E43401F583E07020E3
:1011F000745D2BF582E43401F5837401F0EB600338
:10120000B4010D74632BF582E43401F5837402F0AC
:10121000EB64046005EB6405707FEB25E0246DF55D
:1012200082E43401F583E0FEA3E0FFC39490EE94E2
:10123000014066EF2470FFEE34FEFE7C007DC81294
:1012400008B1ED4C705374632BF582E43401F583DF
:101250007403F08044EB7025EB25E0246DF582E407
:101260003401F583E0FEA3E0C39428EE9400400D22
:1012700074632BF582E43401F5837401F0EB25E00F
:10128000246DF582E43401F583E4F0A3F0745D2B62
:10129000F582E43401F583E4F00BEB6406600302AD
:1012A0001133229000F6EFF0A3EDF0A3EBF07B01F9
:1012B0007A0179001231529000FFE0FC6401702342
:1012C0007B017A0179009001167409F090000E12EA
:1012D0002AD07B017A0179009001167406F0900003
:1012E0000E8033EC64027014122AC17B017A0179FA
:1012F000009001167406F0900004801A9000FFE040
:1013000064037015122AC17B017A017900900116DD
:101310007406F0900005E480539000FAE06056A354
:10132000E0FFC39464504EEFFB7C007D0A7E001208
:1013300008B1900110EFF07C007D0AAF037E00122F
:1013400008B1AC057B017A0179009001167409F0AF
:10135000900110E0900003122AD17B017A017900FC
:101360009001167406F0AF04EF90000393900117FC
:10137000F01D122AD89000F6E06064A3E07060A32C
:10138000E0FD7009900100E04404F08021EDB4011B
:1013900009900100E04410F080149000F8E0900102
:1013A00001B40206E04408F08004E04402F090003A
:1013B000F9E0FD700990010AE04404F08021EDB4E9
:1013C000010990010AE04410F080149000F9E090C7
:1013D000010FB40206E04402F08004E04408F090FB
:1013E00000FCE06007900101E04410F09000FDE097
:1013F000600790010AE04402F09000FEE0900111C5
:1014000060057488F08003748FF07B017A017900A5
:10141000900111E0FD0229A7E49000F2F0A3F0A3EF
:10142000F0A3F0FFFEFDFC900129120A96C3120AF8
:101430005360069000F47401F090011AE0600C9083
:10144000013AE060069000F57401F090013EE06022
:101450001B9000F47401F0900124E0700302151257
:101460009000F27401F09001230214F090011EE04C
:1014700060369000F47401F0900129120A8AEF247A
:101480007FFFEE34EEFEED3436FDE43CFC7B807AEB
:10149000EE793678001209B4EF70027F019000F205
:1014A0007401F0A3EFF0806A90011AE0606490018B
:1014B0003AE0701A900127E0FFB406089000F57436
:1014C00002F0800AEFB407069000F57403F0900074
:1014D000F5E0FF64026036EFB40302803090011B38
:1014E000E07002A3E060109000F27401F090012817
:1014F000E09000F3F0801B12339CEF60109000F23C
:101500007401F0122B019000F3EFF08005E49000DD
:10151000F2F090011AE0FF90013CE0FDA3E0FB90A7
:10152000011DE09000F9F09000F2E09000FAF090D8
:1015300000F3E09000FBF09000F4E09000FCF090ED
:10154000011FE09000FDF0A3EDF09000F5E09000A9
:10155000FFF00212A39000F0EFF090019E12104CE9
:10156000403EE4F0900061E0702B9000F1F09000BC
:10157000F1E0C3951A501EE0FF12100DE0FCA3E04D
:10158000FD75F002EF120FEEECF0A3EDF09000F11C
:10159000E004F080D9122C35C201E4900061F02201
:1015A000900198E004F0121110B50708123245E4DA
:1015B000900199F0121110D39F5003021686E49007
:1015C00000F1F09000F1E0C3951A507A120F7212F8
:1015D00010B9AD07FC900061E0702E1210EF780298
:1015E000C333CE33CED8F9FFD3ED120FBD4046E45E
:1015F0009BFFE49AFEEF7802C333CE33CED8F9FFD7
:10160000C3ED120FBD502E803D1210EF7803C3338F
:10161000CE33CED8F9FFD3ED120FBD4018E49BFFB7
:10162000E49AFEEF7803C333CE33CED8F9FFC3ED8F
:10163000120FBD40119000F1E0FF1219D19000F19E
:10164000E004F00215C39000F1E0B51A069001998C
:10165000E004F09000F0E0FD75F0089001981210A1
:10166000CD4023E4F0C20090019EE004F0ED75F05F
:10167000049001991210CD400DE490019EF01231BA
:1016800015122C35C20122E4F509F511F510F50FFC
:10169000F50E1233C550030217A0122EE28F0D8EE5
:1016A0000C8D0B8C0AE4F508E508C3951A505CE52F
:1016B0000D5401FFE4FEFDFCFBFAF9F8C3120A53D6
:1016C0006030E47F01FEFDFC74132508F582E434EC
:1016D00000F583E0F9F8120A77E5114FFFE5104EA7
:1016E000FEE50F4DFDE50E4C8F118E108D0FF50EA2
:1016F0000509AF0DAE0CAD0BAC0A7801120A648F70
:101700000D8E0C8D0B8C0A0508809DE509C3940293
:101710004015D200E509940340051233C880081231
:10172000337AEF6002C200200028E4FFFEFDFCAB2C
:1017300011AA10A90FA80EC3120A53600C90004CF6
:10174000E475F001120906801CE490004CF0A3F04F
:101750008013900049E475F001120906E4F511F5D3
:1017600010F50FF50E12331CD390004DE09F900042
:101770004CE09E400A1233C8E490004CF0A3F0D332
:1017800090004AE0942C900049E09401401D1233EF
:10179000C89000617401F0E4900049F0A3F0800B60
:1017A0009033DBE4740193FF121555AF11AE10AD09
:1017B0000FAC0E22900191E475F001120906C3905E
:1017C0000192E09464900191E0940050030218CDDE
:1017D000E4900191F0A3F0122A7E9000F0EEF0A3C5
:1017E000EFF0F47002EEF460179000F0E0FEA3E07A
:1017F000FFC3EE94024009D3EF9480EE940C402492
:10180000900194E060030218CD04F07E257FFC1265
:1018100030179000F0E0FEA3E0FF1225807E257FC8
:10182000F9023017E4900194F0900190E070159067
:1018300000F0E0FFA3E090018ECFF0A3EFF0A374DF
:1018400001F0803690018EE0FEA3E0FF7C007D0772
:10185000120AFDA804A905AA06AB079000F0E0FE55
:10186000A3E0FFE4FCFD12091CE47B08FAF9F8127E
:1018700009B490018EEEF0A3EFF0900197E070169E
:101880001229EF900193EFF09001977401F0E4902A
:101890000195F0A3802B900195E475F06412090680
:1018A000C3900196E094E8900195E09403401EE413
:1018B000900195F0A3F01229EF900193E06F600D75
:1018C000EFF090018EE0FEA3E0FF122E1F2249529E
:1018D00020657874726120433D0020453D0020461C
:1018E0003D0020473D000D0A0049522064726F7090
:1018F000207379733D004952206261642073756DD5
:1019000020676F743D00206578703D004952207457
:101910006D7220626F746820443D00495220746DDE
:1019200072206F66662D6D696E206F6E6C790D0A80
:1019300000495220746D72206F6E2D6D696E206F9C
:101940006E6C790D0A004952206F6B206269746FCA
:10195000726465723D006D7362006C73620020708A
:101960003D00206D626974733D0020666269747386
:101970003D0020413D004952206175746F2F756E06
:101980006B6E6F776E206D6F64652069676E6F7226
:10199000650D0A0049522066616E3D6F6666206BD8
:1019A0006565700D0A00495220756E69743D0046E8
:1019B00000430020462B310049522066616E2B31D6
:1019C00020666C6167206C6F672D6F6E6C790D0AF5
:1019D000009000F2EFF0F9120F721210B99000F3BC
:1019E000F0A3EFF0AF01122F95AD07AC069000F316
:1019F000E0FEA3E0FFD39DEC6480F8EE6480985095
:101A000014C3E49DFBE49CFAC3EF9BEA6480F8EE08
:101A1000648098500E9000F2E0FF120F831210774E
:101A2000021AB5ECA2E713FEED13FF9000F3E0FA03
:101A3000A3E0FBD31211065016ECA2E713FEED1340
:101A4000FFC3E49FFFE49EFEC3EB12110650231276
:101A50001008E0FAA3E0FBEAC313FEEB13FFC3EBAD
:101A60009FFBEA9EFAED120F83E0C313FEA3E0137F
:101A70008032121008E0FAA3E0FBAE027803CEC376
:101A800013CE13D8F9FFC3EB9FFBEA9EFA75F00261
:101A9000ED900019120ADFE0FEA3E07803CEC31335
:101AA000CE13D8F92BFFEA3EFE9000F2E012100DA3
:101AB000EEF0A3EFF09000F2120F72ECF0A3EDF055
:101AC000220D0A00484D49207077723D3100484D83
:101AD00049207077723D3000484D492074733D00B5
:101AE000460D0A00430D0A00484D4920746D723DB1
:101AF0003000484D4920746D723D00680D0A004861
:101B00004D49207769666900484D4920756E6974B2
:101B10003D4300484D4920756E69743D4600484D6F
:101B2000492066616E3D00484D49206D6F64653DFA
:101B300000484D4920746D72206564697400484DF9
:101B40004920703D00206D3D0020663D00207473EB
:101B50003D004600430020746D723D0020773D003B
:101B6000207361763D00206C6F73743D0020666CBD
:101B7000743D00484D4920746D7220646F6E65009D
:101B800001020300010300027E1B7F3E123017900A
:101B9000011AE0FF7E001225807E1B7F4512301760
:101BA00090013DE0FF7E001225807E1B7F491230B0
:101BB0001790011DE0FF7E001225807E1B7F4D12D5
:101BC0003017900128E0FF7E0012258090013BE055
:101BD00060067E1B7F5280047E1B7F541230177E6E
:101BE0001B7F561230177B807AEE79367800900191
:101BF00029120A8A1209B41225807E1B7F5C1230DA
:101C000017900131E0FF7E001225807E1B7F60125D
:101C1000301790013CE0FF7E001225807E1B7F661E
:101C200012301790013AE0FF7E001225807E1B7F64
:101C30006D123017900127E0FF7E001225807E1A7A
:101C40007FC1023017787FE4F6D8FD9000007F0056
:101C50007E20E4F0A3DFFCDEFA758127021C9A02E5
:101C60002FC1E493A3F8E493A34003F68001F208A4
:101C7000DFF48029E493A3F85407240CC8C333C4C9
:101C8000540F4420C8834004F456800146F6DFE434
:101C9000800B0102040810204080903361E47E0133
:101CA0009360BCA3FF543F30E509541FFEE493A3A7
:101CB00060010ECF54C025E060A840B8E493A3FAB9
:101CC000E493A3F8E493A3C8C582C8CAC583CAF045
:101CD000A3C8C582C8CAC583CADFE9DEE780BE5093
:101CE0005752207478002073756D3D002063757223
:101CF0003D6E74630D0A00206375723D7365740D4B
:101D00000A00505752206C6F73740D0A00505752DE
:101D1000206F6B0D0A005057522072782076657242
:101D20003D0020747970653D00206661756C743DDE
:101D3000000D0A0050575220555343493220343881
:101D400030302050342E342F50342E3520706572B0
:101D5000696F643D3135306D73206375723D736515
:101D60007420756E74696C204E54430D0A00030094
:101D70000201E490011AF090013DF090011D04F081
:101D8000900118F090013BF09001287448F0E49025
:101D9000013CF090013EF090011EF0900129120AE2
:101DA000AE00000000E4900120F090013104F090BA
:101DB0000134120AAE0002BF2090011F7401F0E44A
:101DC00090012DF0A3F090012404F0E4A3F0A3F01F
:101DD000900121F090012FF0A3F0900138F0A3F0D2
:101DE000900132F0A3F090011904F0E490013AF070
:101DF000900127F090011BF0A3F090012274FFF0F6
:101E000002141812338A9000F3EFF012339090000E
:101E1000F4EFF01233969000F5EFF012328A900052
:101E2000F4E0D394034002E4F090008F7466F0A3D2
:101E30007499F0EF2428A3F012339CEF600C123356
:101E4000A2EF2428900092F08006900091E0A3F089
:101E50009000F3E0FF9000F5E0FD123358EFC4541A
:101E6000F0FF9000F4E0901D6E934F900093F0907F
:101E700000F3E05401900094F07F0E900095E4F0A0
:101E8000A3DFFC7B017A00798F7D141230D490009F
:101E9000A3EFF022EF7033C3ED948CEC940040126A
:101EA000D3ED94F0EC94005009752601E4F521F58A
:101EB0002722E5266065C3ED9406EC9400405CD3D0
:101EC000ED9418EC940040568051E5266050E521D1
:101ED0007012C3ED943CEC94004009D3ED948CEC6B
:101EE0009400403AE521C394784003022EB3C3ED39
:101EF0009406EC9400400DD3ED9412EC9400500441
:101F0000E4FF8014C3ED9418EC9400400ED3ED94DC
:101F100032EC940050057F01022A3712331022C29E
:101F2000AF75FEC1AFFFD2AFEF5430FD7C0070043F
:101F30007920801CED64104C700479108012ED64DF
:101F4000204C700479088008ED64304C70027904EC
:101F5000E924F8601824F8602024F06028241C701C
:101F6000309000F27401F0A374F4F080269000F237
:101F70007403F0A374E8F0801A9000F27407F0A3E1
:101F800074D0F0800E9000F2740FF0A374A0F08073
:101F900002E4F99000F2E07002A3E0600C9000F21D
:101FA00074FFF5F012090680EA2275FE8543FF20D2
:101FB00053DB7FD2AFC201E490019FF090004BF061
:101FC000122910E4FF122E51EF2401FDE433FC7EB0
:101FD0000F7FA01208B190019AEEF0A3EFF0E4FF9A
:101FE0001232331210A77F02122E51EFC454F0FEAA
:101FF000C006E4FF122E51D0E02FF5E17F03122E30
:1020000051E5E254804FF5E27F04122E51EF600853
:10201000E5E254804480F5E27F01122E518FE312F5
:102020002C3543A910900013E04480F5E81223BA40
:10203000023115C0E0C083C082C0D075D000C0009E
:10204000C003C004C005C006C007758BC0758DF9FC
:10205000A2B2E433FB65227039C3E52494D0E523B2
:10206000940750080524E52470020523EB6036C36D
:10207000E5249450E5239400402BE5266027E521D4
:1020800094784005122EB3801CE52160181233109D
:102090008013AD24AC23AF22121E94AF038F2275A0
:1020A0002300752401D007D006D005D004D003D07A
:1020B00000D0D0D082D083D0E03290000312083E0E
:1020C000FF900102F090000512083E900103F0908D
:1020D000000612083E900104F090000712083E909E
:1020E0000105F0EF54017014900103E0543F700CAF
:1020F000A3E054EF7006A3E0547F60437E187FCEC8
:10210000123017900102E0FF122BBE7E187FDA1208
:102110003017900103E0FF122BBE7E187FDE1230D5
:1021200017900104E0FF122BBE7E187FE2123017D9
:10213000900105E0FF122BBE7E187FE612301722B9
:102140009000F2EFF06402703790011AE070759021
:10215000013BE09001286012E0FF122D50EFF0E407
:1021600090013BF07E1B7F088011E0FF122D86EF6F
:10217000F090013B7401F07E1B7F13123332803EDE
:102180009000F2E06401703C90011AE0603690012A
:102190003DE06401602E90011DE0901B8093900152
:1021A0001DF0900118F07E1B7F1E12301790011D4C
:1021B000E0FF7E001225807E1A7FC1123017900149
:1021C000197401F022121E03E49000F2F09000F264
:1021D000E0FFC394155017748F2FF582E43400F597
:1021E00083E0FF122B819000F2E004F080DFE4FF37
:1021F000900064E0FE900091E0FDB506249000653B
:10220000E0FE900092E0B50618900066E0FE9000B7
:1022100093E0B5060C900067E0FE900094E06E60DD
:102220001F7F01900064EDF0900092E0900065F057
:10223000900093E0900066F0900094E0900067F0CA
:10224000EF60031227CE229000FAEFF012330390D2
:1022500000FBEFF01222BC90019BE025E0FF900113
:102260009AE033FE7C00121055120F86E0FAA3E0CC
:10227000C39FEA9E50099000FBE0603F14802D123E
:1022800022BC90019AE0FEA3E0FF7C007D071208CB
:102290009F121055120FA5E0FAA3E0D39FEA9E40CB
:1022A0001A9000FBE0FF647E6011EF04FF74432D81
:1022B000F582E43400F583EFF0D201229000FAE0D9
:1022C000FF123233EFFB227B017A00796E7D201200
:1022D00030D490008EE06F706AE49000A6F0A3F016
:1022E000FF122F69900070E09000A9F0900071E05B
:1022F0009000A8F0900077E0FF90006DF01232CBD4
:102300009000A57401F090006BE0FF9000A9E0FE42
:10231000B5071890006AE0FF9000A8E0B5070C90A0
:102320000069E0FF90006DE06F601890006BEEF0C8
:102330009000A8E090006AF090006DE0900069F0D5
:10234000122C7022900128E0FEFD90013BE0601D00
:10235000EF600CEEC394585006900128E004F0EFB3
:102360007029900128E0D3943D4020801BEF600C41
:10237000900128E0C3941F5003E004F0EF700C902C
:102380000128E0D394104003E014F0900128E06DA0
:1023900060277E1A7FD8123017900128E0FF7E0058
:1023A00012258090013BE060067E1A7FE080047E6B
:1023B0001A7FE4123017123279229000F07420F064
:1023C00012308BE49000F1F09000F1E0FFC3951A19
:1023D0005021E0FE120F83E0FCA3E0FD75F002EE59
:1023E000120FEEECF0A3EDF01222479000F1E004A2
:1023F000F080D59000F0E0FF14F0EF70C31232458A
:102400001233729000F0EFF012308BE49000F1F094
:102410009000F1E0FFC3951A500B1219D19000F112
:10242000E004F080EB9000F0E0FF14F0EF70D922B0
:1024300090013EE060030226B690011EE060159018
:102440000129120AAE00000000E490011EF07E1A7D
:102450007FE88044E4FFFEFDFC900129120A96C348
:10246000120A53601390011E7401F0E4900138F0D9
:10247000A3F090011904F02290013E7401F0900144
:1024800023F0E490012FF0A3F0900125F0A3F09049
:10249000012404F07E1B7F31123332900119740144
:1024A000F022E49000F1F07B017A0079F0122F3DE8
:1024B000EF60149000F0E0FF1226529000F1E0046B
:1024C000F0E0C3941040E0900062E475F00112095E
:1024D00006C3900063E09496900062E09400400789
:1024E000E4F0A3F01221C5C39000A7E09488900007
:1024F000A6E09413501BE475F001120906C3900086
:10250000A7E094889000A6E0941340057F01122F65
:1025100069229000F2EFF06402703390011AE070CB
:102520005E90013104F0900134120AAE0002BF2027
:10253000E490012DF0A3F090011F04F0900121F030
:102540007E1A7FFF1233329001197401F02290003D
:10255000F2E064017029900121E06003E4F0229030
:10256000011AE0900129600B120AAE00000000E49D
:10257000FF8009120AAE000000007F01122DED223B
:1025800090010FEEF0A3EFF04E70057F30022F1197
:10259000E4FB90010FE0FEA3E0FF4E602F7C007D86
:1025A0000A1208B1AE030B74112EF582E43401F562
:1025B00083EDF090010FE0FEA3E0FF7C007D0A12A6
:1025C00008B190010FEEF0A3EFF080C6900116EB7A
:1025D000F0900116E0601514F0E02411F582E43467
:1025E00001F583E02430FF122F1180E5224E544381
:1025F00020633D002061643D000D0A004E544320DD
:10260000626164206164633D0028292B2C2E3031E7
:10261000333536383A3C3E40424446484A4C4E50A8
:10262000525456585A5D5F616365686A6C6E707388
:102630007577797B7E80828486888A8C8E9193954B
:1026400096989A9C9EA0A2A4A5A7A9ABACAEB0B147
:10265000B3B490006CE0FE7011EF645570579000B9
:102660006EEFF090006C7401F022EE6401701FEFC9
:10267000B45A0C90006FF09000A47402F0800AEF3E
:10268000B4550590006EF022E490006CF0229000AA
:10269000A4E0246EF582E43400F583EFF09000A40A
:1026A000E004F0E0C39421400C1222C7E490006CD7
:1026B000F09000A4F022900123E070139001291201
:1026C0000AAE000000007E1A7FE812333280399093
:1026D0000123E0FFE4FCFDFE7B807AEE7936F81200
:1026E0000929900129120AA290011AE0900120F014
:1026F0007E1A7FF2123017900123E0FF7E00122530
:10270000807E1A7FFB123017E490013EF090011E8C
:10271000F090011904F022E4F509F50AF50E750DA3
:1027200005750CA4750B10F509E50E5401FFE4FEC8
:10273000FDFCFBFAF9F8C3120A5360177413250A5B
:10274000F582E43400F583E509F0050AE50AC3944F
:1027500006501CAF0EAE0DAD0CAC0B7801120A6426
:102760008F0E8E0D8D0C8C0B0509E509B41FBA85F3
:102770000A1A22C20290019FE0120F83E5E5F0A33E
:10278000E5E4F090019FE004F0E0C3951A400BE40B
:10279000F090004BE04480F08002D20290019FE074
:1027A000FF1232331210A790019FE0FF123303E5AE
:1027B000E254804FF5E290019FE02413F582E43467
:1027C00000F583E04480F5E8300202D2EE227E1C60
:1027D0007FDF123017E49000F3F07F20122F11906A
:1027E00000F3E0248FF582E43400F583E0FF122B40
:1027F000BE9000F3E004F0E0C3940640DD7E1C7F51
:10280000E61230179000A3E0FF122BBE12339CEFAC
:1028100060067E1C7FEC80047E1C7FF7123017223E
:1028200090011AE0604A90013DE0FF901B8493FE06
:10283000EFB40108900118E090011DF0EEB4010D15
:1028400090011DE0900118F0E490011DF090013D11
:10285000EEF07E1B7F2712301790013DE0FF7E00D7
:102860001225807E1A7FC11230179001197401F071
:10287000227F1590008FE4F0A3DFFCE490006CF061
:102880009000A4F0900068F09000AAF09000A5F0ED
:1028900090006474FFF0A3F0A3F0A3F090006BF03D
:1028A00090006AF0900069F0E4900062F0A3F0906C
:1028B00000A6F0A3F01230667E1D7F34123017029E
:1028C00021C57B017A01797C7D0E900102120AF408
:1028D000900105EDF0E4FFFEA3F0900105E0FDA3FB
:1028E000E0FCC39D5029900102120AEB8C82758393
:1028F0000012083EFDC4540F2FFFE43EFEED540FBE
:102900007C002FFFEC3EFE900106E004F080CB221D
:102910009033D1740193900000F09033EB740193E5
:1029200090004EF0122717E4F508E508C3951A50F9
:1029300023E50875F008A424F1F582E43433F58327
:10294000E493FF74432508F582E43400F583EFF047
:10295000050880D6E490004CF0A3F0221230F64334
:10296000A910D2AF1233AD121FAA1233AD90016974
:10297000120AAE00000000E4FFEF25E0246DF582AE
:10298000E43401F583E4F0A3F0745D2FF582E434C0
:1029900001F583E4F074632FF582E43401F583E4F8
:1029A000F00FEFB406D322900112120AF490011531
:1029B000EDF01232577F4012313412326812325722
:1029C0007FC0123134E4FC900112120AEB8C827544
:1029D000830012083EFF1231340CECB410E91232BD
:1029E00068123257900115E0FF12313402326890BC
:1029F000018EE0FEA3E0FFEEC4F854F0C8EFC4542B
:102A00000F48FF902609E493FEEFD39E50037F000A
:102A100022902651E493FEEFC39E40037F4822E4B8
:102A2000FEEE90260A93FDEFC39D5003AF06220EE3
:102A3000EEB448ED7F4822E521C39478503FEF6023
:102A400012E5215407FF7401A807088002C333D898
:102A5000FC42270521E52154077022E52124FFFFD0
:102A6000E434FFFEEF7803CEC313CE13D8F9243F2E
:102A7000F582E43401F583E527F0E4F5272243AD40
:102A8000407DD07C07E5AD20E50BED4C6007ED1DEA
:102A900070F31C80F0AFAFEF75F010A4FBAFAEE4A5
:102AA000C4F854F0C868FEEFC4540F48FFEE45F078
:102AB000FEEF4BFF53ADDFED4C70057EFF7FFF2235
:102AC000227B017A0179009001167409F090000DC3
:102AD000E493900117F07D08900112120AF490011E
:102AE00017E0FF900112120AEBAE058E827583008B
:102AF000EF12087D900116E0F582758300EF020861
:102B00007D90013BE0700F1233A2EFD3946340033A
:102B10007F63220233A21233A27E007C007D091261
:102B2000089FEF2402FFE43EFE7D051208B1EF246A
:102B300020FFE43EFED3EF9463EE940040027F63F7
:102B400022900102120AF4E5257002FF22A2AFE4EE
:102B500033FFC2AFE4FE744E2EF582E43401F583F8
:102B6000E0FD900102120AEB8E82758300ED1208DF
:102B70007D0EEEB40FE0E4F525EF24FF92AF7F0168
:102B8000221233B59000AC7480F0A3E4F08FC7E557
:102B9000C420E1269000ACE07002A3E0601CE5C414
:102BA00030E008AFC71230B053C4FD9000AC74FFE2
:102BB000F5F01209061233AD80D553C4FE22900100
:102BC00006EFF0E0C4540FA3F0C3940A5005E024CC
:102BD000308006900107E02437FF122F1190010684
:102BE000E0540FA3F0C3940A5005E024308006900F
:102BF0000107E02437FF122F1122C0E0C0F0C0838C
:102C0000C082C0D075D000C000C001C002C003C0E7
:102C100004C005C006C007122773D007D006D00530
:102C2000D004D003D002D001D000D0D0D082D08345
:102C3000D0F0D0E032E4FFEFC3951A501A120FDB48
:102C4000E4F0743D2F120F8CE4F0A3F0742B2F12DC
:102C50001033E4F00F80E0E4F515F514F513F512E8
:102C600090019974FFF0E490019CF0A3F0C201225E
:102C70007E1D7F161230179000A9E0FF7E001225FE
:102C8000807E1D7F221230179000A8E0FF7E001288
:102C900025807E1D7F2912301790006DE0FF7E0099
:102CA0001225807E1D7F310230179000F0EEF0A3D8
:102CB000EFF09000F0E07002A3E06025E4F58A7583
:102CC0008C83C28DD28C208D081231BB1233AD8023
:102CD000F5C28CC28D9000F074FFF5F012090680E9
:102CE000D12290018E7408F0A3E4F0900191F0A33A
:102CF000F0900195F0A3F0A3F09001937419F0E423
:102D0000A3F0900190F053A1F753A2F775AB80F5B3
:102D1000AC75B51075AD87C2AE229000F0EEF0A391
:102D2000EFF07E2E7F831230177E2E7F9C1230179D
:102D30007E2E7F9E1230177E2E7FA91230179000B4
:102D4000F0E0FEA3E0FF1225807E2E7FB002301758
:102D5000EFC3942050037F1022EF24E0FFE434FF00
:102D6000FE7C007D0512089F7D091208B1C3EF9417
:102D700010EE940050047E007F10D3EF941FEE9469
:102D80000040027F1F227E007C007D0912089FEF19
:102D90002402FFE43EFE7D051208B1EF2420FFE48B
:102DA0003EFEC3EF943DEE940050047E007F3DD381
:102DB000EF9458EE940040027F5822439A0F4391BB
:102DC000F043B1F043C1C075D9FF1232211231E88E
:102DD0001233BC12334F12318A12295C121D721247
:102DE000287112336A122CE2D2AF0233AD90011A6D
:102DF000EFF0E490013EF090011EF090013CF09065
:102E0000011BF0A3F0EF60091232F67E1A7FC48036
:102E1000047E1A7FCE1233329001197401F0229091
:102E200000F2EEF0A3EFF07E257FED123017900157
:102E300093E0FF7E001225807E257FF412301790EC
:102E400000F2E0FEA3E0FF1225807E257FF902302C
:102E500017EF14601214601414601814601A24041C
:102E6000701E9033ED80089033EE80039033EFE4D2
:102E700093FF22E4FF0233039033DF740193FF22B8
:102E80007F00224144422D437572736F7220535468
:102E90004147452D332D302E312E33002000323066
:102EA00032362D30392D303800207469636B3D0087
:102EB0000D0A00E521C394784025E5257021FF74B3
:102EC0003F2FF582E43401F583E0FE744E2FF58246
:102ED000E43401F583EEF00FEFB40FE37525010242
:102EE0003310E49001A0F09000F0F09000F0E0FFCB
:102EF000C3951A50131219D19000F0E0FF12008010
:102F00009000F0E004F080E3AF15AE14AD13AC1206
:102F1000229001A17480F0A3E4F08F9FE59520E159
:102F2000199001A1E07002A3E0600F9001A174FF6D
:102F3000F5F01209061233AD80E20233B11231BB53
:102F40009000ABE0FF9000EEE0FEB507037F0022AB
:102F500074AE2EF582E43400F583E012086B900025
:102F6000EEE004543FF07F01229000F2EFF0900079
:102F700068E06F601F9000F2E0FF900068F012328E
:102F8000AB9000F2E060067E1D7F0280047E1D7F14
:102F90000D12301722AD07ED75F008A424F3F58269
:102FA000E43433F583E493FEED75F008A424F4F5DE
:102FB00082E43433F583E4937C002400FFEC3EFE8E
:102FC00022122DBB7E337FB9123017E4FFFE122D83
:102FD0001A121B887F017E00122CAA12111A1204E9
:102FE0009C1217B4120B2A1224A280E8EF600C90F6
:102FF0000123E0C394185003E004F0EF700C90013B
:1030000023E0D394004003E014F0E490012FF0A3F8
:10301000F090011904F02290010FEEF0A3EFF09070
:10302000010FE0FEA3E0F5828E83E493FF600F12B0
:103030002F1190010FE475F00112090680E12212B0
:103040003310E4F52575220153B1FB43B204438EDE
:1030500002E589540F4410F589758BC0758DF9D23E
:10306000BBD2ABD28E22E49000ABF09000EEF01217
:1030700033B5438EC053C1CF43C23075C45075C5FC
:103080000A75C61A53AAFDA304F022E4FE90004B71
:10309000E0547FF0D2EE90004BE054807011121F8C
:1030A0001F43CF100EEEC394647480948040E722D7
:1030B0009000ABE0FE04543FFD9000EEE06D601325
:1030C00074AE2EF582E43400F583EFF0AF05900086
:1030D000ABEFF0229000F6120AF4E4FFFEEEC39D7F
:1030E00050139000F6120AEB8E8275830012083E90
:1030F0002FFF0E80E822439A10539BEFD284439116
:10310000055392FAD290D29243A1A453A25BD2A2C9
:10311000D2A5D2A722E4FFEFC3951A5016120F8250
:10312000E0FCA3E0FD900001120FA4ECF0A3EDF091
:103130000F80E422AE07E4FDC2B1EE1392B0123369
:1031400046D2B1123346EEC313FE0DEDB408E9C208
:10315000B122900112120AF4E4FF900112120AEB5C
:103160008F82758300E412087D0FEFB410EC227497
:10317000632FF582E43401F583E0FE74632FF5825A
:10318000E43401F583E4F0AF0622E4FDFCD2A4129E
:10319000329BC2A412329B0DBD00010CBC01EEBDDE
:1031A0002CEB22E4FEFDEE25E0FEEF54014EFEEF97
:1031B000C313FF0DEDB408EEAF06229000EFE06000
:1031C000101233B5E5C430E008AFC71230B053C4B5
:1031D000FD22122F95EF7803C333CE33CED8F9FFFB
:1031E0007C007D0A1208B122539A9F439B60438F53
:1031F00030759550759D15759E01227F109000F0D9
:10320000E4F0A3DFFC7B017A0079F00233A890019F
:103210003EE06003022FEC90011AE06003122344A9
:1032200022438E01E58954F04401F589C28CC2A97C
:10323000C28D22EF75F008A424F0F582E43433F552
:1032400083E493FF22E4FFEFC3951A5009120F8223
:103250001210770F80F122D2B0D2B1123346C2B031
:10326000123346C2B1023346C2B0C2B1123346D2A3
:10327000B1123346D2B002334690011B7407F0A35B
:1032800074D0F09001197401F02290013BE090019C
:10329000286005E0FF022D50E0FF22E4FFFE000F52
:1032A000BF00010EBE01F7BFE0F42290013AE06FCB
:1032B0006008EFF09001197401F022900127E06F8F
:1032C0006008EFF09001197401F0229000AAE06FFD
:1032D00060089000AAEFF01232BB2290013CE0603F
:1032E00007E4F090011904F02243B10353B2FCD279
:1032F000B1D2B00231FB90013DE0B40105E4900190
:103300001DF02274432FF582E43400F583E0FF22A0
:10331000E4F526F521F527F523F524229033D5E4AD
:1033200093FE740193FF229033D9E493FE740193CA
:10333000FF221230177E1A7FC1023017900000E082
:1033400075F00384FF22E4FF000FEFB40CFA224370
:10335000A11053A2EFC2A422EF7002FF22ED04FFDE
:10336000224100610041019E0000E490017BF002D7
:10337000303F9033D3740193FF229033CD74019387
:10338000FF22900000E0C313FF2290011AE0FF2209
:1033900090013DE0FF2290011DE0FF22900197E0A7
:1033A000FF22900193E0FF227D8F0229A743CF10D7
:1033B000225395FE2275DC02220D0A000232E97FBB
:1033C0000122D2EE22A20122D2012200000001003D
:1033D000000005000A0BB800C800640002000000ED
:1033E00000000400000001FFFFFFFF001D0428048F
:1033F00008200501AD04280408250501A9042804B6
:10340000082805015304280408160502210428048D
:0D341000081B0502220428040820050252B2
:00000001FF
