:10000000022589FC60DAF266B6BEE0FEF69E021CAE
:0500100017120A15089B
:03001B00022A991D
:03002300023D5942
:03005B0002384424
:100080009001A3EFF0E49001ABF09001A3E09000A9
:10009000011210FE1212419001A4F0A3EFF0E47FD0
:1000A00001FEFDFC9001A3E0F9F8120ACF8F198E32
:1000B000188D178C16AF01123CD79001A9EEF0A352
:1000C000EFF012115140051212638005E49001A671
:1000D000F09001A6E0640160030202329001A3E007
:1000E000FF2425121166E0C394FA748094805006B0
:1000F000121163E004F0121214FCE4FBFAF9F8C3E5
:10010000120AAB600302021F900000E09001A8F009
:1001100012435CEF6030E49001A6F0A3F012119E50
:100120005018121163E0C3940174809480400690CB
:1001300001A6E004F012122880E31211D1400790CA
:1001400001A8E0240FF09001A3E02425121166120B
:100150001283500302021FE49001A6F01242F3EF53
:10016000705E9001A7F012119E50229001A3E06FE3
:1001700060161242AD9001A7E02425121166E0C37B
:100180009F4005121263800512122880D912435C29
:10019000EF3395E04F70639001A6E0705DA3F0121D
:1001A000119E50569001A3E06F60101242AD900175
:1001B000A71211B8E0C39F4002803C12122880DFD2
:1001C00012435CEF3395E04F70309001A8F090013E
:1001D000A7F012119E5018121163E0C394027480AC
:1001E000948040069001A8E004F012122880E39069
:1001F00001A81211D440031212639001A6E0640119
:100200007002D200E5154519FFE5144518FEE51307
:100210004517FDE51245168F158E148D13F51290B6
:1002200001A3E0FF243D121114E4F0A31211AB026C
:1002300004459001A3E0FF1240C59001A4E0FCA397
:10024000E0FDD312114540081211B5E004F0800B17
:1002500090022FE004F01211B5E4F012124BC3E447
:100260009FFBE49EFAC3ED9BEA1211474066D3124E
:10027000115250601211F2F583E41211AB12117C8D
:1002800060030203999001A4E0FEA3E0FF9001A3A4
:10029000E0900031121198EE8FF012095E12429830
:1002A000121133400912116EE475F00180191242E7
:1002B00098C3E49FFFE49EFE1211334003020399AA
:1002C00012116E74FFF5F012095E121129E4F0A309
:1002D000F002039912124BC3E49FFFE412114F5036
:1002E000731211F21211A7F583E4F0743D2FF58219
:1002F000E43400F583E0FF75F00A84E5F07044C350
:10030000EF9464748094809001A3E040101211F780
:10031000F583E4F0D20190006104F080261211739D
:10032000C083C082E0FEA3E0FF90004EE0A2E7138E
:10033000FD3395E0FCC3EF9DFFEE9CD082D083F0AF
:10034000A3EFF09001A3E0FF900228E06F704A74E1
:10035000FFF0804512124BD3121152403C9001A382
:10036000E01211F712117C703012126A1211A7F507
:1003700083E06420702312126AF583E4F090004E4B
:10038000E0A2E713A2E713FD3395E0FC75F002EF5E
:10039000121176EC8DF012095E1212144D4E4F7050
:1003A000030204519001A9E0FCA3E0FDAE04780231
:1003B000CEA2E713CE13D8F8FFC3ED9FFFEC1211C6
:1003C0004F400302044A1211C3E004F01242FB90B2
:1003D00001A8EFF0E49001A7F012119E501812113D
:1003E00063E0C394017480948040069001A6E00409
:1003F000F012122880E31211D14008900000E09022
:1004000001A8F09001A3E0FB1211C7121283500360
:1004100002049B745B2B1211C9E4F0AF19AE18AD46
:1004200017AC16120A9EE5155FFFE5145EFEE51394
:100430005DFDE5125C8F158E148D13F51274252B5E
:10044000F582E43400F583E4F0221211C3E014F0E5
:10045000229001A3E0242512116612117E700890EB
:1004600001A3E0FF122CAAE51A14FF9001A3E06F8C
:10047000702990022FE0C3951A4020E49001A7F064
:1004800012119E500E121163E060031212631212D9
:100490002880ED9001A6E07002C200227B017A0262
:1004A000790B123713EF700302087CE49001A2F07D
:1004B0007F5612407E90020BE06F70279001A204DD
:1004C000F0E4FC740B2CF582E43402F583E0FF12B7
:1004D000407E740B2CF582E43402F583EFF00CECD3
:1004E000B40FE090020BE06456600E7E1D7F081290
:1004F0003D8490020BE0FF802312344E900219E0FD
:100500006F60237E1D7F15123D84900219E0FF125B
:1005100037CD7E1D7F25123D8412344E1237CD7E9D
:100520001D7F05023D8490020CE09001A3F0900233
:100530000FE09001A4F0900210E09001A5F090026D
:1005400011E0FF900213E0FBA3E0FDA3E09001A601
:10055000F0900216E0FCEDC4131354019001AEF0CC
:10056000EDC41313135401A3F0EF131313540190AC
:1005700001B4F09001A5E0FF131354019001B5F010
:1005800090020AE0604890021AE0FE9001A3E06E3B
:10059000703C90021BE0FE9001A4E06E703090026F
:1005A0001CE0FEEFB50627900208E0FF9001AEE0E8
:1005B000B5071B900209E0FF9001AFE0B5070F906F
:1005C0000207E0FF9001B4E06F700302087C900125
:1005D000A3E090021AF09001A4E0FF90021BF090BB
:1005E00001A5E0FE90021CF09001AEE0900208F040
:1005F0009001AFE0900209F09001B4E0900207F0A2
:1006000090020A7401F0EE54C07E0070027E0190E8
:1006100001ACEEF0EFC45407FF9001A7F0A3740102
:10062000F0E4A3F0BF0203F0802D9001A7E0FFB437
:1006300001089001A97402F0801DEFB40308900135
:10064000A97401F08011EFB405089001A97403F0BA
:100650008005E49001A8F09001A4E0FF5403FE900F
:1006600001AAF0BE0205E4A3F0801D9001AAE0FEFD
:10067000B40306A37401F0800FEE9001ABB4010542
:100680007402F0800374FFF09001A3E0FEC3946C49
:1006900050089001AD7410F0800FEE24A49001ADCD
:1006A000F0D3941F4003741FF0EB541F9001B2F07D
:1006B0009001A6E0541F9001B3F0E49001B0F0A3C4
:1006C000F0EF540C701AA3E07016A3E07012EC5413
:1006D0003F700DED543F70089001B07403F08079C5
:1006E0009001A4E0FF540C640C600AEF5404601AFB
:1006F000E0540860157E1D7F2B123D849001A4E01C
:10070000FF1237CD7E1D7F05804C9001A4E054047C
:10071000601D9001B3E0FFC39401400DEFD3941826
:1007200050079001B0740180237E1D7F3A8027908E
:1007300001A4E0540860229001B2E0FFC39401409C
:1007400011EFD39418500B9001B07402F0A3EFF0A6
:1007500080077E1D7F50123D847E1D7F65123D8483
:100760009001A2E060067E1D7F7580047E1D7F796A
:10077000123D847E1D7F7D123D849001ACE0FF7EA2
:1007800000122FF77E1D7F81123D849001A7E0FFAC
:100790007E00122FF77E1D7F89123D849001AAE012
:1007A000FF7E00122FF77E1D7F91123D849001A3E2
:1007B000E0FF1237CD7E1C7FF9123D849001A5E049
:1007C000FF1237CD7E1D7F05123D849001A8E07099
:1007D000077E1D7F95123D849001ABE0B4FF077E3C
:1007E0001D7FB3123D847E1D7FC5123D849001AFF5
:1007F000E060067E1D7FCE80047E1D7FD0123D848A
:100800009001AEE060077E1D7FD2123D847E1D7F89
:1008100005123D849001A6E0548060077E1D7FD7BD
:10082000123D847B017A02790B122B209001ACE0FF
:10083000FF9001A8E0FDA3E0FB9001ABE09001B9BF
:10084000F09001ADE09001BAF09001AEE09001BBF4
:10085000F09001AFE09001BCF09001B0E09001BDDC
:10086000F09001B1E09001BEF09001B4E09001BFC2
:10087000F09001B5E09001C0F0120E7022BB0106AD
:1008800089828A83E0225002E722BBFE02E32289AA
:10089000828A83E49322BB010CE58229F582E583F9
:1008A0003AF583E0225006E92582F8E622BBFE06EF
:1008B000E92582F8E222E58229F582E5833AF5838B
:1008C000E49322BB010689828A83F0225002F72238
:1008D000BBFE01F322F8BB010DE58229F582E58319
:1008E0003AF583E8F0225006E92582C8F622BBFEDD
:1008F00005E92582C8F222EF8DF0A4A8F0CF8CF094
:10090000A428CE8DF0A42EFE22BC000BBE0029EF41
:100910008DF084FFADF022E4CCF875F008EF2FFFE6
:10092000EE33FEEC33FCEE9DEC984005FCEE9DFEB4
:100930000FD5F0E9E4CEFD22EDF8F5F0EE8420D2FB
:100940001CFEADF075F008EF2FFFED33FD4007986A
:100950005006D5F0F222C398FD0FD5F0EA22C5F07B
:10096000F8A3E028F0C5F0F8E5821582700215833F
:10097000E038F022EF2BFFEE3AFEED39FDEC38FCCB
:1009800022E88FF0A4CC8BF0A42CFCE98EF0A42CF0
:10099000FC8AF0EDA42CFCEA8EF0A4CDA8F08BF03C
:1009A000A42DCC3825F0FDE98FF0A42CCD35F0FC3A
:1009B000EB8EF0A4FEA9F0EB8FF0A4CFC5F02ECD06
:1009C00039FEE43CFCEAA42DCE35F0FDE43CFC22EB
:1009D00075F008758200EF2FFFEE33FECD33CDCCDE
:1009E00033CCC58233C5829BED9AEC99E582984061
:1009F0000CF582EE9BFEED9AFDEC99FC0FD5F0D63E
:100A0000E4CEFBE4CDFAE4CCF9A88222B800C1B967
:100A10000059BA002DEC8BF084CFCECDFCE5F0CBA5
:100A2000F97818EF2FFFEE33FEED33FDEC33FCEBDE
:100A300033FB10D703994004EB99FB0FD8E5E4F999
:100A4000FA227818EF2FFFEE33FEED33FDEC33FC86
:100A5000C933C910D7059BE99A4007EC9BFCE99A7A
:100A6000F90FD8E0E4C9FAE4CCFB2275F010EF2FBF
:100A7000FFEE33FEED33FDCC33CCC833C810D707BF
:100A80009BEC9AE899400AED9BFDEC9AFCE899F8FA
:100A90000FD5F0DAE4CDFBE4CCFAE4C8F922CFF4C8
:100AA000CFCEF4CECDF4CDCCF4CC22EB9FF5F0EA52
:100AB0009E42F0E99D42F0E89C45F022E8600FEC90
:100AC000C313FCED13FDEE13FEEF13FFD8F122E884
:100AD000600FEFC333FFEE33FEED33FDEC33FCD894
:100AE000F122E0FCA3E0FDA3E0FEA3E0FF22E0F89A
:100AF000A3E0F9A3E0FAA3E0FB22ECF0A3EDF0A35E
:100B0000EEF0A3EFF022A8828583F0D083D082128A
:100B10000B1D120B1D120B1D120B1DE473E493A38E
:100B2000C583C5F0C583C8C582C8F0A3C583C5F019
:100B3000C583C8C582C822A42582F582E5F0358325
:100B4000F58322E0FBA3E0FAA3E0F922EBF0A3EAAD
:100B5000F0A3E9F022EC8EF0A4CCC5F0CCCDF8EFF8
:100B6000A4CEC5F02DFDE43CFCE8A42EC8C5F03DA4
:100B7000FDE43CFCEFA4FFE5F028FEE43DFDE43C91
:100B8000FC22E49001A2F09001A2E0FFC394065081
:100B90005A123FFD9001A3EFF060481240DB900134
:100BA000A2E07008A3E0FF12330680379001A2E0B4
:100BB000B40108A3E0FF122BA680289001A2E0B4A4
:100BC0000305123400801C9001A2E0B40205122F2C
:100BD0001580109001A2E0B404047F018002E4FFBC
:100BE0001241299001A2E004F0809C900177E0700E
:100BF00002A3E0601990017774FFF5F012095E908E
:100C00000177E07002A3E0700590017504F01243D3
:100C100033EF601D12433990017EE06F6013124381
:100C20003990017EEFF09001757401F07F0412425B
:100C30001F9001A1E0604E90018FE475F001120950
:100C40005E900181E475F00112095EC3900182E0BB
:100C500094F4900181E094014019E4F0A3F0900134
:100C600080E07F0070027F01900180EFF0900175BD
:100C70007401F0C3900190E0948890018FE0941388
:100C800040031230C990017AE06023900195E47529
:100C9000F00112095EC3900196E09488900195E0FE
:100CA0009413400AE490017AF090017504F0E4FF97
:100CB000FEFDFC900189120AEEC3120AAB6043905C
:100CC0000189120AE2EF24FFFFEE34FFFEED34FF4C
:100CD000FDEC34FFFC900189120AFAE4FFFEFDFCF2
:100CE000900189120AEEC3120AAB701690017CE0E3
:100CF0006004E4FF80027F011238BA7E207FCA12AE
:100D000042A3900176E07003020DA190019B120AAC
:100D1000E2EF2401FFE43EFEE43DFDE43CFC9001F3
:100D20009B120AFAE47F607EEAFDFC90019B120AA6
:100D3000EEC3120AAB401690019B120B0600000096
:100D400000900198E0C3941E5003E004F0900183EA
:100D5000120AE2EF2401FFE43EFEE43DFDE43CFC28
:100D6000900183120AFA7F407E777D1B7C00900100
:100D700083120AEEC3120AAB4027900183120B06BE
:100D8000000000007F0212421F7E207FD7123D84A8
:100D9000900198E0FF7E00122FF77E1F7FFA123D30
:100DA0008412433F900194E06F600EEFF0E49001F5
:100DB0008DF0A3F090017504F0EF6003B4060B9082
:100DC00001A4E4F0A374FAF08017EFB4010C9001D1
:100DD000A47405F0A374DCF08007E49001A4F0A3F0
:100DE000F09001A4E0FCA3E0FD4C603290018DE4A2
:100DF00075F00112095EC390018EE09D90018DE0B7
:100E00009C403FE4F0A3F090017BE07E0070027E06
:100E10000190017BEEF09001757401F08024EF6485
:100E2000036004EFB4040E90017BE0701504F090B1
:100E30000175F0800D90017BE06007E4F090017592
:100E400004F0900192E475F00112095E900175E0E2
:100E5000700FC3900193E09432900192E0940040AF
:100E60000EE4900192F0A3F0900175F012142B2281
:100E70009001B6EFF0A3EDF0A3EBF0E49001A1F048
:100E800090017AF0900176E09001C2F0900188E044
:100E90009001C3F0900199E0FF9001C4F09001BC73
:100EA000E0FE6F601A900199EEF060067E207F4CA4
:100EB00080047E207F411242A39001757401F0905E
:100EC0000199E060219001BAE0FF123A419001C11E
:100ED000EFF09001BBE0602A9001C1E0C39458504C
:100EE00021E004F0801C9001BAE09001C1F0C394AD
:100EF0001050037410F09001C1E0D3941F400374AC
:100F00001FF0900188E0FF9001C1E0FE6F602F901C
:100F10000188EEF07E207F11123D84900188E0FF71
:100F20007E00122FF7900199E060067E207F1980E5
:100F3000047E207F1D123D849001757401F09001A4
:100F4000C2E06019A3E0FF900188E0B5070C9001B2
:100F5000C4E0FF900199E06F60031241A69001B7D1
:100F6000E0604D9001A0E0FF9001B8E0FE6F6040AE
:100F7000EFB40108900174E0900179F0EEB4010D36
:100F8000900179E0900174F0E4900179F09001A073
:100F9000EEF07E207F60123D849001A0E0FF7E0095
:100FA000122FF77E1F7FFA123D849001757401F0B5
:100FB0009001B9E0FFD39402503B9001A0E064019E
:100FC0006033900179E0FEEF6E602A9001B9E09005
:100FD0000179F0900174F07E207F57123D849001DA
:100FE00079E0FF7E00122FF77E1F7FFA123D84907A
:100FF00001757401F01242419001BDE0B40324E494
:10100000FFFEFDFC900189120AEEC3120AAB606874
:10101000900189120B06000000007E207F21124201
:10102000A3804F9001BDE0FF64016005EF64027092
:10103000479001BEE0FFE4FCFDFE7B807AEE79364E
:10104000F8120981900189120AFA9001BDE07F002F
:10105000B401027F0190017CEFF07E207F2B123DD6
:10106000849001BEE0FF7E00122FF77E207F3412B5
:101070003D849001757401F0900176E0FE9001B618
:10108000E0FF6E60031238BA9001BFE07F0060029B
:101090007F019001BFEFF090019AE06F6026900110
:1010A000BFE090019AF07E207FB8123D8490019AB3
:1010B000E0FF7E00122FF77E1F7FFA123D84900121
:1010C000757401F09001C0E07F0160027F00900123
:1010D0009FE06F6020EFF07E207FC1123D84900181
:1010E0009FE0FF7E00122FF77E1F7FFA123D849053
:1010F00001757401F07F0102421FE090004FFF75FF
:10110000F002120B37E0FCA3E0FDEF90001975F040
:1011100002020B37F582E43400F583E4F0745B2FB0
:10112000F582E43400F583E4F0900031EF75F002CD
:10113000020B379001A3E075F002900031120B37DB
:10114000E0FCA3E0C39FEE6480F8EC648098229EEC
:10115000FEC39001A5E09FEE6480F89001A4E064D6
:1011600080982274252FF582E43400F583229001C3
:10117000A3E0FF75F002900001020B37F583E4F065
:10118000FFFEFDFCAB15AA14A913A812C3020AABFB
:101190009001A4E0FD90004F75F002020B37900122
:1011A000A7E0FFC3951A22F583E004F0740D2FF534
:1011B00082E43400229001A3E0242BF582E4340081
:1011C000F583229001A3E0245BF582E43400F583EB
:1011D000229001A6E0C3940374809480227D0A12B9
:1011E0000909AD037C001208F79001ACE0FD900006
:1011F00001229001A3E0FF243DF582E4340022E0C7
:10120000FCA3E0FD75F002EF90004F120B37ECF0FD
:10121000A3EDF022E5155519FFE5145518FEE51369
:101220005517FDE5125516229001A7E004F0227E25
:1012300000900229E0FCA3E0FD1208F78EE78FE69C
:1012400022E0FEA3E0C39DFFEE9C2290004EE0FF53
:101250003395E0FE22A4FFE0C39FE5F06480F874BC
:101260008098229001A67401F0229001A3E0FF244F
:101270000DF582E434002290004EE0FB3395E0FA55
:10128000FEEB22E0FF9001A8E0FEEFC39E229FEE5E
:101290006480F8EA648098229001A2E0FF9002271F
:1012A000E02290004BE0FF30E70F547FF0121983EB
:1012B0009001F7120AFA12435FE4FB9001F7120A59
:1012C000E2EB90000F93F9F8120ABCEF5401FFEF24
:1012D00070030213DDEB25E024FBF582E43401F515
:1012E00083E0FEA3E0C39460EE94EA5013EB25E0A4
:1012F00024FBF582E43401F583E475F00112095E04
:10130000EB25E024FBF582E43401F583E0FEA3E065
:1013100064014E703DEB6403600EEB64026009EB08
:1013200064046004EBB4050D74F12BF582E4340120
:10133000F5837401F0EBB4011924F1F582E4340172
:10134000F583E0700D74F12BF582E43401F58374BC
:1013500001F0EB25E024FBF582E43401F583E0FEA7
:10136000A3E064B87003EE640B702D74EB2BF58270
:10137000E43401F583E0702074EB2BF582E4340152
:10138000F5837401F0EB6003B4010D74F12BF58269
:10139000E43401F5837402F0EB64046005EB64054A
:1013A000707FEB25E024FBF582E43401F583E0FE59
:1013B000A3E0FFC39490EE94014066EF2470FFEE2B
:1013C00034FEFE7C007DC8120909ED4C705374F1A7
:1013D0002BF582E43401F5837403F08044EB70252F
:1013E000EB25E024FBF582E43401F583E0FEA3E085
:1013F000C39428EE9400400D74F12BF582E434017F
:10140000F5837401F0EB25E024FBF582E43401F56B
:1014100083E4F0A3F074EB2BF582E43401F583E46C
:10142000F00BEB640660030212BB22E49001A6F00D
:10143000A3F0A3F0A3F0A3F0FFFEFDFC900189123E
:101440000AEEC3120AAB60069001A87401F0900185
:1014500076E0600C900197E060069001A97401F0BD
:101460009001A1E0601B9001A87401F0900180E060
:1014700070030215279001A67401F090017F0215F8
:101480000590017AE060369001A87401F09001891E
:10149000120AE2EF247FFFEE34EEFEED3436FDE477
:1014A0003CFC7B807AEE79367800120A0CEF7002F1
:1014B0007F019001A67401F0A3EFF0806A9001769D
:1014C000E06064900197E0701A900187E0FFB40635
:1014D000089001A97402F0800AEFB407069001A9F0
:1014E0007403F09001A9E0FF64026036EFB40302D8
:1014F0008030900177E07002A3E060109001A67444
:1015000001F0900188E09001A7F0801B124333EFB7
:1015100060109001A67401F01236D39001A7EFF08D
:101520008005E49001A6F09001A1E0700690017A98
:10153000E060069001AA7401F09001A9E0FF640246
:101540006009EF64036004EFB401069001AA74011E
:10155000F090019FE0FFFE9001AAE06004E4FE80AD
:1015600008EF6005E49001A6F0900176E0FFAD067B
:101570009001A0E0FB900179E09001AEF09001A60F
:10158000E09001AFF09001A7E09001B0F09001A8C9
:10159000E09001B1F090017BE09001B2F0A3EEF099
:1015A0009001A9E09001B4F00215AB9001ABEFF00F
:1015B000A3EDF0A3EBF07B017A0179B5123F8A909D
:1015C00001B4E0FC640170237B017A0179B59001DC
:1015D000CB7409F090000E1236A27B017A0179B526
:1015E0009001CB7406F090000E8033EC640270140E
:1015F0001236937B017A0179B59001CB7406F09095
:101600000004801A9001B4E0640370151236937BD5
:10161000017A0179B59001CB7406F0900005E48061
:10162000539001AFE06056A3E0FFC39464504EEFC7
:10163000FB7C007D0A7E001209099001C5EFF07C59
:10164000007D0AAF037E00120909AC057B017A0117
:1016500079B59001CB7409F09001C5E090000312B8
:1016600036A37B017A0179B59001CB7406F0AF0403
:10167000EF900003939001CCF01D1236AA9001ABBD
:10168000E06064A3E07060A3E0FD70099001B5E044
:101690004404F08021EDB401099001B5E04410F05C
:1016A00080149001ADE09001B6B40206E04408F069
:1016B0008004E04402F09001AEE0FD70099001BFAB
:1016C000E04404F08021EDB401099001BFE0441032
:1016D000F080149001AEE09001C4B40206E0440230
:1016E000F08004E04408F09001B1E060079001B69A
:1016F000E04410F09001B2E060079001BFE04402C6
:10170000F09001B3E09001C660057488F080037426
:101710008FF07B017A0179B59001C6E0FD02353387
:101720009001A2EFF090022D1211D4403EE4F0900F
:101730000061E0702B9001A3F09001A3E0C3951A23
:10174000501EE0FF121195E0FCA3E0FD75F002EFE2
:10175000121176ECF0A3EDF09001A3E004F080D933
:1017600012387FC201E4900061F022900227E00469
:10177000F0121298B50708124172E4900228F01294
:101780001298D39F5003021851E49001A3F09001E6
:10179000A3E0C3951A507A1210FA121241AD07FC59
:1017A000900061E0702E1212777802C333CE33CEF0
:1017B000D8F9FFD3ED1211454046E49BFFE49AFEB1
:1017C000EF7802C333CE33CED8F9FFC3ED12114503
:1017D000502E803D1212777803C333CE33CED8F922
:1017E000FFD3ED1211454018E49BFFE49AFEEF7819
:1017F00003C333CE33CED8F9FFC3ED1211454011E8
:101800009001A3E0FF1220E89001A3E004F002178A
:101810008E9001A3E0B51A06900228E004F0900132
:10182000A2E0FD75F0089002271212554023E4F063
:10183000C20090022DE004F0ED75F0049002281231
:101840001255400DE490022DF0123F2F12387FC246
:1018500001229001ABEFF09001B0E07002A3E070C4
:1018600003021982ED64027025C39001B1E0940473
:101870009001B0E094004016900002120896FE908D
:101880000003120896FDEDFF9001B2EE80081208E9
:101890007DFF9001B2E4F0A3EFF09001ABE0B40162
:1018A000169001B2A3E0FF12414E124303AD077F31
:1018B00001123C7F0242819001ABE0B4021490011E
:1018C000B2A3E0FF1231911241B7EFFD7C007F021D
:1018D000807A9001ABE0B404129001B2A3E0FF1251
:1018E0002D2A123FA7AD077F0480309001ABE0B4F2
:1018F00005129001B2A3E0FF12375312430FAD0758
:101900007F0580179001ABE0B413139001B2A3E000
:10191000FF12399E12431BAD077F13023E8B9001CD
:10192000ABE0641870299001B2A3E0FF1231F0120D
:10193000431BEF600B1243157E007C00AD07800A4D
:101940009001B2E0FEA3E0AC06FD7F18023CAB9034
:1019500001ABE0B419129001B2A3E0FF123D2E12C8
:101960004321AD077F1980179001ABE0B478139045
:1019700001B2A3E0FF123B0E124327AD077F78129E
:101980003C7F22E4F509F511F510F50FF50E124331
:10199000625003021A9C123B9E8F0D8E0C8D0B8C95
:1019A0000AE4F508E508C3951A505CE50D5401FFFB
:1019B000E4FEFDFCFBFAF9F8C3120AAB6030E47FE9
:1019C00001FEFDFC74132508F582E43400F583E084
:1019D000F9F8120ACFE5114FFFE5104EFEE50F4D65
:1019E000FDE50E4C8F118E108D0FF50E0509AF0D14
:1019F000AE0CAD0BAC0A7801120ABC8F0D8E0C8DAB
:101A00000B8C0A0508809DE509C394024015D2009D
:101A1000E5099403400512436580081242F3EF6024
:101A200002C200200028E4FFFEFDFCAB11AA10A9B1
:101A30000FA80EC3120AAB600C90004CE475F001C5
:101A400012095E801CE490004CF0A3F0801390001B
:101A500049E475F00112095EE4F511F510F50FF592
:101A60000E12428DD390004DE09F90004CE09E40BE
:101A70000A124365E490004CF0A3F0D390004AE0D2
:101A8000942C900049E09401401D12436590006140
:101A90007401F0E4900049F0A3F0800B904378E4E7
:101AA000740193FF121720AF11AE10AD0FAC0E22D0
:101AB000AD079000FAE0FF7014ED64556003021B5F
:101AC000D29000F8EDF09000FA7401F022EFB4012A
:101AD0001CEDB4AA0D9000F8E02DF09000FA74020D
:101AE000F022ED64557003021BD2021BCD9000FA68
:101AF000E0FFB402129000F6EDF09000F8E02DF057
:101B00009000FA7403F022EFB403129000F0EDF0AD
:101B10009000F8E02DF09000FA7404F0229000FAA2
:101B2000E0FCB40415ED9000F2F0A3E4F09000F8AE
:101B3000E02DF09000FA7405F022EC6405703FEDA2
:101B4000FF9000F2E0FEA3E04FFF9000F2EEF0FE07
:101B5000A3EFF09000F8E02DF0E49000F4F0A3F093
:101B6000D3EF9420EE9400400280629000F2E07087
:101B700002A3E09000FA700280457406F022900003
:101B8000FAE0B4063E9000F4E0FEA3E02413F582F0
:101B900074013EF583EDF09000F8E02DF09000F434
:101BA000E475F00112095E9000F2E0FEA3E0FFC3CD
:101BB0009000F5E09F9000F4E09E40169000FA74CB
:101BC00007F0229000F8E0B50503121EF1E4900042
:101BD000FAF022900220E475F00112095EC390022F
:101BE00021E09464900220E094005003021CECE495
:101BF000900220F0A3F01236509001A2EEF0A3EF75
:101C0000F0F47002EEF460179001A2E0FEA3E0FF92
:101C1000C3EE94024009D3EF9480EE940C402490DC
:101C20000223E06003021CEC04F07E307F73123D5F
:101C3000849001A2E0FEA3E0FF122FF77E307F70B8
:101C4000023D84E4900223F090021FE070159001A1
:101C5000A2E0FFA3E090021DCFF0A3EFF0A3740178
:101C6000F0803690021DE0FEA3E0FF7C007D0712AD
:101C70000B55A804A905AA06AB079001A2E0FEA394
:101C8000E0FFE4FCFD120974E47B08FAF9F8120A9B
:101C90000C90021DEEF0A3EFF0900226E0701612F9
:101CA000357B900222EFF09002267401F0E490025E
:101CB00024F0A3802B900224E475F06412095EC323
:101CC000900225E094E8900224E09403401EE49002
:101CD0000224F0A3F012357B900222E06F600DEF3A
:101CE000F090021DE0FEA3E0FF123AAA2249522022
:101CF000657874726120433D0020453D0020463DDB
:101D00000020473D000D0A0049522064726F702088
:101D10007379733D004952206261642073756D20B0
:101D2000676F743D00206578703D00495220746DE6
:101D30007220626F746820443D00495220746D72B5
:101D4000206F66662D6D696E206F6E6C790D0A00CE
:101D5000495220746D72206F6E2D6D696E206F6E0A
:101D60006C790D0A004952206F6B206269746F72A2
:101D70006465723D006D7362006C73620020703D9B
:101D800000206D626974733D002066626974733D62
:101D90000020413D004952206175746F2F756E6BB4
:101DA0006E6F776E206D6F64652069676E6F726508
:101DB0000D0A0049522066616E3D6F6666206B65B4
:101DC00065700D0A00495220756E69743D00460029
:101DD000430020462B310049522066616E2B312092
:101DE000666C6167206C6F672D6F6E6C790D0A00F1
:101DF00012425B1242097B017A0179A2123ED0EFB6
:101E00006028900110E0701804F07E267FF3123DE8
:101E1000849001A2E0FF1237CD7E267FD5123D844B
:101E20009001A2E0FF121AB080CC900110E0706720
:101E3000C390010FE0946090010EE094EA5007E433
:101E400075F00112095E90010EE064077004A3E0D2
:101E500064D070437E267FFC123D84A2A0E4FE3352
:101E6000FF122FF77E277F0B123D84A2A1E4FE33E1
:101E7000FF122FF77E277F11123D84A2A6E4FE33C6
:101E8000FF122FF77E277F17123D84AF981237CDB0
:101E90007E267FD5123D849000F9E06031900111DB
:101EA000E475F00112095EC3900112E0942C9001D8
:101EB00011E094014018E4F0A3F0123DD3900133F7
:101EC000E004F0E0C394064005E49000F9F012420B
:101ED000DB9001A3EFF030E00302286B9001A3E058
:101EE00030E1031242819001A3E030E203123F107F
:101EF000229000F6E0FF600764036003021FED908C
:101F000000F0E0703190010CE0700904F07E267F53
:101F1000C2123D849000F7E07F0060027F019001D3
:101F2000A4EFF09000F77401F0FB7A0179A490011E
:101F3000B8F0E4FF80249000F0E0B401097C277D34
:101F40001E7F010224E99000F0E0B402107B017AC8
:101F5000017913E49001B8F07F020227DA9000F0D3
:101F6000E0640370619000F2E07002A3E0603290E0
:101F70000113E0FF90010DF09000F1E0FEEF6E60C4
:101F80002090010DE09000F1F07E267FCC123D8480
:101F900090010DE0FF7E00122FF77E267FD5123DC7
:101FA000847B017A017913E49001B8F07F03122752
:101FB000DA90010DE0FFD394014005EF6406702D27
:101FC000E49000F9F0229000F0E0B4040CE49000FA
:101FD000F9F07E267FD8023D849000F0E0B406033D
:101FE0000222B79000F0E0B4080312286B22484D9B
:101FF00049207363723D300D0A000D0A00484D49B7
:10200000207077723D3100484D49207077723D3025
:1020100000484D492074733D00460D0A00430D0AE7
:1020200000484D4920746D723D3000484D49207480
:102030006D723D00680D0A00484D49207769666958
:1020400000484D4920756E69743D4300484D492054
:10205000756E69743D4600484D492066616E3D00CD
:10206000484D49206D6F64653D00484D4920746DB1
:1020700072206564697400484D4920703D00206DF0
:102080003D0020663D002074733D00460043002063
:10209000746D723D0020773D00207361763D002015
:1020A000736C703D00207573653D00206C6F737418
:1020B0003D0020666C743D00484D4920736C703DB6
:1020C00000484D49207363723D00484D4920746DAE
:1020D0007220646F6E6500484D49207573653D0040
:1020E00001020300010300029001A4EFF0F91210B5
:1020F000FA1212419001A5F0A3EFF0AF01123CD704
:10210000AD07AC069001A5E0FEA3E0FFD39DEC6413
:1021100080F8EE6480985014C3E49DFBE49CFAC3FD
:10212000EF9BEA6480F8EE648098500E9001A4E082
:10213000FF12110B1211FF0221CCECA2E713FEEDEE
:1021400013FF9001A5E0FAA3E0FBD312128E501604
:10215000ECA2E713FEED13FFC3E49FFFE49EFEC372
:10216000EB12128E5023121190E0FAA3E0FBEAC3A7
:1021700013FEEB13FFC3EB9FFBEA9EFAED12110B6C
:10218000E0C313FEA3E0138032121190E0FAA3E043
:10219000FBAE027803CEC313CE13D8F9FFC3EB9F77
:1021A000FBEA9EFA75F002ED900019120B37E0FE83
:1021B000A3E07803CEC313CE13D8F92BFFEA3EFE7B
:1021C0009001A4E0121195EEF0A3EFF09001A4129B
:1021D00010FAECF0A3EDF0227E207F77123D849080
:1021E0000176E0FF7E00122FF77E207F7E123D8475
:1021F0009001A0E0FF7E00122FF77E207F82123D2B
:1022000084900179E0FF7E00122FF77E207F8612F6
:102210003D84900188E0FF7E00122FF7900199E045
:1022200060067E207F8B80047E207F8D123D847E21
:10223000207F8F123D847B807AEE79367800900182
:1022400089120AE2120A0C122FF77E207F95123DA6
:1022500084900194E0FF7E00122FF77E207F991278
:102260003D8490019FE0FF7E00122FF77E207F9F2C
:10227000123D8490019AE0FF7E00122FF77E207FAE
:10228000A5123D84900198E0FF7E00122FF77E207A
:102290007FAB123D84900197E0FF7E00122FF77E06
:1022A000207FB2123D84900187E0FF7E00122FF75D
:1022B0007E1F7FFA023D84E49001A5F0A3F0900117
:1022C000A6E02404FF9001A5E03400FE9000F2E0B7
:1022D000FCA3E0FDC39FEC9E50030223929001A556
:1022E000E0FEA3E0FF2413F58274013EF583E09045
:1022F00001A9F074142FF58274013EF583E090017A
:10230000AAF09001A5E0FAA3E0FB2415F582740180
:102310003AF583E0FE74162BF58274013AF583E0FA
:10232000FBEBFF9001A7EEF0A3EFF09001A6E024F5
:1023300004FB9001A5E03400CB2FFFEB3EFEC3ED84
:102340009FEC9E404D9001AAE0FD9001A5E0FEA308
:10235000E02417F974013EFA7B01A3E0FFA3E090AB
:1023600001B0CFF0A3EFF09001A9E0FF1218529056
:1023700001A6E02404FF9001A5E03400FE9001A82E
:10238000E02FFF9001A7E03E9001A5F0A3EFF0023F
:1023900022BE22E49001A2F0A3F0A3F0A3F0A2A039
:1023A000339001A8F0A2A1E433A3F0E49001A6F0D9
:1023B000A3F0E4F58A758C83C28DD28C208D3BA26C
:1023C000A0E433FF9001A8E06F600F9001A2E475D4
:1023D000F00112095E9001A8EFF0A2A1E433FF9092
:1023E00001A9E06F600F9001A4E475F00112095E8D
:1023F0009001A9EFF012434A80C2C28CC28D9001B5
:10240000A6E475F00112095EC39001A7E094509014
:1024100001A6E09400409B7E417FC8123D8490015C
:10242000A2E0FEA3E0FF122FF77E417FD1123D8490
:102430009001A4E0FEA3E0FF122FF77E417FD602B9
:102440003D84E4900176F09001A0F090017904F0D1
:10245000900174F0900199F09001887448F0E49034
:10246000019FF09001A1F090017AF0900189120B88
:102470000600000000E490017CF090017BF09001E8
:102480008DF0A3F090019474FFF09001807401F03E
:10249000E4A3F0A3F090017DF090018FF0A3F09001
:1024A0000195F0A3F0900192F0A3F090017504F073
:1024B000E4900197F0900187F0900177F0A3F090FD
:1024C000017E74FFF0E490019AF0A3120B06000065
:1024D0000000E4900198F0900183120B06000000C8
:1024E00000E4900191F002142B9001A5EFF0A3EC11
:1024F000F0A3EDF0E49001A9F08D828C83E4936069
:102500000D9001A9E004F00DBD00010C80EB12401C
:10251000967FAA12409D7F0312409D9001A5E0FF87
:1025200012409DE4FF12409D9001A9E0FF12409DE2
:102530009001A5E02402FF9001A9E02F9001A8F0EE
:102540009001A6E0FEA3E0F5828E83E493FF602372
:1025500012409D9001A6E0FEA3E0F5828E83E493F5
:10256000FF9001A8E02FF09001A6E475F001120998
:102570005E80CD9001A8E0FF12409D9000FBE060DE
:10258000077E267FB6123D8422787FE4F6D8FD9040
:1025900000007F007E20E4F0A3DFFCDEFA758127D7
:1025A0000225DE023BCDE493A3F8E493A34003F6B7
:1025B0008001F208DFF48029E493A3F85407240C87
:1025C000C8C333C4540F4420C8834004F456800168
:1025D00046F6DFE4800B01020408102040809042A0
:1025E000D2E47E019360BCA3FF543F30E509541F41
:1025F000FEE493A360010ECF54C025E060A840B86C
:10260000E493A3FAE493A3F8E493A3C8C582C8CAE9
:10261000C583CAF0A3C8C582C8CAC583CADFE9DEBC
:10262000E780BE505752207478002073756D3D00CE
:10263000206375723D6E74630D0A00206375723DF0
:102640007365740D0A00505752206C6F73740D0A35
:1026500000505752206F6B0D0A005057522072786D
:10266000207665723D0020747970653D00206661BA
:10267000756C743D000D0A00505752205553434964
:102680003220343830302050342E342F50342E3510
:1026900020706572696F643D3135306D73206375EC
:1026A000723D73657420756E74696C204E54430DD1
:1026B0000A000300020157494649207478746F0DDF
:1026C0000A00574946492068620D0A0057494649A1
:1026D0002073743D000D0A005749464920727374F7
:1026E000206F6B0D0A005749464920726573657467
:1026F0000D0A00574946492072783D00574946491E
:10270000206E6F7278207032303D00207032313D83
:1027100000207032363D002073636F6E3D007B22D7
:1027200070223A2275666F726C796E6C676A3578C2
:1027300078337A67222C2276223A22312E302E30BC
:10274000222C226D223A327D001243039001A5EF24
:10275000F01243099001A6EFF012430F9001A7EF8A
:10276000F01241B79001A6E0D394034002E4F09048
:10277000008F7466F0A37499F0EF2428A3F012433D
:1027800033EF600C124339EF2428900092F080065A
:10279000900091E0A3F09001A5E0FF9001A7E0FD7B
:1027A0001242C9EFC454F0FF9001A6E09026B29304
:1027B0004F900093F09001A5E05401900094F07FB9
:1027C0000E900095E4F0A3DFFC7B017A00798F7D09
:1027D00014123EAE9000A3EFF0229001B4EFF0A3EC
:1027E000120B4C1240967FAA12409D7F0312409D0F
:1027F0009001B4E0FF12409DE4FF12409D9001B8AB
:10280000E0FF12409D9001B4E02402FF9001B8E087
:102810002FA3F0E4A3F09001B8E0FF9001BAE0FE2E
:10282000C39F50319001B5120B438E827583001205
:102830000896FF12409D9001B5120B439001BAE03B
:10284000F582758300120896FF9001B9E02FF0A37E
:10285000E004F080C19001B9E0FF12409D9000FBC0
:10286000E060077E267FB6123D842212431B900152
:10287000A5EFF0124303AD077F01123C7F1241B771
:10288000EFFD7C007F02123CAB123F10123FA7AD60
:10289000077F04123E8B12430FAD077F05123E8B5C
:1028A0009001A5E0FD7F13123E8B1240EF123E67B0
:1028B0009001A5E06009124315EFFD7C00801F1216
:1028C00041B77E007C007D091208F7EF2402FFE487
:1028D0003EFE7D05120909EF2420FDE43EFC7F1831
:1028E000123CAB124321AD077F19123C7F124327E4
:1028F000AD077F78123C7F024281EF7033C3ED94C5
:102900008CEC94004012D3ED94F0EC9400500975D7
:102910002601E4F521F52722E5266065C3ED94063E
:10292000EC9400405CD3ED9418EC94004056805138
:10293000E5266050E5217012C3ED943CEC94004014
:1029400009D3ED948CEC9400403AE521C39478408F
:1029500003023B6FC3ED9406EC9400400DD3ED945D
:1029600012EC94005004E4FF8014C3ED9418EC942E
:1029700000400ED3ED9432EC940050057F010235F7
:10298000C312427522C2AF75FEC1AFFFD2AFEF5482
:1029900030FD7C0070047920801CED64104C7004C4
:1029A00079108012ED64204C700479088008ED6481
:1029B000304C70027904E924F8601824F86020246F
:1029C000F06028241C70309001A47401F0A374F40A
:1029D000F080269001A47403F0A374E8F0801A90AC
:1029E00001A47407F0A374D0F0800E9001A4740FBA
:1029F000F0A374A0F08002E4F99001A4E07002A3B7
:102A0000E0600C9001A474FFF5F012095E80EA22E8
:102A100075FE8543FF2053DB7FD2AFC201E49002F5
:102A20002EF090004BF012349CE4FF123ADCEF24BD
:102A300001FDE433FC7E0F7FA0120909900229EE0C
:102A4000F0A3EFF0E4FF12416012122F7F02123A5E
:102A5000DCEFC454F0FEC006E4FF123ADCD0E02FF5
:102A6000F5E17F03123ADCE5E254804FF5E27F04A2
:102A7000123ADCEF6008E5E254804480F5E27F0121
:102A8000123ADC8FE312387F43A910900013E04420
:102A900080F5E8122E9F023F2FC0E0C083C082C0A5
:102AA000D075D000C000C003C004C005C006C00778
:102AB000758BC0758DF9A2B2E433FB65227039C302
:102AC000E52494D0E523940750080524E5247002FA
:102AD0000523EB6036C3E5249450E5239400402B96
:102AE000E5266027E52194784005123B6F801CE5C0
:102AF0002160181242758013AD24AC23AF22122836
:102B0000FAAF038F22752300752401D007D006D0B9
:102B100005D004D003D000D0D0D082D083D0E03212
:102B2000900003120896FF9001B6F090000512087D
:102B3000969001B7F09000061208969001B8F090B8
:102B400000071208969001B9F0EF5401701490013B
:102B5000B7E0543B700CA3E054E77006A3E0547F49
:102B600060437E1C7FED123D849001B6E0FF12377A
:102B7000CD7E1C7FF9123D849001B7E0FF1237CD66
:102B80007E1C7FFD123D849001B8E0FF1237CD7EA0
:102B90001D7F01123D849001B9E0FF1237CD7E1DEB
:102BA0007F05123D84229001A6EFF06402703790F9
:102BB0000176E07072900199E09001886012E0FF68
:102BC000123A0BEFF0E4900199F07E207F418011E2
:102BD000E0FF123A41EFF09001997401F07E207FFE
:102BE0004C1242A3803E9001A6E06401703990012E
:102BF00076E060339001A0E06401602B900179E001
:102C00009020E093900179F0900174F07E207F573E
:102C1000123D84900179E0FF7E00122FF77E1F7F26
:102C2000FA123D8412421822122749E49001A4F0BE
:102C30009001A4E0FFC394155017748F2FF582E420
:102C40003400F583E0FF1237909001A4E004F08097
:102C5000DFE4FF900064E0FE900091E0FDB5062403
:102C6000900065E0FE900092E0B50618900066E0E6
:102C7000FE900093E0B5060C900067E0FE90009493
:102C8000E06E601F7F01900064EDF0900092E09094
:102C90000065F0900093E0900066F0900094E09062
:102CA0000067F0EF600312335D229001ACEFF01289
:102CB00042689001ADEFF0122D1F90022AE025E04E
:102CC000FF900229E033FE7C001211DD12110EE0AC
:102CD000FAA3E0C39FEA9E50099001ADE0603F1463
:102CE000802D122D1F900229E0FEA3E0FF7C007DC5
:102CF000071208F71211DD12112DE0FAA3E0D39F9D
:102D0000EA9E401A9001ADE0FF647E6011EF04FF7F
:102D100074432DF582E43400F583EFF0D201229064
:102D200001ACE0FF124160EFFB22EF70079001B4AD
:102D300004F08022EFB401089001B47403F080160F
:102D4000EFB40207E49001B4F0800BEF6403705617
:102D50009001B47402F09001A0E0FF9001B4E0FE95
:102D60006F6043EFB40108900174E0900179F0EED8
:102D7000B4010D900179E0900174F0E4900179F0D4
:102D80009001A0EEF01242417E207F60123D8490BF
:102D900001A0E0FF7E00122FF77E1F7FFA123D8414
:102DA0009001757401F0227B017A00796E7D20120A
:102DB0003EAE90008EE06F706AE49000A6F0A3F043
:102DC000FF123C53900070E09000A9F0900071E079
:102DD0009000A8F0900077E0FF90006DF01241F9AC
:102DE0009000A57401F090006BE0FF9000A9E0FE58
:102DF000B5071890006AE0FF9000A8E0B5070C90B6
:102E00000069E0FF90006DE06F601890006BEEF0DD
:102E10009000A8E090006AF090006DE0900069F0EA
:102E20001238F422900188E0FEFD900199E0601DC7
:102E3000EF600CEEC394585006900188E004F0EF68
:102E40007029900188E0D3943D4020801BEF600CF6
:102E5000900188E0C3941F5003E004F0EF700C90E1
:102E60000188E0D394104003E014F0900188E06DF5
:102E7000602C7E207F11123D84900188E0FF7E004F
:102E8000122FF7900199E060067E207F1980047E62
:102E9000207F1D123D841241A67F0112421F229005
:102EA00001A27420F0123E1EE49001A3F09001A351
:102EB000E0FFC3951A5021E0FE12110BE0FCA3E0E5
:102EC000FD75F002EE121176ECF0A3EDF0122CAAD3
:102ED0009001A3E004F080D59001A2E0FF14F0EF90
:102EE00070C31241721242EB9001A2EFF0123E1E2B
:102EF000E49001A3F09001A3E0FFC3951A500B12D8
:102F000020E89001A3E004F080EB9001A2E0FF1420
:102F1000F0EF70D9229001A1E060030230C9900166
:102F20007AE06015900189120B0600000000E49021
:102F3000017AF07E207F218044E4FFFEFDFC9001B9
:102F400089120AEEC3120AAB601390017A7401F081
:102F5000E4900195F0A3F090017504F0229001A196
:102F60007401F090017FF0E490018FF0A3F09001E4
:102F700081F0A3F090018004F07E207F6A1242A3CA
:102F80009001757401F022E49001A3F07B017A01B5
:102F900079A2123C27EF60149001A2E0FF12312DBC
:102FA0009001A3E004F0E0C3941040E0900062E4DC
:102FB00075F00112095EC3900063E0949690006280
:102FC000E094004007E4F0A3F0122C28C39000A77F
:102FD000E094889000A6E09413501BE475F0011271
:102FE000095EC39000A7E094889000A6E094134087
:102FF000057F01123C53229001C5EEF0A3EFF04E85
:1030000070057F30023BFBE4FB9001C5E0FEA3E0CE
:10301000FF4E602F7C007D0A120909AE030B74C7B6
:103020002EF582E43401F583EDF09001C5E0FEA3B6
:10303000E0FF7C007D0A1209099001C5EEF0A3EFC4
:10304000F080C69001CCEBF09001CCE0601514F05C
:10305000E024C7F582E43401F583E02430FF123B1D
:10306000FB80E5224E544320633D002061643D0017
:103070000D0A004E544320626164206164633D0088
:1030800028292B2C2E3031333536383A3C3E4042FD
:103090004446484A4C4E50525456585A5D5F6163FC
:1030A00065686A6C6E70737577797B7E80828486C2
:1030B000888A8C8E91939596989A9C9EA0A2A4A59E
:1030C000A7A9ABACAEB0B1B3B490017FE0701390E0
:1030D0000189120B06000000007E207F211242A30E
:1030E000803990017FE0FFE4FCFDFE7B807AEE7981
:1030F00036F8120981900189120AFA900176E0905F
:10310000017CF07E207F2B123D8490017FE0FF7ECA
:1031100000122FF77E207F34123D84E49001A1F04D
:1031200090017AF090017504F0FF02421F90006C4C
:10313000E0FE7011EF6455705790006EEFF0900054
:103140006C7401F022EE6401701FEFB45A0C900011
:103150006FF09000A47402F0800AEFB4550590005F
:103160006EF022E490006CF0229000A4E0246EF552
:1031700082E43400F583EFF09000A4E004F0E0C3B3
:103180009421400C122DA7E490006CF09000A4F064
:1031900022EFC3941050027F10EFD3941F40027FA0
:1031A0001F900199E06005123A4180009001B4EF50
:1031B000F0900188E0FF9001B4E0FE6F6031900173
:1031C00088EEF07E207F11123D84900188E0FF7E22
:1031D00000122FF7900199E060067E207F1980048D
:1031E0007E207F1D123D841241A67F0112421F22C4
:1031F000EFC3943D50027F3DEFD3945840027F5877
:10320000900199E060028003123A0B9001B4EFF054
:10321000900188E0FF9001B4E0FE6F60319001887A
:10322000EEF07E207F11123D84900188E0FF7E0049
:10323000122FF7900199E060067E207F1980047EAE
:10324000207F1D123D841241A67F0112421F22E4FD
:10325000F509F50AF50E750D05750CA4750B10F53D
:1032600009E50E5401FFE4FEFDFCFBFAF9F8C31278
:103270000AAB60177413250AF582E43400F583E580
:1032800009F0050AE50AC39406501CAF0EAE0DAD59
:103290000CAC0B7801120ABC8F0E8E0D8D0C8C0BB2
:1032A0000509E509B41FBA850A1A22C20290022E46
:1032B000E012110BE5E5F0A3E5E4F090022EE00446
:1032C000F0E0C3951A400BE4F090004BE04480F02E
:1032D0008002D20290022EE0FF12416012122F9063
:1032E000022EE0FF124268E5E254804FF5E29002C0
:1032F0002EE02413F582E43400F583E04480F5E801
:10330000300202D2EE229001A6EFF0BF021D900122
:1033100076E0704812401890017D7401F07E207FA5
:10332000381242A39001757401F0229001A6E06466
:1033300001702990017DE06003E4F022900176E0C5
:10334000900189600B120B0600000000E4FF800969
:10335000120B06000000007F011238BA227E267F81
:1033600023123D84E49001A5F07F20123BFB9001E5
:10337000A5E0248FF582E43400F583E0FF1237CD19
:103380009001A5E004F0E0C3940640DD7E267F2A8C
:10339000123D849000A3E0FF1237CD124333EF605B
:1033A000067E267F3080047E267F3B123D84227F6E
:1033B0001590008FE4F0A3DFFCE490006CF0900027
:1033C000A4F0900068F09000AAF09000A5F09000A2
:1033D0006474FFF0A3F0A3F0A3F090006BF09000F2
:1033E0006AF0900069F0E4900062F0A3F09000A60B
:1033F000F0A3F0123DF97E267F78123D84022C283E
:10340000900176E060479001A0E0FF9020E493FEF9
:10341000EFB40108900174E0900179F0EEB4010D71
:10342000900179E0900174F0E4900179F09001A0AE
:10343000EEF07E207F60123D849001A0E0FF7E00D0
:10344000122FF77E1F7FFA123D84124218227B0151
:103450007A02790B7D0E9001B6120B4C9001B9EDFA
:10346000F0E4FFFEA3F09001B9E0FDA3E0FCC39DF2
:1034700050299001B6120B438C8275830012089676
:10348000FDC4540F2FFFE43EFEED540F7C002FFFD0
:10349000EC3EFE9001BAE004F080CB2290436E74C3
:1034A0000193900000F090438874019390004EF0D7
:1034B00012324FE4F508E508C3951A5023E5087564
:1034C000F008A4248EF582E43443F583E493FF747A
:1034D000432508F582E43400F583EFF0050880D633
:1034E000E490004CF0A3F022123EF143A910D2AFB9
:1034F00012434A122A1012434A9001F7120B060097
:10350000000000E4FFEF25E024FBF582E43401F540
:1035100083E4F0A3F074EB2FF582E43401F583E447
:10352000F074F12FF582E43401F583E4F00FEFB489
:1035300006D3229001C7120B4C9001CAEDF0124144
:10354000847F40123F4E1241951241847FC0123F4A
:103550004EE4FC9001C7120B438C82758300120865
:1035600096FF123F4E0CECB410E9124195124184C3
:103570009001CAE0FF123F4E02419590021DE0FE0D
:10358000A3E0FFEEC4F854F0C8EFC4540F48FF9016
:103590003080E493FEEFD39E50037F00229030C82A
:1035A000E493FEEFC39E40037F4822E4FEEE90309A
:1035B0008193FDEFC39D5003AF06220EEEB448ED9C
:1035C0007F4822E521C39478503FEF6012E52154F3
:1035D00007FF7401A807088002C333D8FC422705FF
:1035E00021E52154077022E52124FFFFE434FFFE8A
:1035F000EF7803CEC313CE13D8F924CDF582E4348B
:1036000001F583E527F0E4F5272212404CC2ACC255
:10361000998F9974FF9001BBF0A3F0209919900144
:10362000BBE07002A3E0600F9001BB74FFF5F012E5
:10363000095E12434A80E4309902C299D2AC124228
:10364000099001BBE07002A3E07F0060027F0122CD
:1036500043AD407DD07C07E5AD20E50BED4C600728
:10366000ED1D70F31C80F0AFAFEF75F010A4FBAF51
:10367000AEE4C4F854F0C868FEEFC4540F48FFEE3F
:1036800045F0FEEF4BFF53ADDFED4C70057EFF7F45
:10369000FF22227B017A0179B59001CB7409F09069
:1036A000000DE4939001CCF07D089001C7120B4C03
:1036B0009001CCE0FF9001C7120B43AE058E8275DE
:1036C0008300EF1208D59001CBE0F582758300EFFF
:1036D0000208D5900199E0700F124339EFD394633B
:1036E00040037F63220243391243397E007C007D10
:1036F000091208F7EF2402FFE43EFE7D05120909D6
:10370000EF2420FFE43EFED3EF9463EE94004002EA
:103710007F63229001B6120B4CE5257002FF22A2B6
:10372000AFE433FFC2AFE4FE74DC2EF582E4340173
:10373000F583E0FD9001B6120B438E82758300ED98
:103740001208D50EEEB40FE0E4F525EF24FF92AF9A
:103750007F0122EFD3940350369001A0E064016012
:103760002B900179E06F6024EFF0900174F07E20DF
:103770007F57123D84900179E0FF7E00122FF77E83
:103780001F7FFA123D849001757401F012424122AC
:103790001243529000AC7480F0A3E4F08FC7E5C4EC
:1037A00020E1269000ACE07002A3E0601CE5C4308C
:1037B000E008AFC7123E4353C4FD9000AC74FFF560
:1037C000F012095E12434A80D553C4FE229001BA1A
:1037D000EFF0E0C4540FA3F0C3940A5005E0243086
:1037E00080069001BBE02437FF123BFB9001BAE05A
:1037F000540FA3F0C3940A5005E0243080069001D2
:10380000BBE02437FF123BFB229001A2EEF0A3EFB6
:10381000F09001A2E07002A3E06028E4F58A758CC4
:1038200083C28DD28C208D0B1240AE1242091243FE
:103830004A80F2C28CC28D9001A274FFF5F0120989
:103840005E80CE22C0E0C0F0C083C082C0D075D000
:1038500000C000C001C002C003C004C005C006C053
:10386000071232ABD007D006D005D004D003D00267
:10387000D001D000D0D0D082D083D0F0D0E032E4DC
:10388000FFEFC3951A501A121163E4F0743D2F1222
:103890001114E4F0A3F0742B2F1211BBE4F00F808D
:1038A000E0E4F515F514F513F51290022874FFF015
:1038B000E490022BF0A3F0C20122AB07900176EB5B
:1038C000F0E49001A1F090017AF090019FF0900156
:1038D00077F0A3F0123F6CEB60091242417E1F7F2C
:1038E000FD80047E207F071242A39001757401F0D1
:1038F000FF02421F7E267F5A123D849000A9E0FFFE
:103900007E00122FF77E267F66123D849000A8E08D
:10391000FF7E00122FF77E267F6D123D8490006D92
:10392000E0FF7E00122FF77E267F75023D84439ACA
:103930000F4391F043B1F043C1C075D9FF12422645
:1039400012413C1241031243591242C01240331239
:1039500034E81224421233AF1242E3123966123AAB
:1039600076D2AF02434A90021D7408F0A3E4F090AF
:103970000220F0A3F0900224F0A3F0A3F090022222
:103980007419F0E4A3F090021FF053A1F753A2F7CB
:1039900075AB80F5AC75B51075AD87C2AE229001E0
:1039A00099E06F602FEF9001886013E0FF123A41B9
:1039B000EFF09001997401F07E207F4C8010E0FFC1
:1039C000123A0BEFF0E4900199F07E207F41124211
:1039D000A3124218229001A2EEF0A3EFF07E3B7FEB
:1039E0003F123D847E3B7F58123D847E3B7F5A12BE
:1039F0003D847E3B7F65123D849001A2E0FEA3E002
:103A0000FF122FF77E3B7F6C023D84EFC394205062
:103A1000037F1022EF24E0FFE434FFFE7C007D05ED
:103A20001208F77D09120909C3EF9410EE940050B3
:103A3000047E007F10D3EF941FEE940040027F1F9E
:103A4000227E007C007D091208F7EF2402FFE43E8D
:103A5000FE7D05120909EF2420FFE43EFEC3EF942A
:103A60003DEE940050047E007F3DD3EF9458EE94D9
:103A70000040027F5822123FC4E49000FAF0900008
:103A8000F7F090010D74FFF09000F1F0E490011058
:103A9000F090010CF09000F9F0900133F0900111DA
:103AA000F0A3F090010EF0A3F0229001A4EEF0A399
:103AB000EFF07E307F64123D84900222E0FF7E00B2
:103AC000122FF77E307F6B123D849001A4E0FEA39D
:103AD000E0FF122FF77E307F70023D84EF146012FA
:103AE00014601414601814601A2404701E90438A21
:103AF000800890438B800390438CE493FF22E4FF83
:103B000002426890437C740193FF227F0022EF7E83
:103B10000060027E01AF0690019FE06F6020EFF031
:103B20009001757401F07E207FC1123D8490019F49
:103B3000E0FF7E00122FF77E1F7FFA123D842241A4
:103B400044422D437572736F722053544147452D83
:103B5000342D302E312E33002000323032362D30CD
:103B6000392D303800207469636B3D000D0A00E583
:103B700021C394784025E5257021FF74CD2FF5826F
:103B8000E43401F583E0FE74DC2FF582E43401F5C2
:103B900083EEF00FEFB40FE3752501024275E49058
:103BA000022FF09001A2F09001A2E0FFC3951A50FD
:103BB000131220E89001A2E0FF1200809001A2E021
:103BC00004F080E3AF15AE14AD13AC122212392EFF
:103BD0007E437F56123D84E4FFFE1239D51221D870
:103BE0007F017E001238091212A212049C121BD30C
:103BF000120B82121DF0122F8780E5900230748024
:103C0000F0A3E4F08F9FE59520E119900230E07079
:103C100002A3E0600F90023074FFF5F012095E120B
:103C2000434A80E202434E1240AE9000ABE0FF9068
:103C300000EEE0FEB507037F002274AE2EF582E4AD
:103C40003400F583E01208C39000EEE004543FF026
:103C50007F01229001A4EFF0900068E06F601F9058
:103C600001A4E0FF900068F01241E99001A4E06037
:103C7000067E267F4680047E267F51123D84229058
:103C800000FCEFF0A37401F0E4A3F0A304F0ED7FD7
:103C90000060027F01900100EFF07B017A0079FC67
:103CA0009001B87405F07F070227DA9000FCEFF06E
:103CB000A37402F0E4A3F0A37404F0E4A3F0A3F06F
:103CC000ECA3F0A3EDF07B017A0079FC9001B874CD
:103CD00008F07F070227DAAD07ED75F008A42490FD
:103CE000F582E43443F583E493FEED75F008A424F3
:103CF00091F582E43443F583E4937C002400FFECE7
:103D00003EFE22EF600C90017FE0C394185003E068
:103D100004F0EF700C90017FE0D394004003E014B6
:103D2000F0E490018FF0A3F090017504F022EF7E93
:103D30000060027E01AF0690019AE06F601AEFF01A
:103D40007E207FB8123D8490019AE0FF7E00122F02
:103D5000F77E1F7FFA123D8422C0E0C083C082C07C
:103D6000D075D000C006C007309807C298AF99122E
:103D70003FE1309902C299D007D006D0D0D082D08E
:103D800083D0E0329001C5EEF0A3EFF09001C5E0E2
:103D9000FEA3E0F5828E83E493FF600F123BFB905D
:103DA00001C5E475F00112095E80E122124275E45A
:103DB000F52575220153B1FB43B204438E02E58918
:103DC000540F4410F589758BC0758DF9D2BBD2ABF9
:103DD000D28E229000FC7401F0FB7A017913E490FA
:103DE00001B8F07F041227DA7B017A0079FC900198
:103DF000B87401F07F050227DAE49000ABF0900080
:103E0000EEF0124352438EC053C1CF43C23075C44B
:103E10005075C50A75C61A53AAFDA304F022E4FE24
:103E200090004BE0547FF0D2EE90004BE054807055
:103E30001112298543CF100EEEC3946474809480D0
:103E400040E7229000ABE0FE04543FFD9000EEE01E
:103E50006D601374AE2EF582E43400F583EFF0AF9D
:103E6000059000ABEFF0229000FC7416F0A37405EF
:103E7000F0E4A3F0A304F0A3EFF07B017A0079FC57
:103E80009001B87405F07F070227DA9000FCEFF08C
:103E9000A37404F0E4A3F0A304F0A3EDF07B017A93
:103EA0000079FC9001B87405F07F070227DA9001D1
:103EB000A8120B4CE4FFFEEEC39D50139001A81214
:103EC0000B438E827583001208962FFF0E80E82226
:103ED000E51BB51C037F00227434251CF582E434F5
:103EE00001F583E01208C3E51C04543FF51C7F0173
:103EF00022439A10539BEFD2844391055392FAD2F6
:103F000090D29243A1A453A25BD2A2D2A5D2A7225F
:103F1000124333EF6018124339EFFD7C007F031228
:103F20003CAB124065AC06AD077F17123CAB22E4F8
:103F3000FFEFC3951A501612110AE0FCA3E0FD90A2
:103F4000000112112CECF0A3EDF00F80E422AE077B
:103F5000E4FDC2B1EE1392B01242B7D2B11242B731
:103F6000EEC313FE0DEDB408E9C2B12290019B121D
:103F70000B0600000000E4900198F0900183120B02
:103F800006000000007F0202421F9001C7120B4C86
:103F9000E4FF9001C7120B438F82758300E412087F
:103FA000D50FEFB410EC229001A0E0FE70037F0269
:103FB00022EEB401037F00229001A0E07F01B40251
:103FC000027F0322E4F51DF51BF51C12425B122350
:103FD0009375985012404CC299C298D2AC751D018D
:103FE00022E51B04543FFE651C60117434251BF54B
:103FF00082E43401F583EFF0AF068F1B2274F12FBA
:10400000F582E43401F583E0FE74F12FF582E434A7
:1040100001F583E4F0AF06227E267FE6123D849010
:1040200000F97401F0E4900133F0900111F0A3F075
:10403000023DD3E4FDFCD2A41241D9C2A41241D95D
:104040000DBD00010CBC01EEBD2CEB2275CE024370
:104050008E04E4F5C975C8307C0DECF5CB75CA0546
:10406000C2CAC2AD221243397E007C007D0912080B
:10407000F77D05120909EF2420FFE43EFE22E4FE4D
:10408000FDEE25E0FEEF54014EFEEFC313FF0DEDF4
:10409000B408EEAF0622E49000FBF07F5512360A1A
:1040A000EF70089000FB04F07F00227F0122900057
:1040B000EFE06010124352E5C430E008AFC7123E93
:1040C0004353C4FD22123CD7EF7803C333CE33CE23
:1040D000D8F9FF7C007D0A1209092290019FE06057
:1040E0000DE4F00412421A7E1F7FEE123D842290EE
:1040F0000187E0FEB406037F0122EE7F00B40702D1
:104100007F0222539A9F439B60438F307595507571
:104110009D15759E01227F109001A2E4F0A3DFFCA3
:104120007B017A0179A20243459001A1E06003027C
:104130003D03900176E06003122E2422438E01E5B8
:104140008954F04401F589C28CC2A9C28D22900124
:1041500076E06F600AEF7F0060027F011238BA22BA
:10416000EF75F008A4248DF582E43443F583E493DD
:10417000FF22E4FFEFC3951A500912110A1211FF32
:104180000F80F122D2B0D2B11242B7C2B01242B700
:10419000C2B10242B7C2B0C2B11242B7D2B11242EA
:1041A000B7D2B00242B79001777407F0A374D0F091
:1041B0009001757401F022900199E09001886005EA
:1041C000E0FF023A0BE0FF22574946492065303DA7
:1041D000002065313D000D0A00E4FFFE000FBF0026
:1041E000010EBE01F7BFE0F422900197E06F600876
:1041F000EFF09001757401F0229000AAE06F600862
:104200009000AAEFF012424E22E51D600A30980796
:10421000C298AF99123FE1227401900175F0FF90AE
:104220000191E04FF02253A3BFC2A643A14053A285
:10423000BFC2A62243B10353B2FCD2B1D2B00241F5
:10424000169001A0E0B40105E4900179F0229001FC
:1042500087E06F6005EFF01242182212422653A346
:10426000FC53A1FC43A2032274432FF582E43400E3
:10427000F583E0FF22E4F526F521F527F523F52463
:104280002212432DEFFD7C007F96023CAB904372DF
:10429000E493FE740193FF22904376E493FE74014D
:1042A00093FF22123D847E1F7FFA023D849000001E
:1042B000E075F00384FF22E4FF000FEFB40CFA2254
:1042C00043A11053A2EFC2A422EF7002FF22ED041B
:1042D000FF224100610041022D0000900191E0FFAA
:1042E000E4F022E490020AF0023DAC9043707401C5
:1042F00093FF2290436A740193FF22900000E0C371
:1043000013FF22900176E0FF229001A0E0FF2290AF
:104310000179E0FF22900188E0FF22900199E0FFFF
:104320002290019AE0FF2290019FE0FF22900198E5
:10433000E0FF22900226E0FF22900222E0FF22907E
:10434000010DE0FF227D8F02353343CF10225395BC
:10435000FE2275DC02220D0A000242347F0122D2C5
:10436000EE22A20122D2012200000001000000057D
:10437000000A0BB800C8006400020000000000043E
:1043800000000001FFFFFFFF001D042804082005B6
:1043900001AD04280408250501A9042804082805FE
:1043A00001530428040816050221042804081B05EB
:0A43B000022204280408200502522E
:00000001FF
