:100000000213D00000000100000005000A0BB80038
:10001000C80064000200000000000400000001FFAE
:10002000FFFFFF001D04280408200501AD0428047B
:1000300008250501A90428040828050153042804FB
:100040000816050221042804081B050222042804BE
:0500500008200502522A
:0D005B00021BE7FC60DAF266B6BEE0FEF6BE
:1000800090006CEFF0E4900074F090006CE0900051
:1000900001120B90120CD390006DF0A3EFF0E47FEF
:1000A00001FEFDFC90006CE0F9F81206C38F198E7A
:1000B000188D178C16AF01121E1C900072EEF0A363
:1000C000EFF0120BE34005120CF58005E490006F91
:1000D000F090006FE06401600302023290006CE077
:1000E000FF2425120BF8E0C394FA74809480500624
:1000F000120BF5E004F0120CA6FCE4FBFAF9F8C3CD
:1001000012069F600302021F900000E0900071F051
:10011000122133EF6030E490006FF0A3F0120C3046
:100120005018120BF5E0C39401748094804006903F
:10013000006FE004F0120CBA80E3120C63400790E9
:100140000071E0240FF090006CE02425120BF812EF
:100150000D15500302021FE490006FF0122110EF02
:10016000705E900070F0120C30502290006CE06FC6
:1001700060161220E3900070E02425120BF8E0C313
:100180009F4005120CF58005120CBA80D91221335C
:10019000EF3395E04F706390006FE0705DA3F01255
:1001A0000C30505690006CE06F60101220E390000D
:1001B00070120C4AE0C39F4002803C120CBA80DFF0
:1001C000122133EF3395E04F7030900071F09000C2
:1001D00070F0120C305018120BF5E0C394027480CA
:1001E00094804006900071E004F0120CBA80E39015
:1001F0000071120C664003120CF590006FE0640170
:100200007002D200E5154519FFE5144518FEE51307
:100210004517FDE51245168F158E148D13F51290B6
:10022000006CE0FF243D120BA6E4F0A3120C3D028B
:10023000044590006CE0FF121FBF90006DE0FCA32E
:10024000E0FDD3120BD74008120C47E004F0800BFE
:100250009000D8E004F0120C47E4F0120CDDC3E487
:100260009FFBE49EFAC3ED9BEA120BD94066D312C2
:100270000BE45060120C84F583E4120C3D120C0E5A
:10028000600302039990006DE0FEA3E0FF90006C14
:10029000E0900031120C2AEE8FF01205521220CE9F
:1002A000120BC54009120C00E475F00180191220F0
:1002B000CEC3E49FFFE49EFE120BC54003020399E8
:1002C000120C0074FFF5F0120552120BBBE4F0A300
:1002D000F0020399120CDDC3E49FFFE4120BE1501E
:1002E00073120C84120C39F583E4F0743D2FF582FF
:1002F000E43400F583E0FF75F00A84E5F07044C350
:10030000EF94647480948090006CE04010120C892B
:10031000F583E4F0D20190006104F08026120C0510
:10032000C083C082E0FEA3E0FF90004EE0A2E7138E
:10033000FD3395E0FCC3EF9DFFEE9CD082D083F0AF
:10034000A3EFF090006CE0FF9000D1E06F704A7472
:10035000FFF08045120CDDD3120BE4403C90006CA2
:10036000E0120C89120C0E7030120CFC120C39F5D4
:1003700083E064207023120CFCF583E4F090004EBF
:10038000E0A2E713A2E713FD3395E0FC75F002EF5E
:10039000120C08EC8DF0120552120CA64D4E4F7047
:1003A00003020451900072E0FCA3E0FDAE04780269
:1003B000CEA2E713CE13D8F8FFC3ED9FFFEC120BCC
:1003C000E1400302044A120C55E004F01221189097
:1003D0000071EFF0E4900070F0120C305018120B26
:1003E000F5E0C3940174809480400690006FE004AF
:1003F000F0120CBA80E3120C634008900000E09009
:100400000071F090006CE0FB120C59120D155003B6
:1004100002049B745B2B120C5BE4F0AF19AE18ADB9
:1004200017AC16120692E5155FFFE5145EFEE513A4
:100430005DFDE5125C8F158E148D13F51274252B5E
:10044000F582E43400F583E4F022120C55E014F058
:100450002290006CE02425120BF8120C107008900A
:10046000006CE0FF121685E51A14FF90006CE06F37
:1004700070299000D8E0C3951A4020E4900070F0F5
:10048000120C30500E120BF5E06003120CF5120C3A
:10049000BA80ED90006FE07002C20022BB010CE553
:1004A0008229F582E5833AF583E0225006E9258228
:1004B000F8E622BBFE06E92582F8E222E58229F56C
:1004C00082E5833AF583E49322F8BB010DE58229A6
:1004D000F582E5833AF583E8F0225006E92582C8E3
:1004E000F622BBFE05E92582C8F222EF8DF0A4A812
:1004F000F0CF8CF0A428CE8DF0A42EFE22BC000BF1
:10050000BE0029EF8DF084FFADF022E4CCF875F049
:1005100008EF2FFFEE33FEEC33FCEE9DEC98400528
:10052000FCEE9DFE0FD5F0E9E4CEFD22EDF8F5F0EE
:10053000EE8420D21CFEADF075F008EF2FFFED33F6
:10054000FD4007985006D5F0F222C398FD0FD5F074
:10055000EA22C5F0F8A3E028F0C5F0F8E58215829C
:1005600070021583E038F022E88FF0A4CC8BF0A461
:100570002CFCE98EF0A42CFC8AF0EDA42CFCEA8E75
:10058000F0A4CDA8F08BF0A42DCC3825F0FDE98F98
:10059000F0A42CCD35F0FCEB8EF0A4FEA9F0EB8F8F
:1005A000F0A4CFC5F02ECD39FEE43CFCEAA42DCE5C
:1005B00035F0FDE43CFC2275F008758200EF2FFF5A
:1005C000EE33FECD33CDCC33CCC58233C5829BED2B
:1005D0009AEC99E58298400CF582EE9BFEED9AFD2F
:1005E000EC99FC0FD5F0D6E4CEFBE4CDFAE4CCF9DF
:1005F000A88222B800C1B90059BA002DEC8BF08452
:10060000CFCECDFCE5F0CBF97818EF2FFFEE33FE1F
:10061000ED33FDEC33FCEB33FB10D703994004EBD7
:1006200099FB0FD8E5E4F9FA227818EF2FFFEE33A3
:10063000FEED33FDEC33FCC933C910D7059BE99AB5
:100640004007EC9BFCE99AF90FD8E0E4C9FAE4CC46
:10065000FB2275F010EF2FFFEE33FEED33FDCC33B0
:10066000CCC833C810D7079BEC9AE899400AED9B99
:10067000FDEC9AFCE899F80FD5F0DAE4CDFBE4CC78
:10068000FAE4C8F922EF5BFFEE5AFEED59FDEC5893
:10069000FC22CFF4CFCEF4CECDF4CDCCF4CC22EBF3
:1006A0009FF5F0EA9E42F0E99D42F0E89C45F02279
:1006B000E8600FECC313FCED13FDEE13FEEF13FF28
:1006C000D8F122E8600FEFC333FFEE33FEED33FDC8
:1006D000EC33FCD8F122E0FCA3E0FDA3E0FEA3E0B4
:1006E000FF22E0F8A3E0F9A3E0FAA3E0FB22ECF09C
:1006F000A3EDF0A3EEF0A3EFF022A8828583F0D063
:1007000083D082120711120711120711120711E488
:1007100073E493A3C583C5F0C583C8C582C8F0A39D
:10072000C583C5F0C583C8C582C822A42582F582C9
:10073000E5F03583F58322E0FBA3E0FAA3E0F9229C
:10074000EBF0A3EAF0A3E9F022E4900066F0900059
:1007500066E0FFC39406505A121F8B900067EFF0BB
:100760006048121FD5900066E07008A3E0FF1217E2
:10077000ED8037900066E0B40108A3E0FF12157E1B
:100780008028900066E0B40305121B02801C9000D4
:1007900066E0B4020512177B8010900066E0B40496
:1007A000047F018002E4FF122010900066E004F054
:1007B000809C90008EE0603B9000AFE07035900030
:1007C00090E0702F9000ADE07029C3900099E09404
:1007D00098900098E0943A5009E475F0011205529F
:1007E00080119000AD7401F090008DF07E127F4278
:1007F0001220D99000AFE0604E9000A1E475F001A6
:10080000120552900096E475F001120552C3900053
:1008100097E094F4900096E094014019E4F0A3F07E
:10082000900095E07F0070027F01900095EFF090BE
:10083000008D7401F0C39000A2E094889000A1E0C4
:1008400094134003121995900090E060239000AA41
:10085000E475F001120552C39000ABE0948890005B
:10086000AAE09413400AE4900090F090008D04F008
:10087000E4FFFEFDFC90009B1206E2C312069F609F
:100880004390009B1206D6EF24FFFFEE34FFFEEDEF
:1008900034FFFDEC34FFFC90009B1206EEE4FFFEFB
:1008A000FDFC90009B1206E2C312069F701690009A
:1008B00092E06004E4FF80027F01121CFE7E127F42
:1008C0004E1220D99000A3E07003020951E4FFFE0C
:1008D000FDFC9000A61206E2C312069F601C900069
:1008E000A61206D6EF24FFFFEE34FFFEED34FFFD27
:1008F000EC34FFFC9000A61206EE90009FE475F029
:1009000001120552C39000A0E094FA90009FE09479
:10091000004019E4F0A3F0900091E07F0070027FA6
:1009200001900091EFF090008D7401F0E4FFFEFD66
:10093000FC9000A61206E2C312069F70149000A35A
:10094000F0900091F090008D04F07E127F5B1220F9
:10095000D99000A4E475F00112055290008DE0706A
:100960000FC39000A5E094329000A4E09400400EE4
:10097000E49000A4F0A3F090008DF012126E22908B
:10098000004BE0FF20E703020A1A547FF0120E66C4
:100990009000C01206EE1221369000B61206D61252
:1009A00006929000C01206E21206859000661206BA
:1009B000EE9000C01206D69000B61206EEE4FFFEDE
:1009C000FDFC9000661206E2C312069F604CE490A4
:1009D000006AF090006AE0F9C39420503D900066F0
:1009E0001206D6A8011206B0EF5401FFE4FEFDFC8A
:1009F000FBFAF9F8C312069F60187E207F7B121E57
:100A0000C590006AE0FF7E0012185B7E207F831293
:100A10001EC590006AE004F080B9E4FB9000C012AB
:100A200006D6EB90208693F9F81206B0EF5401FF3A
:100A3000EF7003020B3EEB25E024C4F582E43400A2
:100A4000F583E0FEA3E0C39460EE94EA5013EB2537
:100A5000E024C4F582E43400F583E475F001120566
:100A600052EB25E024C4F582E43400F583E0FEA3D4
:100A7000E064014E703DEB6403600EEB64026009BC
:100A8000EB64046004EBB4050D74BA2BF582E43416
:100A900000F5837401F0EBB4011924BAF582E43453
:100AA00000F583E0700D74BA2BF582E43400F58311
:100AB0007401F0EB25E024C4F582E43400F583E012
:100AC000FEA3E064B87003EE640B702D74B02BF5D8
:100AD00082E43400F583E0702074B02BF582E434B6
:100AE00000F5837401F0EB6003B4010D74BA2BF5CB
:100AF00082E43400F5837402F0EB64046005EB6477
:100B000005707FEB25E024C4F582E43400F583E032
:100B1000FEA3E0FFC39490EE94014066EF2470FFC3
:100B2000EE34FEFE7C007DC81204FDED4C70537463
:100B3000BA2BF582E43400F5837403F08044EB7043
:100B400025EB25E024C4F582E43400F583E0FEA320
:100B5000E0C39428EE9400400D74BA2BF582E4347F
:100B600000F5837401F0EB25E024C4F582E4340041
:100B7000F583E4F0A3F074B02BF582E43400F58340
:100B8000E4F00BEB64066003020A1C22E090004FC5
:100B9000FF75F00212072BE0FCA3E0FDEF900019B7
:100BA00075F00202072BF582E43400F583E4F0745B
:100BB0005B2FF582E43400F583E4F0900031EF75AB
:100BC000F00202072B90006CE075F00290003112E9
:100BD000072BE0FCA3E0C39FEE6480F8EC648098F0
:100BE000229EFEC390006EE09FEE6480F890006D40
:100BF000E06480982274252FF582E43400F5832286
:100C000090006CE0FF75F00290000102072BF58365
:100C1000E4F0FFFEFDFCAB15AA14A913A812C30251
:100C2000069F90006DE0FD90004F75F00202072BCB
:100C3000900070E0FFC3951A22F583E004F0740D74
:100C40002FF582E434002290006CE0242BF582E43E
:100C50003400F5832290006CE0245BF582E43400DC
:100C6000F5832290006FE0C3940374809480227D0A
:100C70000A1204FDAD037C001204EB900075E0FD48
:100C80009000012290006CE0FF243DF582E43400E6
:100C900022E0FCA3E0FD75F002EF90004F12072B5D
:100CA000ECF0A3EDF022E5155519FFE5145518FEFB
:100CB000E5135517FDE512551622900070E004F07B
:100CC000227E009000D2E0FCA3E0FD1204EB8EE750
:100CD0008FE622E0FEA3E0C39DFFEE9C2290004E33
:100CE000E0FF3395E0FE22A4FFE0C39FE5F06480BF
:100CF000F87480982290006F7401F02290006CE0EC
:100D0000FF240DF582E434002290004EE0FB339581
:100D1000E0FAFEEB22E0FF900071E0FEEFC39E22BE
:100D20009FEE6480F8EA6480982290006BE0FF9068
:100D300000D0E02290006BEFF09000D6120C6640DD
:100D40003EE4F0900061E0702B90006CF090006C3D
:100D5000E0C3951A501EE0FF120C27E0FCA3E0FD53
:100D600075F002EF120C08ECF0A3EDF090006CE0CF
:100D700004F080D9121C22C201E4900061F022909C
:100D800000D0E004F0120D2AB50708122047E490C5
:100D900000D1F0120D2AD39F5003020E65E490009B
:100DA0006CF090006CE0C3951A507A120B8C120C08
:100DB000D3AD07FC900061E0702E120D097802C3DC
:100DC00033CE33CED8F9FFD3ED120BD74046E49B98
:100DD000FFE49AFEEF7802C333CE33CED8F9FFC3D7
:100DE000ED120BD7502E803D120D097803C333CE80
:100DF00033CED8F9FFD3ED120BD74018E49BFFE4B4
:100E00009AFEEF7803C333CE33CED8F9FFC3ED1289
:100E10000BD7401190006CE0FF1210AD90006CE019
:100E200004F0020DA290006CE0B51A069000D1E02B
:100E300004F090006BE0FD75F0089000D0120CE714
:100E40004023E4F0C2009000D6E004F0ED75F00419
:100E50009000D1120CE7400DE49000D6F0121F3143
:100E6000121C22C20122E4F509F511F510F50FF567
:100E70000E1221395003020F7F121D938F0D8E0C1D
:100E80008D0B8C0AE4F508E508C3951A505CE50D56
:100E90005401FFE4FEFDFCFBFAF9F8C312069F6063
:100EA00030E47F01FEFDFC74132508F582E4340074
:100EB000F583E0F9F81206C3E5114FFFE5104EFE89
:100EC000E50F4DFDE50E4C8F118E108D0FF50E05C3
:100ED00009AF0DAE0CAD0BAC0A78011206B08F0D48
:100EE0008E0C8D0B8C0A0508809DE509C394024089
:100EF00015D200E5099403400512213C8008122117
:100F000010EF6002C200200028E4FFFEFDFCAB11E0
:100F1000AA10A90FA80EC312069F600C90004CE403
:100F200075F001120552801CE490004CF0A3F08093
:100F300013900049E475F001120552E4F511F51023
:100F4000F50FF50E1220C3D390004DE09F90004C9A
:100F5000E09E400A12213CE490004CF0A3F0D390B4
:100F6000004AE0942C900049E09401401D12213C7D
:100F70009000617401F0E4900049F0A3F0800B90C0
:100F80000013E4740193FF120D34AF11AE10AD0FD6
:100F9000AC0E2290006BEFF0A3EDF0A3EBF07B0121
:100FA0007A007974121F6E90006FE0605DA3E0FF1D
:100FB000C394645055EFFB7C007D0A7E001204FD53
:100FC000900084EFF07C007D0AAF037E001204FDE8
:100FD000AC057B017A00797490008A7409F0900066
:100FE00084E090005E9390008BF07D08121E9C7B45
:100FF000017A00797490008A7406F0AF04EF9000D3
:101000005E9390008BF01D121E9C90006BE060645C
:10101000A3E07060A3E0FD7009900074E04404F068
:101020008021EDB40109900074E04410F080149028
:10103000006DE0900075B40206E04408F08004E022
:101040004402F090006EE0FD700990007EE04404E0
:10105000F08021EDB4010990007EE04410F080148E
:1010600090006EE0900083B40206E04402F0800439
:10107000E04408F0900071E06007900075E04410D3
:10108000F0900072E0600790007EE04402F0900073
:1010900073E090008560057488F08003748FF07BA6
:1010A000017A007974900085E0FD021B9F90006D2D
:1010B000EFF0F9120B8C120CD390006EF0A3EFF04E
:1010C000AF01121E1CAD07AC0690006EE0FEA3E05F
:1010D000FFD39DEC6480F8EE6480985014C3E49DC7
:1010E000FBE49CFAC3EF9BEA6480F8EE64809850BE
:1010F0000E90006DE0FF120B9D120C91021191EC0D
:10110000A2E713FEED13FF90006EE0FAA3E0FBD31D
:10111000120D205016ECA2E713FEED13FFC3E49F5F
:10112000FFE49EFEC3EB120D205023120C22E0FAC6
:10113000A3E0FBEAC313FEEB13FFC3EB9FFBEA9EA6
:10114000FAED120B9DE0C313FEA3E0138032120CE4
:1011500022E0FAA3E0FBAE027803CEC313CE13D88D
:10116000F9FFC3EB9FFBEA9EFA75F002ED900019C0
:1011700012072BE0FEA3E07803CEC313CE13D8F9F9
:101180002BFFEA3EFE90006DE0120C27EEF0A3EF7D
:10119000F090006D120B8CECF0A3EDF0220D0A0024
:1011A000484D49207077723D3100484D4920707795
:1011B000723D3000484D492074733D00460D0A00D1
:1011C000430D0A00484D4920746D723D3000484D72
:1011D0004920746D723D00680D0A00484D49207722
:1011E00069666900484D4920756E69743D43004841
:1011F0004D4920756E69743D4600484D4920666131
:101200006E3D00484D49206D6F64653D00484D4975
:1012100020746D72206564697400484D4920703DEA
:1012200000206D3D0020663D002074733D004600A7
:10123000430020746D723D0020773D00207361767D
:101240003D00484D492073617665723D3100484D3F
:101250004920746D7220646F6E6500484D49207797
:101260006966693D30000102030001030002E49059
:101270000068F0A3F0A3F0FFFEFDFC90009B1206B7
:10128000E2C312069F600690006A7401F09000AFFE
:10129000E0601790006A7401F0900095E0605B9048
:1012A00000687401F0900094804B900090E06036EC
:1012B00090006A7401F090009B1206D6EF247FFF25
:1012C000EE34EEFEED3436FDE43CFC7B807AEE79C4
:1012D0003678001205F3EF70027F01900068740108
:1012E000F0A3EFF0801490008EE0600E9000687420
:1012F00001F090009AE0900069F090008EE0FF907D
:1013000000ADE0FDA3E0FB90008FE090006EF09058
:101310000068E090006FF0900069E0900070F0903D
:10132000006AE0900071F0900091E0900072F0A3EC
:10133000EDF0020F937E127F1A121EC590008EE010
:10134000FF7E0012185B7E127F21121EC59000AE38
:10135000E0FF7E0012185B7E127F25121EC59000F2
:101360008FE0FF7E0012185B7E127F29121EC5904F
:10137000009AE0FF7E0012185B9000ACE060067EF1
:10138000127F2E80047E127F30121EC57E127F32A5
:10139000121EC57B807AEE7936780090009B12068B
:1013A000D61205F312185B7E127F38121EC590000C
:1013B000A3E0FF7E0012185B7E127F3C121EC590D8
:1013C00000ADE0FF7E0012185B7E117F9D021EC5FE
:1013D000787FE4F6D8FD9000007F007E20E4F0A343
:1013E000DFFCDEFA758120021425021934E493A390
:1013F000F8E493A34003F68001F208DFF48029E4C7
:1014000093A3F85407240CC8C333C4540F4420C812
:10141000834004F456800146F6DFE4800B010204A9
:1014200008102040809020FFE47E019360BCA3FF61
:10143000543F30E509541FFEE493A360010ECF54DE
:10144000C025E060A840B8E493A3FAE493A3F8E4CD
:1014500093A3C8C582C8CAC583CAF0A3C8C582C839
:10146000CAC583CADFE9DEE780BEC2AF75FEC1AF81
:10147000FFD2AFEF5430FD7C0070047920801CED6A
:1014800064104C700479108012ED64204C70047963
:10149000088008ED64304C70027904E924F8601883
:1014A00024F8602024F06028241C703090006874B8
:1014B00001F0A374F4F080269000687403F0A37424
:1014C000E8F0801A9000687407F0A374D0F0800EE2
:1014D000900068740FF0A374A0F08002E4F990000B
:1014E00068E07002A3E0600C90006874FFF5F012F1
:1014F000055280EA2275FE8543FF2053DB7FD2AF81
:10150000C201E49000D7F090004BF0121B53E4FFAF
:10151000121D30EF2401FDE433FC7E0F7FA0120486
:10152000FD9000D2EEF0A3EFF0E4FF122035120C94
:10153000C17F02121D30EFC454F0FEC006E4FF125A
:101540001D30D0E02FF5E17F03121D30E5E254801D
:101550004FF5E27F04121D30EF6008E5E25480444D
:1015600080F5E27F01121D308FE3121C2243A91087
:10157000900013E04480F5E8121705021F31900037
:1015800068EFF06402703790008EE070759000ACE8
:10159000E090009A6012E0FF121C93EFF0E49000DC
:1015A000ACF07E117FE48011E0FF121DC2EFF090DD
:1015B00000AC7401F07E117FEF1220D9803E9000C4
:1015C00068E06401703C90008EE060369000AEE010
:1015D0006401602E90008FE09012669390008FF06F
:1015E00090008CF07E117FFA121EC590008FE0FFF4
:1015F0007E0012185B7E117F9D121EC590008D74B7
:1016000001F022E490008EF09000AEF090008F0484
:10161000F090008CF09000ACF090009A7448F0E4E8
:101620009000ADF09000AFF0900090F090009B1211
:1016300006FA00000000E4900092F09000A304F08D
:101640009000A61206FA0002BF209000917401F0EB
:10165000E490009FF0A3F090009504F0E4A3F0A3C1
:10166000F0900093F0900098F0A3F09000A1F0A308
:10167000F09000AAF0A3F09000A4F0A3F090008DE9
:1016800004F002126E900075EFF01220B690007612
:10169000EFF01216FA9000D3E025E0FF9000D2E0C0
:1016A00033FE7C00120C6F120BA0E0FAA3E0C39F84
:1016B000EA9E5009900076E0603F14802D1216FAE1
:1016C0009000D2E0FEA3E0FF7C007D071204EB1245
:1016D0000C6F120BBFE0FAA3E0D39FEA9E401A9072
:1016E0000076E0FF647E6011EF04FF74432DF58205
:1016F000E43400F583EFF0D20122900075E0FF1290
:101700002035EFFB229000667420F0121EEDE4906D
:101710000067F0900067E0FFC3951A5021E0FE12C9
:101720000B9DE0FCA3E0FD75F002EE120C08ECF05E
:10173000A3EDF0121685900067E004F080D59000CC
:1017400066E0FF14F0EF70C31220471221089000EA
:1017500066EFF0121EEDE4900067F0900067E0FF86
:10176000C3951A500B1210AD900067E004F080EBA7
:10177000900066E0FF14F0EF70D9229000AFE060B7
:1017800003021995900090E0601590009B1206FAF4
:1017900000000000E4900090F07E117FC48044E4DB
:1017A000FFFEFDFC90009B1206E2C312069F601331
:1017B0009000907401F0E49000AAF0A3F090008DE6
:1017C00004F0229000AF7401F0900094F0E49000D7
:1017D000A1F0A3F0900096F0A3F090009504F07EA5
:1017E000127F0D1220D990008D7401F022900068B4
:1017F000EFF06402703390008EE0705E9000A304FE
:10180000F09000A61206FA0002BF20E490009FF0BC
:10181000A3F090009104F0900093F07E117FDB1212
:1018200020D990008D7401F022900068E06401706E
:1018300029900093E06003E4F02290008EE0900095
:101840009B600B1206FA00000000E4FF80091206FC
:10185000FA000000007F01121CFE2290006BEEF0E7
:10186000A3EFF04E70057F30021DF0E4FB90006B9B
:10187000E0FEA3E0FF4E602F7C007D0A1204FDAE67
:10188000030B746D2EF582E43400F583EDF09000C7
:101890006BE0FEA3E0FF7C007D0A1204FD90006B6C
:1018A000EEF0A3EFF080C6900072EBF0900072E0D3
:1018B000601514F0E0246DF582E43400F583E02433
:1018C00030FF121DF080E5229000ACE0601DEF605B
:1018D0000C90009AE0C394585003E004F0EF702994
:1018E00090009AE0D3943D4020801BEF600C900064
:1018F0009AE0C3941F5003E004F0EF700C90009A3C
:10190000E0D394104003E014F07E117FB4121EC5A2
:1019100090009AE0FF7E0012185B9000ACE0600639
:101920007E117FBC80047E117FC0121EC590008D89
:101930007401F022E4900062F0A3F0A3F0A3F0128F
:101940001E737E217F2D121EC5E4FFFE121C5D1248
:1019500013357F017E00121CC912097F12074990BE
:101960000064E475F001120552C3900065E094F440
:10197000900064E0940140DAE4F0A3F09000627516
:10198000F001120552900062E0FEA3E0FF121C5D20
:1019900012133580BD900094E0701390009B1206E6
:1019A000FA000000007E117FC41220D98039900017
:1019B00094E0FFE4FCFDFE7B807AEE7936F81205B8
:1019C0006890009B1206EE90008EE0900092F07EF0
:1019D000117FCE121EC5900094E0FF7E0012185BAE
:1019E0007E117FD7121EC5E49000AFF0900090F0FA
:1019F00090008D04F022E4F509F50AF50E750D0549
:101A0000750CA4750B10F509E50E5401FFE4FEFDFD
:101A1000FCFBFAF9F8C312069F60177413250AF548
:101A200082E43400F583E509F0050AE50AC394066B
:101A3000501CAF0EAE0DAD0CAC0B78011206B08F82
:101A40000E8E0D8D0C8C0B0509E509B41FBA850AA5
:101A50001A22C2029000D7E0120B9DE5E5F0A3E543
:101A6000E4F09000D7E004F0E0C3951A400BE4F0F6
:101A700090004BE04480F08002D2029000D7E0FF5B
:101A8000122035120CC19000D7E0FF1220B6E5E21B
:101A900054804FF5E29000D7E02413F582E434003F
:101AA000F583E04480F5E8300202D2EE22121F12E4
:101AB00043A910D2AF1221251214F512212590004E
:101AC000C01206FA000000009000B61206FA0000EC
:101AD0000000E4FFEF25E024C4F582E43400F58340
:101AE000E4F0A3F074B02FF582E43400F583E4F061
:101AF00074BA2FF582E43400F583E4F00FEFB406F6
:101B0000D32290008EE0604A9000AEE0FF90126A0F
:101B100093FEEFB4010890008CE090008FF0EEB4DB
:101B2000010D90008FE090008CF0E490008FF09019
:101B300000AEEEF07E127F03121EC59000AEE0FFF5
:101B40007E0012185B7E117F9D121EC590008D7461
:101B500001F022900009740193900000F09000239E
:101B600074019390004EF01219F6E4F508E508C3ED
:101B7000951A5023E50875F008A42429F582E43469
:101B800000F583E493FF74432508F582E43400F5FF
:101B900083EFF0050880D6E490004CF0A3F022908B
:101BA0000086120740900089EDF01220597F401204
:101BB0001F5012206A1220597FC0121F50E4FC905F
:101BC00000861207378C8275830012049CFF121F57
:101BD000500CECB410E912206A122059900089E0F0
:101BE000FF121F5002206AC0E0C0F0C083C082C054
:101BF000D075D000C000C001C002C003C004C00541
:101C0000C006C007121A52D007D006D005D004D0A3
:101C100003D002D001D000D0D0D082D083D0F0D079
:101C2000E032E4FFEFC3951A501A120BF5E4F0749A
:101C30003D2F120BA6E4F0A3F0742B2F120C4DE4F1
:101C4000F00F80E0E4F515F514F513F5129000D1CE
:101C500074FFF0E49000D4F0A3F0C201229000667B
:101C6000EEF0A3EFF07E1D7F62121EC57E1D7F7C0D
:101C7000121EC57E1D7F7E121EC57E1D7F89121E0F
:101C8000C5900066E0FEA3E0FF12185B7E1D7F900A
:101C9000021EC5EFC3942050037F1022EF24E0FF03
:101CA000E434FFFE7C007D051204EB7D091204FD87
:101CB000C3EF9410EE940050047E007F10D3EF9495
:101CC0001FEE940040027F1F22900066EEF0A3EF0B
:101CD000F0900066E07002A3E06022E4F58A758C63
:101CE00083C28DD28C208D0512212580F8C28CC232
:101CF0008D90006674FFF5F012055280D42290009A
:101D00008EEFF0E49000AFF0900090F09000ADF016
:101D1000900098F0A3F0EF60091220A97E117FA037
:101D200080047E117FAA1220D990008D7401F022C8
:101D3000EF14601214601414601814601A240470F4
:101D40001E90002580089000268003900027E493D1
:101D5000FF22E4FF0220B6900017740193FF227F58
:101D600000224144422D437572736F7220535441D7
:101D700047452D31432D302E312E31002000323099
:101D800032362D30392D303700207469636B3D00B9
:101D90000D0A00E49000D8F090006BF090006BE02A
:101DA000FFC3951A50131210AD90006BE0FF1200A4
:101DB0008090006BE004F080E3AF15AE14AD13AC7F
:101DC00012227E007C007D091204EB7D051204FDC9
:101DD000EF2420FFE43EFEC3EF943DEE9400500458
:101DE0007E007F3DD3EF9458EE940040027F58224E
:101DF0009000D97480F0A3E4F08F9FE59520E1195D
:101E00009000D9E07002A3E0600F9000D974FFF554
:101E1000F012055212212580E2022129AD07ED754D
:101E2000F008A4242BF582E43400F583E493FEED5E
:101E300075F008A4242CF582E43400F583E4937C47
:101E4000002400FFEC3EFE22EF600C900094E0C303
:101E500094185003E004F0EF700C900094E0D394D9
:101E6000004003E014F0E49000A1F0A3F090008D96
:101E700004F022439A0F4391F043B1F043C1C0757F
:101E8000D9FF122023121FEA1221301220F6121F4E
:101E9000A6121AAD121603D2AF02212590008612A7
:101EA000074090008BE0FF900086120737AE058E4A
:101EB00082758300EF1204C990008AE0F582758371
:101EC00000EF0204C990006BEEF0A3EFF090006BFE
:101ED000E0FEA3E0F5828E83E493FF600F121DF015
:101EE00090006BE475F00112055280E122E4FE904F
:101EF000004BE0547FF0D2EE90004BE05480701124
:101F000012146A43CF100EEEC39464748094804020
:101F1000E722439A10539BEFD2844391055392FAE0
:101F2000D290D29243A1A453A25BD2A2D2A5D2A7AF
:101F300022E4FFEFC3951A5016120B9CE0FCA3E0BD
:101F4000FD900001120BBEECF0A3EDF00F80E42237
:101F5000AE07E4FDC2B1EE1392B01220EDD2B11281
:101F600020EDEEC313FE0DEDB408E9C2B1229000DE
:101F700086120740E4FF9000861207378F82758330
:101F800000E41204C90FEFB410EC2274BA2FF582EA
:101F9000E43400F583E0FE74BA2FF582E43400F5F2
:101FA00083E4F0AF0622E4FDFCD2A412208CC2A48C
:101FB00012208C0DBD00010CBC01EEBD2CEB2212D9
:101FC0001E1CEF7803C333CE33CED8F9FF7C007DDF
:101FD0000A1204FD22E4900098F0A3F09000ADE016
:101FE0006007E4F090008D04F022539A9F439B60B9
:101FF000438F30759550759D15759E01227F109009
:102000000066E4F0A3DFFC7B017A00796602212000
:102010009000AFE06003021E4890008EE060031263
:1020200018C822438E01E58954F04401F589C28C19
:10203000C2A9C28D22EF75F008A42428F582E434E9
:1020400000F583E493FF22E4FFEFC3951A500912D1
:102050000B9C120C910F80F122D2B0D2B11220ED64
:10206000C2B01220EDC2B10220EDC2B0C2B1122046
:10207000EDD2B11220EDD2B00220ED4B45592074C3
:102080006B3D000D0A001C17120A1508E4FFFE0044
:102090000FBF00010EBE01F7BFE0F42243B10353AE
:1020A000B2FCD2B1D2B0021FFD9000AEE0B4010587
:1020B000E490008FF02274432FF582E43400F5831E
:1020C000E0FF2290000DE493FE740193FF22900044
:1020D00011E493FE740193FF22121EC57E117F9DB1
:1020E000021EC5900000E075F00384FF22E4FF00AB
:1020F0000FEFB40CFA2243A11053A2EFC2A4224165
:102100000061004100D6000090000B740193FF2293
:10211000900005740193FF22900000E0C313FF229A
:102120007D8F021B9F43CF10225395FE220D0A0084
:0F21300002209C7F0122D2EE22A20122D20122A4
:00000001FF
