:10000000020D180000000100000005000A0BB800F6
:10001000C80064000200000000000400000001FFAE
:10002000FFFFFF001D04280408200501AD0428047B
:1000300008250501A90428040828050153042804FB
:100040000816050221042804081B050222042804BE
:0500500008200502522A
:03005B0002130588
:10008000900070EFF0E4900078F0900070E0900045
:10009000011204A01205E3900071F0A3EFF0E47FD9
:1000A00001FEFDFC900070E0F9F812074E8F198EEA
:1000B000188D178C16AF011214D8900076EEF0A3AD
:1000C000EFF01204F340051206058005E49000737A
:1000D000F0900073E064016003020232900070E06F
:1000E000FF2425120508E0C394FA7480948050061A
:1000F000120505E004F01205B6FCE4FBFAF9F8C3BA
:1001000012072A600302021F900000E0900075F0C1
:10011000121777EF6030E4900073F0A3F0120540FF
:100120005018120505E0C394017480948040069035
:100130000073E004F01205CA80E3120573400790D3
:100140000075E0240FF0900070E0242512050812DD
:100150000625500302021FE4900073F012175CEFB3
:10016000705E900074F01205405022900070E06FB5
:100170006016121727900074E02425120508E0C3CA
:100180009F400512060580051205CA80D91217770F
:10019000EF3395E04F7063900073E0705DA3F01251
:1001A00005405056900070E06F60101217279000C5
:1001B0007412055AE0C39F4002803C1205CA80DFDA
:1001C000121777EF3395E04F7030900075F0900084
:1001D00074F01205405018120505E0C394027480B3
:1001E00094804006900075E004F01205CA80E39008
:1001F00000751205764003120605900073E0640155
:100200007002D200E5154519FFE5144518FEE51307
:100210004517FDE51245168F158E148D13F51290B6
:100220000070E0FF243D1204B6E4F0A312054D0275
:100230000445900070E0FF121653900071E0FCA39B
:10024000E0FDD31204E74008120557E004F0800BEC
:100250009000A1E004F0120557E4F01205EDC3E4AC
:100260009FFBE49EFAC3ED9BEA1204E94066D312B9
:1002700004F45060120594F583E412054D12051E36
:100280006003020399900071E0FEA3E0FF9000700C
:10029000E090003112053AEE8FF01206FA12171CA8
:1002A0001204D54009120510E475F00180191217E7
:1002B0001CC3E49FFFE49EFE1204D5400302039991
:1002C00012051074FFF5F01206FA1204CBE4F0A345
:1002D000F00203991205EDC3E49FFFE41204F1500C
:1002E00073120594120549F583E4F0743D2FF582ED
:1002F000E43400F583E0FF75F00A84E5F07044C350
:10030000EF946474809480900070E040101205991E
:10031000F583E4F0D20190006104F0802612051507
:10032000C083C082E0FEA3E0FF90004EE0A2E7138E
:10033000FD3395E0FCC3EF9DFFEE9CD082D083F0AF
:10034000A3EFF0900070E0FF90009AE06F704A74A5
:10035000FFF080451205EDD31204F4403C9000708C
:10036000E012059912051E703012060C120549F5AF
:1003700083E06420702312060CF583E4F090004EB5
:10038000E0A2E713A2E713FD3395E0FC75F002EF5E
:10039000120518EC8DF01206FA1205B64D4E4F708C
:1003A00003020451900076E0FCA3E0FDAE04780265
:1003B000CEA2E713CE13D8F8FFC3ED9FFFEC1204D3
:1003C000F1400302044A120565E004F0121764903C
:1003D0000075EFF0E4900074F0120540501812051B
:1003E00005E0C39401748094804006900073E0049B
:1003F000F01205CA80E31205734008900000E090F7
:100400000075F0900070E0FB12056912062550039C
:1004100002049B745B2B12056BE4F0AF19AE18ADB0
:1004200017AC1612071DE5155FFFE5145EFEE51318
:100430005DFDE5125C8F158E148D13F51274252B5E
:10044000F582E43400F583E4F022120565E014F04F
:1004500022900070E02425120508120520700890F3
:100460000070E0FF120F52E51A14FF900070E06F69
:1004700070299000A1E0C3951A4020E4900074F028
:10048000120540500E120505E06003120605120524
:10049000CA80ED900073E07002C20022E090004F2D
:1004A000FF75F0021207B6E0FCA3E0FDEF90001923
:1004B00075F0020207B6F582E43400F583E4F074C7
:1004C0005B2FF582E43400F583E4F0900031EF75A2
:1004D000F0020207B6900070E075F0029000311251
:1004E00007B6E0FCA3E0C39FEE6480F8EC6480985C
:1004F000229EFEC3900072E09FEE6480F89000712F
:10050000E06480982274252FF582E43400F583227C
:10051000900070E0FF75F0029000010207B6F583CD
:10052000E4F0FFFEFDFCAB15AA14A913A812C30248
:10053000072A900071E0FD90004F75F0020207B6A7
:10054000900074E0FFC3951A22F583E004F0740D67
:100550002FF582E4340022900070E0242BF582E431
:100560003400F58322900070E0245BF582E43400CF
:10057000F58322900073E0C3940374809480227DFD
:100580000A1206A5AD037C00120693900079E0FDE7
:1005900090000122900070E0FF243DF582E43400D9
:1005A00022E0FCA3E0FD75F002EF90004F1207B6C9
:1005B000ECF0A3EDF022E5155519FFE5145518FEF2
:1005C000E5135517FDE512551622900074E004F06E
:1005D000227E0090009BE0FCA3E0FD1206938EE7D4
:1005E0008FE622E0FEA3E0C39DFFEE9C2290004E2A
:1005F000E0FF3395E0FE22A4FFE0C39FE5F06480B6
:10060000F8748098229000737401F022900070E0DA
:10061000FF240DF582E434002290004EE0FB339578
:10062000E0FAFEEB22E0FF900075E0FEEFC39E22B1
:100630009FEE6480F8EA6480982290006FE0FF905B
:100640000099E022BB010CE58229F582E5833AF5A9
:1006500083E0225006E92582F8E622BBFE06E92562
:1006600082F8E222E58229F582E5833AF583E49374
:1006700022F8BB010DE58229F582E5833AF583E88E
:10068000F0225006E92582C8F622BBFE05E9258244
:10069000C8F222EF8DF0A4A8F0CF8CF0A428CE8D64
:1006A000F0A42EFE22BC000BBE0029EF8DF084FFCB
:1006B000ADF022E4CCF875F008EF2FFFEE33FEEC3E
:1006C00033FCEE9DEC984005FCEE9DFE0FD5F0E965
:1006D000E4CEFD22EDF8F5F0EE8420D21CFEADF064
:1006E00075F008EF2FFFED33FD4007985006D5F069
:1006F000F222C398FD0FD5F0EA22C5F0F8A3E02856
:10070000F0C5F0F8E582158270021583E038F0221A
:10071000EF5BFFEE5AFEED59FDEC58FC22CFF4CF13
:10072000CEF4CECDF4CDCCF4CC22EB9FF5F0EA9E06
:1007300042F0E99D42F0E89C45F022E8600FECC3EE
:1007400013FCED13FDEE13FEEF13FFD8F122E8606A
:100750000FEFC333FFEE33FEED33FDEC33FCD8F186
:1007600022E0FCA3E0FDA3E0FEA3E0FF22E0F8A36B
:10077000E0F9A3E0FAA3E0FB22ECF0A3EDF0A3EE96
:10078000F0A3EFF022A8828583F0D083D0821207F5
:100790009C12079C12079C12079CE473E493A3C568
:1007A00083C5F0C583C8C582C8F0A3C583C5F0C59D
:1007B00083C8C582C822A42582F582E5F03583F579
:1007C0008322E0FBA3E0FAA3E0F922EBF0A3EAF036
:1007D000A3E9F022EF30E0030209167B017A0079E9
:1007E0008712161D9000AAE0900097F0700D9000FF
:1007F000917402F07E0D7FB20208FC900097E0B485
:10080000010D9000877404F07E0D7FBE0208FC90FD
:100810000097E0B4020D9000877410F07E0D7FCA3F
:100820000208FC900097E0B4030D9000887402F079
:100830007E0D7FD50208FC900097E0B4040D900077
:10084000887408F07E0D7FE00208FC900097E0B409
:10085000050D9000917404F07E0D7FEC0208FC9071
:100860000097E0B4060D9000917410F07E0D7FF7B4
:100870000208FC900097E0B4070C9000967402F018
:100880007E0E7F028076900097E0B4080C90009670
:100890007408F07E0E7F0E8063900097E0FFC39493
:1008A00013501EC3EF9409A3F07B017A007987905F
:1008B00000857409F09000981213E67E0E7F1B806D
:1008C0002A900097E0C39413A3F07B017A00798704
:1008D0009000857406F0900098E0900E349390009C
:1008E00086F07D071213F17E0E7F29121504900009
:1008F00098E0FF7E001210487E0E7F261215047BC2
:10090000017A0079871212C59000AAE004F0E0C3D2
:10091000941D4002E4F02290006FEFF090009F12CF
:100920000576403EE4F0900061E0702B900070F09E
:10093000900070E0C3951A501EE0FF120537E0FCEE
:10094000A3E0FD75F002EF120518ECF0A3EDF090B6
:100950000070E004F080D9121340C201E4900061FD
:10096000F022900099E004F012063AB5070812163A
:10097000B3E490009AF012063AD39F5003020A485B
:10098000E4900070F0900070E0C3951A507A120461
:100990009C1205E3AD07FC900061E0702E12061971
:1009A0007802C333CE33CED8F9FFD3ED1204E7403B
:1009B00046E49BFFE49AFEEF7802C333CE33CED8F1
:1009C000F9FFC3ED1204E7502E803D12061978039B
:1009D000C333CE33CED8F9FFD3ED1204E74018E489
:1009E0009BFFE49AFEEF7803C333CE33CED8F9FFF2
:1009F000C3ED1204E74011900070E0FF120B7690F7
:100A00000070E004F0020985900070E0B51A0690CD
:100A1000009AE004F090006FE0FD75F008900099F6
:100A20001205F74023E4F0C20090009FE004F0EDCF
:100A300075F00490009A1205F7400DE490009FF0C5
:100A40001215E0121340C20122E4F509F511F51068
:100A5000F50FF50E12177D5003020B6212147D8FF5
:100A60000D8E0C8D0B8C0AE4F508E508C3951A5021
:100A70005CE50D5401FFE4FEFDFCFBFAF9F8C3123E
:100A8000072A6030E47F01FEFDFC74132508F5821F
:100A9000E43400F583E0F9F812074EE5114FFFE565
:100AA000104EFEE50F4DFDE50E4C8F118E108D0F93
:100AB000F50E0509AF0DAE0CAD0BAC0A78011207AF
:100AC0003B8F0D8E0C8D0B8C0A0508809DE509C3AC
:100AD00094024015D200E509940340051217808066
:100AE0000812175CEF6002C200200028E4FFFEFD40
:100AF000FCAB11AA10A90FA80EC312072A600C9014
:100B0000004CE475F0011206FA801CE490004CF0F1
:100B1000A3F08013900049E475F0011206FAE4F5A1
:100B200011F510F50FF50E121711D390004DE09F3F
:100B300090004CE09E400A121780E490004CF0A315
:100B4000F0D390004AE0942C900049E09401401DBD
:100B50001217809000617401F0E4900049F0A3F056
:100B6000800B900013E4740193FF120917AF11AECC
:100B700010AD0FAC0E22900071EFF0F912049C1230
:100B800005E3900072F0A3EFF0AF011214D8AD07A7
:100B9000AC06900072E0FEA3E0FFD39DEC6480F809
:100BA000EE6480985014C3E49DFBE49CFAC3EF9B71
:100BB000EA6480F8EE648098500E900071E0FF12B5
:100BC00004AD1205A1020C5AECA2E713FEED13FFCF
:100BD000900072E0FAA3E0FBD31206305016ECA2AC
:100BE000E713FEED13FFC3E49FFFE49EFEC3EB1289
:100BF00006305023120532E0FAA3E0FBEAC313FEED
:100C0000EB13FFC3EB9FFBEA9EFAED1204ADE0C3CA
:100C100013FEA3E0138032120532E0FAA3E0FBAE2C
:100C2000027803CEC313CE13D8F9FFC3EB9FFBEAC0
:100C30009EFA75F002ED9000191207B6E0FEA3E0EF
:100C40007803CEC313CE13D8F92BFFEA3EFE9000F3
:100C500071E0120537EEF0A3EFF090007112049CE2
:100C6000ECF0A3EDF02290004BE0FF20E703020D33
:100C700017EF547F90004BF0120A4990006612075C
:100C80007912177A9000A6E475F0011206FA900026
:100C9000A212076112071D90006612076D1207105D
:100CA00090006A1207799000661207619000A21204
:100CB0000779E4FFFEFDFC90006A12076DC312077E
:100CC0002A6054E490006EF090006EE0F9C3942026
:100CD000504590006A120761A80112073BEF5401CA
:100CE000FFE4FEFDFCFBFAF9F8C312072A60207E40
:100CF000157FB912150490006EE0FF7E00121048B7
:100D00007E157FB612150490006EE0FF1210B590AC
:100D1000006EE004F080B122787FE4F6D8FD900008
:100D2000007F007E20E4F0A3DFFCDEFA7581200264
:100D30000D6D02117DE493A3F8E493A34003F680C4
:100D400001F208DFF48029E493A3F85407240CC8C7
:100D5000C333C4540F4420C8834004F45680014672
:100D6000F6DFE4800B010204081020408090174356
:100D7000E47E019360BCA3FF543F30E509541FFE9D
:100D8000E493A360010ECF54C025E060A840B8E40E
:100D900093A3FAE493A3F8E493A3C8C582C8CAC591
:100DA00083CAF0A3C8C582C8CAC583CADFE9DEE723
:100DB00080BE4449535020776966690D0A00444952
:100DC000535020636F6F6C0D0A00444953502064E8
:100DD00072790D0A00444953502066616E0D0A0075
:100DE0004449535020686561740D0A0044495350CA
:100DF000206C6F770D0A0044495350206D65640DD7
:100E00000A004449535020686967680D0A00444944
:100E1000535020747572626F0D0A0044495350207C
:100E200074656E733D000D0A0044495350206F6E87
:100E300065733D00FC60DAF266B6BEE0FEF6C2AF56
:100E400075FEC1AFFFD2AFEF5430FD7C0070047966
:100E500020801CED64104C700479108012ED642029
:100E60004C700479088008ED64304C70027904E914
:100E700024F8601824F8602024F06028241C7030C6
:100E80009000687401F0A374F4F0802690006874F8
:100E900003F0A374E8F0801A9000687407F0A3745C
:100EA000D0F0800E900068740FF0A374A0F0800260
:100EB000E4F9900068E07002A3E0600C90006874B0
:100EC000FFF5F01206FA80EA2275FE8543FF2053F3
:100ED000DB7FD2AFC201E49000A0F090004BF01293
:100EE0001233E4FF12141AEF2401FDE433FC7E0FE9
:100EF0007FA01206A590009BEEF0A3EFF0E4FF1296
:100F000016A11205D17F0212141AEFC454F0FEC0CC
:100F100006E4FF12141AD0E02FF5E17F0312141A31
:100F2000E5E254804FF5E27F0412141AEF6008E501
:100F3000E254804480F5E27F0112141A8FE3121309
:100F40004043A910900013E04480F5E8120FD2024C
:100F500015E0900079EFF012170490007AEFF0128C
:100F60000FC790009CE025E0FF90009BE033FE7CE3
:100F70000012057F1204B0E0FAA3E0C39FEA9E507E
:100F80000990007AE0603F14802D120FC790009BFB
:100F9000E0FEA3E0FF7C007D0712069312057F129E
:100FA00004CFE0FAA3E0D39FEA9E401A90007AE0D3
:100FB000FF647E6011EF04FF74432DF582E434007A
:100FC000F583EFF0D20122900079E0FF1216A1EF35
:100FD000FB229000667420F0121579E4900067F00F
:100FE000900067E0FFC3951A5021E0FE1204ADE0C7
:100FF000FCA3E0FD75F002EE120518ECF0A3EDF095
:10100000120F52900067E004F080D5900066E0FF78
:1010100014F0EF70C31216B3121754900066EFF07D
:10102000121579E4900067F0900067E0FFC3951A0D
:10103000500B120B76900067E004F080EB90006696
:10104000E0FF14F0EF70D92290006FEEF0A3EFF004
:101050004E70057F300214ACE4FB90006FE0FEA3FD
:10106000E0FF4E602F7C007D0A1206A5AE030B74D4
:10107000712EF582E43400F583EDF090006FE0FE10
:10108000A3E0FF7C007D0A1206A590006FEEF0A39E
:10109000EFF080C6900076EBF0900076E0601514DB
:1010A000F0E02471F582E43400F583E02430FF128F
:1010B00014AC80E52290006FEFF07B017A0079702C
:1010C00012161D90006FE0FB7C007D0AFF7E00126F
:1010D00006A5900080EFF07C007D0AAF037E001231
:1010E00006A5AC05E0D3940940037409F07B017AAE
:1010F0000079709000857409F09000801213E67BEF
:10110000017A0079709000857406F0EC900E3493AB
:10111000900086F01D1213F17B017A0079700212A3
:10112000C5E4F509F50AF50E750D05750CA4750BEA
:1011300010F509E50E5401FFE4FEFDFCFBFAF9F899
:10114000C312072A60177413250AF582E43400F5E8
:1011500083E509F0050AE50AC39406501CAF0EAEFC
:101160000DAD0CAC0B780112073B8F0E8E0D8D0C64
:101170008C0B0509E509B41FBA850A1A22E4900010
:1011800062F0A3F0A3F0A3F01215537E177F741240
:101190001504E4FFFE12137B7F017E001213B112CF
:1011A0000C66900064E475F0011206FAC3900065C5
:1011B000E094F4900064E0940140DDE4F0A3F0904A
:1011C000006275F0011206FA900062E0FEA3E0FFF3
:1011D00012137B12127F80C0C2029000A0E01204A2
:1011E000ADE5E5F0A3E5E4F09000A0E004F0E0C395
:1011F000951A400BE4F090004BE04480F08002D25E
:10120000029000A0E0FF1216A11205D19000A0E00C
:10121000FF121704E5E254804FF5E29000A0E024AD
:1012200013F582E43400F583E04480F5E8300202EF
:10123000D2EE22900009740193900000F0900023F8
:1012400074019390004EF0121121E4F508E508C3F3
:10125000951A5023E50875F008A42429F582E43492
:1012600000F583E493FF74432508F582E43400F528
:1012700083EFF0050880D6E490004CF0A3F0227EC6
:10128000157F9E12150490004BE0FF7E001210485F
:101290007E157FA5121504AF1A7E001210487E1528
:1012A0007FA91215049000A6E0FEA3E0FF121048EB
:1012B0007E157FB0121504AFA97E001210487E156E
:1012C0007FB60215049000811207CB1216C57F402D
:1012D0001215FF1216D61216C57FC01215FFE4FCB8
:1012E0009000811207C28C82758300120644FF129F
:1012F00015FF0CECB410E91216D61216C57F8F122A
:1013000015FF0216D6C0E0C0F0C083C082C0D07501
:10131000D000C000C001C002C003C004C005C006A8
:10132000C0071211D8D007D006D005D004D003D002
:1013300002D001D000D0D0D082D083D0F0D0E03223
:10134000E4FFEFC3951A501A120505E4F0743D2F1F
:101350001204B6E4F0A3F0742B2F12055DE4F00F35
:1013600080E0E4F515F514F513F51290009A74FF7A
:10137000F0E490009DF0A3F0C20122900066EEF030
:10138000A3EFF07E147F4C1215047E147F661215B5
:10139000047E147F681215047E147F731215049066
:1013A0000066E0FEA3E0FF1210487E147F7A02156B
:1013B00004900066EEF0A3EFF0900066E07002A3E8
:1013C000E06022E4F58A758C83C28DD28C208D0575
:1013D00012176C80F8C28CC28D90006674FFF5F015
:1013E0001206FA80D422E0900E3493900086F07DAD
:1013F000089000811207CB900086E0FF90008112D8
:1014000007C2AE058E82758300EF120671900085CB
:10141000E0F582758300EF020671EF14601214602C
:101420001414601814601A2404701E90002580089B
:101430009000268003900027E493FF22E4FF021728
:1014400004900017740193FF227F00224144422D33
:10145000437572736F722053544147452D31422DAD
:10146000302E312E32002000323032362D30392DE0
:10147000303700207469636B3D000D0A00E4900072
:10148000A1F090006FF090006FE0FFC3951A501329
:10149000120B7690006FE0FF12008090006FE00466
:1014A000F080E3AF15AE14AD13AC12229000A87417
:1014B00080F0A3E4F08F9FE59520E1199000A8E06B
:1014C0007002A3E0600F9000A874FFF5F01206FA16
:1014D00012176C80E2021770AD07ED75F008A424B6
:1014E0002BF582E43400F583E493FEED75F008A457
:1014F000242CF582E43400F583E4937C002400FF7F
:10150000EC3EFE2290006FEEF0A3EFF090006FE053
:10151000FEA3E0F5828E83E493FF600F1214AC907B
:10152000006FE475F0011206FA80E1221215C14342
:10153000A910D2AF12176C120EC912176C9000A22C
:1015400012078500000000E49000A6F0A3F0AF1A97
:101550000210B5439A0F4391F043B1F043C1C075F7
:10156000D9FF12168F12166912174C12173A12165B
:101570003A12152CD2AF02176CE4FE90004BE054E7
:101580007FF0D2EE90004BE054807011120E3E437B
:10159000CF100EEEC394647480948040E722544BC5
:1015A0002073743D00206E3D0020646F6E653D0029
:1015B000206965313D000D0A004B455920746B3D93
:1015C00000439A10539BEFD2844391055392FAD271
:1015D00090D29243A1A453A25BD2A2D2A5D2A722B9
:1015E000E4FFEFC3951A50161204ACE0FCA3E0FD33
:1015F0009000011204CEECF0A3EDF00F80E422AED7
:1016000007E4FDC2B1EE1392B0121731D2B1121736
:1016100031EEC313FE0DEDB408E9C2B12290008192
:101620001207CBE4FF9000811207C28F82758300FE
:10163000E41206710FEFB410EC22E4FDFCD2A41208
:1016400016E7C2A41216E70DBD00010CBC01EEBDE9
:101650002CEB221214D8EF7803C333CE33CED8F953
:10166000FF7C007D0A1206A522539A9F439B60438C
:101670008F30759550759D15759E01227F109000D5
:1016800066E4F0A3DFFC7B017A0079660212C543B1
:101690008E01E58954F04401F589C28CC2A9C28D3E
:1016A00022EF75F008A42428F582E43400F583E4E1
:1016B00093FF22E4FFEFC3951A50091204AC120500
:1016C000A10F80F122D2B0D2B1121731C2B01217DD
:1016D00031C2B1021731C2B0C2B1121731D2B11248
:1016E0001731D2B0021731E4FFFE000FBF00010E28
:1016F000BE01F7BFE0F42243B10353B2FCD2B1D232
:10170000B002167C74432FF582E43400F583E0FFC9
:101710002290000DE493FE740193FF22900011E4E7
:1017200093FE740193FF22900000E075F00384FFA4
:1017300022E4FF000FEFB40CFA2243A11053A2EFF2
:10174000C2A4224100610041009F0000E49000AA71
:10175000F00216F790000B740193FF2290000574BD
:101760000193FF22900000E0C313FF2243CF102219
:101770005395FE220D0A007F0122D2EE22A2012201
:03178000D2012271
:00000001FF
