:030000000201EC0E
:0C01EC00787FE4F6D8FD7581150200ABA9
:03020B000D0A00D9
:0402030043CF1022B3
:0B01F800A2844003D38001C392842244
:10018A00439A0F4391F043B1F043C1C075D9FF437D
:10019A009A10539BEFC2841201DA1201C7020203BA
:1000AB00E4F508F50912018A7E027F0B1201AAE41E
:1000BB00FFFE12010E0509E509700205081201F891
:1000CB00AF09AE0812010E7FF47E0112013C120241
:0300DB000380E2BD
:1000DE004144422D437572736F722053544147450C
:1000EE002D302D302E312E30002000323032362D74
:1000FE0030392D303700207469636B3D000D0A00D6
:040207005395FE22EB
:1001C700539A9F439B60438F30759550759D157566
:0301D7009E012264
:100167007514807515008F9FE59520E113E51545FA
:1001770014600DE51515157002151412020380E8B9
:030187000202076A
:1001AA008E0C8F0D850D82850C83E493FF600D12F2
:0D01BA000167050DE50D70EC050C80E822D5
:040058008E0C8F0D6E
:10005C00E50D450C70057F30020167E4FBE50D45AD
:10006C000C6025AE0CAF0D7C007D0A120003AE03B4
:10007C000B740E2EF8A605AE0CAF0D7C007D0A128B
:10008C0000038E0C8F0D80D58B13E51360101513A8
:0E009C00740E2513F8E62430FF12016780EC85
:0100AA002233
:10010E008E0A8F0B7E007FDE1201AA7E007FF71211
:10011E0001AA7E007FF91201AA7E017F041201AAB4
:0E012E00AF0BAE0A1200587E017F0B0201AA31
:1001DA00438E01E58954F04401F589C28CC2A9C253
:0201EA008D2264
:10013C008E0A8F0BE50B450A6020E4F58A758C83DB
:10014C00C28DD28C208D0512020380F8C28CC28D18
:0B015C00E50B150B70DE150A80DA229F
:10000300BC000BBE0029EF8DF084FFADF022E4CCE1
:10001300F875F008EF2FFFEE33FEEC33FCEE9DECAA
:10002300984005FCEE9DFE0FD5F0E9E4CEFD22EDF0
:10003300F8F5F0EE8420D21CFEADF075F008EF2F3A
:10004300FFED33FD4007985006D5F0F222C398FD2B
:050053000FD5F0EA22C8
:00000001FF
