:100000000213F70000000100000005000A0BB80011
:10001000C80064000200000000000400000001FFAE
:10002000FFFFFF001D04280408200501AD0428047B
:1000300008250501A90428040828050153042804FB
:100040000816050221042804081B050222042804BE
:1000500008200502521C17120A1508021FB8FC607E
:0A006000DAF266B6BEE0FEF69E027C
:100080009000F0EFF0E49000F8F09000F0E09000C5
:1000900001120977120ABA9000F1F0A3EFF0E47FA1
:1000A00001FEFDFC9000F0E0F9F81206C88F198EF1
:1000B000188D178C16AF011222AD9000F6EEF0A34A
:1000C000EFF01209CA4005120ADC8005E49000F343
:1000D000F09000F3E0640160030202329000F0E06F
:1000E000FF24251209DFE0C394FA7480948050063F
:1000F0001209DCE004F0120A8DFCE4FBFAF9F8C303
:100100001206A4600302021F900000E09000F5F0C8
:10011000122668EF6030E49000F3F0A3F0120A17A3
:1001200050181209DCE0C39401748094804006905A
:1001300000F3E004F0120AA180E3120A4A4007909B
:1001400000F5E0240FF09000F0E024251209DF1202
:100150000AFC500302021FE49000F3F012262FEF76
:10016000705E9000F4F0120A1750229000F0E06FD9
:1001700060161225F99000F4E024251209DFE0C38F
:100180009F4005120ADC8005120AA180D912266858
:10019000EF3395E04F70639000F3E0705DA3F012D1
:1001A0000A1750569000F0E06F60101225F9900089
:1001B000F4120A31E0C39F4002803C120AA180DFA2
:1001C000122668EF3395E04F70309000F5F0900004
:1001D000F4F0120A1750181209DCE0C3940274807C
:1001E000948040069000F5E004F0120AA180E390AC
:1001F00000F5120A4D4003120ADC9000F3E064019E
:100200007002D200E5154519FFE5144518FEE51307
:100210004517FDE51245168F158E148D13F51290B6
:1002200000F0E0FF243D12098DE4F0A3120A24023D
:1002300004459000F0E0FF1224A59000F1E0FCA33B
:10024000E0FDD31209BE4008120A2EE004F0800B34
:10025000900161E004F0120A2EE4F0120AC4C3E433
:100260009FFBE49EFAC3ED9BEA1209C04066D312DD
:1002700009CB5060120A6BF583E4120A241209F5C7
:1002800060030203999000F1E0FEA3E0FF9000F00C
:10029000E0900031120A11EE8FF01205641225E48D
:1002A0001209AC40091209E7E475F0018019122522
:1002B000E4C3E49FFFE49EFE1209AC4003020399ED
:1002C0001209E774FFF5F01205641209A2E4F0A325
:1002D000F0020399120AC4C3E49FFFE41209C85054
:1002E00073120A6B120A20F583E4F0743D2FF58235
:1002F000E43400F583E0FF75F00A84E5F07044C350
:10030000EF9464748094809000F0E04010120A70C2
:10031000F583E4F0D20190006104F080261209EC2C
:10032000C083C082E0FEA3E0FF90004EE0A2E7138E
:10033000FD3395E0FCC3EF9DFFEE9CD082D083F0AF
:10034000A3EFF09000F0E0FF90015AE06F704A7464
:10035000FFF08045120AC4D31209CB403C9000F054
:10036000E0120A701209F57030120AE3120A20F541
:1003700083E064207023120AE3F583E4F090004EDA
:10038000E0A2E713A2E713FD3395E0FC75F002EF5E
:100390001209EFEC8DF0120564120A8D4D4E4F706C
:1003A000030204519000F6E0FCA3E0FDAE047802E5
:1003B000CEA2E713CE13D8F8FFC3ED9FFFEC1209CE
:1003C000C8400302044A120A3CE004F012263790A7
:1003D00000F5EFF0E49000F4F0120A17501812093B
:1003E000DCE0C394017480948040069000F3E00444
:1003F000F0120AA180E3120A4A4008900000E0903F
:1004000000F5F09000F0E0FB120A40120AFC5003E5
:1004100002049B745B2B120A42E4F0AF19AE18ADD4
:1004200017AC16120697E5155FFFE5145EFEE5139F
:100430005DFDE5125C8F158E148D13F51274252B5E
:10044000F582E43400F583E4F022120A3CE014F073
:10045000229000F0E024251209DF1209F7700890BD
:1004600000F0E0FF12173AE51A14FF9000F0E06F79
:100470007029900161E0C3951A4020E49000F4F0E7
:10048000120A17500E1209DCE06003120ADC120A8D
:10049000A180ED9000F3E07002C20022BB010CE5E8
:1004A0008229F582E5833AF583E0225006E9258228
:1004B000F8E622BBFE06E92582F8E222E58229F56C
:1004C00082E5833AF583E49322BB010689828A831D
:1004D000F0225002F722BBFE01F322F8BB010DE52A
:1004E0008229F582E5833AF583E8F0225006E92572
:1004F00082C8F622BBFE05E92582C8F222EF8DF004
:10050000A4A8F0CF8CF0A428CE8DF0A42EFE22BC9F
:10051000000BBE0029EF8DF084FFADF022E4CCF893
:1005200075F008EF2FFFEE33FEEC33FCEE9DEC98F8
:100530004005FCEE9DFE0FD5F0E9E4CEFD22EDF87E
:10054000F5F0EE8420D21CFEADF075F008EF2FFF21
:10055000ED33FD4007985006D5F0F222C398FD0F09
:10056000D5F0EA22C5F0F8A3E028F0C5F0F8E5825E
:10057000158270021583E038F022E88FF0A4CC8B4E
:10058000F0A42CFCE98EF0A42CFC8AF0EDA42CFC49
:10059000EA8EF0A4CDA8F08BF0A42DCC3825F0FD88
:1005A000E98FF0A42CCD35F0FCEB8EF0A4FEA9F081
:1005B000EB8FF0A4CFC5F02ECD39FEE43CFCEAA4CD
:1005C0002DCE35F0FDE43CFC2275F008758200EF7D
:1005D0002FFFEE33FECD33CDCC33CCC58233C58275
:1005E0009BED9AEC99E58298400CF582EE9BFEED2E
:1005F0009AFDEC99FC0FD5F0D6E4CEFBE4CDFAE4FD
:10060000CCF9A88222B800C1B90059BA002DEC8BF0
:10061000F084CFCECDFCE5F0CBF97818EF2FFFEECC
:1006200033FEED33FDEC33FCEB33FB10D703994085
:1006300004EB99FB0FD8E5E4F9FA227818EF2FFFC5
:10064000EE33FEED33FDEC33FCC933C910D7059B07
:10065000E99A4007EC9BFCE99AF90FD8E0E4C9FA63
:10066000E4CCFB2275F010EF2FFFEE33FEED33FDEF
:10067000CC33CCC833C810D7079BEC9AE899400A12
:10068000ED9BFDEC9AFCE899F80FD5F0DAE4CDFB90
:10069000E4CCFAE4C8F922CFF4CFCEF4CECDF4CD39
:1006A000CCF4CC22EB9FF5F0EA9E42F0E99D42F0BB
:1006B000E89C45F022E8600FECC313FCED13FDEE5F
:1006C00013FEEF13FFD8F122E8600FEFC333FFEE04
:1006D00033FEED33FDEC33FCD8F122E0FCA3E0FD6A
:1006E000A3E0FEA3E0FF22E0F8A3E0F9A3E0FAA371
:1006F000E0FB22ECF0A3EDF0A3EEF0A3EFF022A8D4
:10070000828583F0D083D082120716120716120753
:1007100016120716E473E493A3C583C5F0C583C816
:10072000C582C8F0A3C583C5F0C583C8C582C822E9
:10073000A42582F582E5F03583F58322E0FBA3E072
:10074000FAA3E0F922EBF0A3EAF0A3E9F022E490A7
:1007500000EFF09000EFE0FFC39406505A12245AC5
:100760009000F0EFF060481224BB9000EFE07008BA
:10077000A3E0FF121A0A80379000EFE0B40108A34B
:10078000E0FF12163080289000EFE0B40305121D40
:100790003B801C9000EFE0B40205121928801090F5
:1007A00000EFE0B404047F018002E4FF1224F6901D
:1007B00000EFE004F0809C900119E0603490013C6F
:1007C000E0702E90011BE0702890013AE07022C387
:1007D000900125E09498900124E0943A5009E47542
:1007E000F001120564800A90013A7401F09001183A
:1007F000F090013CE0604E90012DE475F00112058F
:1008000064900121E475F001120564C3900122E0B7
:1008100094F4900121E094014019E4F0A3F09001D8
:1008200020E07F0070027F01900120EFF09001181E
:100830007401F0C390012EE0948890012DE0941390
:100840004003121C2390011BE06023900136E475E5
:10085000F001120564C3900137E09488900136E0FE
:100860009413400AE490011BF090011804F0E4FF97
:10087000FEFDFC9001271206E7C31206A460439018
:1008800001271206DBEF24FFFFEE34FFFEED34FFFD
:10089000FDEC34FFFC9001271206F3E4FFFEFDFCA3
:1008A0009001271206E7C31206A4701690011DE0FE
:1008B0006004E4FF80027F0112210C7E137F251269
:1008C00025EF90012FE0607DE4FFFEFDFC900132FA
:1008D0001206E7C31206A4601C9001321206DBEF79
:1008E00024FFFFEE34FFFEED34FFFDEC34FFFC90FF
:1008F00001321206F390012BE475F001120564C376
:1009000090012CE094FA90012BE094004019E4F05F
:10091000A3F090011CE07F0070027F0190011CEFAA
:10092000F09001187401F0E4FFFEFDFC900132121A
:1009300006E7C31206A4700D90012FF090011CF081
:1009400090011804F0900130E475F00112056490F4
:100950000118E0700FC3900131E09432900130E053
:100960009400400EE4900130F0A3F0900118F012D2
:10097000107822E090004FFF75F002120730E0FC83
:10098000A3E0FDEF90001975F002020730F582E454
:100990003400F583E4F0745B2FF582E43400F583D2
:1009A000E4F0900031EF75F0020207309000F0E0C3
:1009B00075F002900031120730E0FCA3E0C39FEE17
:1009C0006480F8EC648098229EFEC39000F2E09F61
:1009D000EE6480F89000F1E06480982274252FF591
:1009E00082E43400F583229000F0E0FF75F002907D
:1009F0000001020730F583E4F0FFFEFDFCAB15AA11
:100A000014A913A812C30206A49000F1E0FD9000FF
:100A10004F75F0020207309000F4E0FFC3951A22F0
:100A2000F583E004F0740D2FF582E4340022900089
:100A3000F0E0242BF582E43400F583229000F0E00E
:100A4000245BF582E43400F583229000F3E0C39444
:100A50000374809480227D0A12050FAD037C00127E
:100A600004FD9000F9E0FD900001229000F0E0FF0D
:100A7000243DF582E4340022E0FCA3E0FD75F002A1
:100A8000EF90004F120730ECF0A3EDF022E5155582
:100A900019FFE5145518FEE5135517FDE512551617
:100AA000229000F4E004F0227E0090015BE0FCA3C1
:100AB000E0FD1204FD8EE78FE622E0FEA3E0C39D79
:100AC000FFEE9C2290004EE0FF3395E0FE22A4FF53
:100AD000E0C39FE5F06480F8748098229000F3747E
:100AE00001F0229000F0E0FF240DF582E4340022B2
:100AF00090004EE0FB3395E0FAFEEB22E0FF900021
:100B0000F5E0FEEFC39E229FEE6480F8EA648098D1
:100B1000229000EFE0FF900159E02290004BE0FFAF
:100B200030E70F547FF0120F4B9001491206F31279
:100B3000266BE4FB9001491206DBEB90005593F91C
:100B4000F81206B5EF5401FFEF7003020C56EB25C7
:100B5000E0244DF582E43401F583E0FEA3E0C39484
:100B600060EE94EA5013EB25E0244DF582E4340165
:100B7000F583E475F001120564EB25E0244DF58260
:100B8000E43401F583E0FEA3E064014E703DEB64C4
:100B900003600EEB64026009EB64046004EBB405CF
:100BA0000D74432BF582E43401F5837401F0EBB44A
:100BB00001192443F582E43401F583E0700D744398
:100BC0002BF582E43401F5837401F0EB25E0244D2C
:100BD000F582E43401F583E0FEA3E064B87003EE2F
:100BE000640B702D743D2BF582E43401F583E070C5
:100BF00020743D2BF582E43401F5837401F0EB6041
:100C000003B4010D74432BF582E43401F5837402BF
:100C1000F0EB64046005EB6405707FEB25E0244D88
:100C2000F582E43401F583E0FEA3E0FFC39490EE87
:100C300094014066EF2470FFEE34FEFE7C007DC818
:100C400012050FED4C705374432BF582E43401F51B
:100C5000837403F08044EB7025EB25E0244DF5828E
:100C6000E43401F583E0FEA3E0C39428EE94004051
:100C70000D74432BF582E43401F5837401F0EB2508
:100C8000E0244DF582E43401F583E4F0A3F0743DF3
:100C90002BF582E43401F583E4F00BEB640660038A
:100CA000020B34229000F5EFF0A3EDF0A3EBF07B04
:100CB000017A0079FF12243D9000FEE0FC6401708F
:100CC000237B017A0079FF9001157409F090006987
:100CD000121F0E7B017A0079FF9001157406F090C7
:100CE00000698033EC64027014121EFF7B017A00ED
:100CF00079FF9001157406F090005F801A9000FE55
:100D0000E064037015121EFF7B017A0079FF9001E9
:100D1000157406F0900060E480539000F9E060568E
:100D2000A3E0FFC39464504EEFFB7C007D0A7E007D
:100D300012050F90010FEFF07C007D0AAF037E00DB
:100D400012050FAC057B017A0079FF90011574093B
:100D5000F090010FE090005E121F0F7B017A007986
:100D6000FF9001157406F0AF04EF90005E939001C0
:100D700016F01D121F169000F5E06064A3E070608D
:100D8000A3E0FD70099000FFE04404F08021EDB481
:100D900001099000FFE04410F080149000F7E0900B
:100DA0000100B40206E04408F08004E04402F09040
:100DB00000F8E0FD7009900109E04404F08021EDA5
:100DC000B40109900109E04410F080149000F8E0AB
:100DD00090010EB40206E04402F08004E04408F002
:100DE0009000FBE06007900100E04410F09000FCF0
:100DF000E06007900109E04402F09000FDE09001FE
:100E00001060057488F08003748FF07B017A00799C
:100E1000FF900110E0FD021E729000EFEFF09001D4
:100E20005F120A4D403EE4F0900061E0702B9000AC
:100E3000F0F09000F0E0C3951A501EE0FF120A0E89
:100E4000E0FCA3E0FD75F002EF1209EFECF0A3ED7A
:100E5000F09000F0E004F080D9121FF3C201E4909A
:100E60000061F022900159E004F0120B11B507085F
:100E700012252DE490015AF0120B11D39F5003025A
:100E80000F4AE49000F0F09000F0E0C3951A507A19
:100E9000120973120ABAAD07FC900061E0702E12BD
:100EA0000AF07802C333CE33CED8F9FFD3ED12095E
:100EB000BE4046E49BFFE49AFEEF7802C333CE3394
:100EC000CED8F9FFC3ED1209BE502E803D120AF0B4
:100ED0007803C333CE33CED8F9FFD3ED1209BE4029
:100EE00018E49BFFE49AFEEF7803C333CE33CED8E9
:100EF000F9FFC3ED1209BE40119000F0E0FF12119E
:100F0000839000F0E004F0020E879000F0E0B51A44
:100F10000690015AE004F09000EFE0FD75F00890B3
:100F20000159120ACE4023E4F0C20090015FE004B0
:100F3000F0ED75F00490015A120ACE400DE49001D4
:100F40005FF0122400121FF3C20122E4F509F5112B
:100F5000F510F50FF50E12266E50030210641221E3
:100F6000A08F0D8E0C8D0B8C0AE4F508E508C39557
:100F70001A505CE50D5401FFE4FEFDFCFBFAF9F8A4
:100F8000C31206A46030E47F01FEFDFC7413250843
:100F9000F582E43400F583E0F9F81206C8E5114F54
:100FA000FFE5104EFEE50F4DFDE50E4C8F118E1046
:100FB0008D0FF50E0509AF0DAE0CAD0BAC0A780127
:100FC0001206B58F0D8E0C8D0B8C0A0508809DE5E1
:100FD00009C394024015D200E50994034005122686
:100FE00071800812262FEF6002C200200028E4FF63
:100FF000FEFDFCAB11AA10A90FA80EC31206A46037
:101000000C90004CE475F001120564801CE4900023
:101010004CF0A3F08013900049E475F001120564D0
:10102000E4F511F510F50FF50E1225D9D390004D0A
:10103000E09F90004CE09E400A122671E490004C24
:10104000F0A3F0D390004AE0942C900049E0940182
:10105000401D1226719000617401F0E4900049F087
:10106000A3F0800B900013E4740193FF120E19AFEC
:1010700011AE10AD0FAC0E22E49000F1F0A3F0A37E
:10108000F0A3F0FFFEFDFC9001271206E7C3120655
:10109000A460069000F37401F0900119E0600C90D8
:1010A0000138E060069000F47401F090013CE060CB
:1010B0001F9000F37401F0900120E07003021140D2
:1010C0009000F17401F090011FE09000F2F0807048
:1010D00090011BE060369000F37401F0900127123C
:1010E00006DBEF247FFFEE34EEFEED3436FDE43C0C
:1010F000FC7B807AEE79367800120605EF70027F6D
:10110000019000F17401F0A3EFF08034900119E038
:10111000602E9000F17401F0900126E09000F2F052
:10112000900138E0701A900123E0FFB406089000A7
:10113000F47402F0800AEFB407069000F47403F030
:10114000900119E0FF90013AE0FDA3E0FB90011A45
:10115000E09000F8F09000F1E09000F9F09000F2DB
:10116000E09000FAF09000F3E09000FBF090011C9A
:10117000E09000FCF0A3EDF09000F4E09000FEF0B1
:10118000020CA49000F1EFF0F9120973120ABA9060
:1011900000F2F0A3EFF0AF011222ADAD07AC069064
:1011A00000F2E0FEA3E0FFD39DEC6480F8EE6480E3
:1011B000985014C3E49DFBE49CFAC3EF9BEA64805F
:1011C000F8EE648098500E9000F1E0FF120984124E
:1011D0000A78021267ECA2E713FEED13FF9000F20B
:1011E000E0FAA3E0FBD3120B075016ECA2E713FEC4
:1011F000ED13FFC3E49FFFE49EFEC3EB120B075009
:1012000023120A09E0FAA3E0FBEAC313FEEB13FF83
:10121000C3EB9FFBEA9EFAED120984E0C313FEA321
:10122000E0138032120A09E0FAA3E0FBAE02780371
:10123000CEC313CE13D8F9FFC3EB9FFBEA9EFA751A
:10124000F002ED900019120730E0FEA3E07803CE23
:10125000C313CE13D8F92BFFEA3EFE9000F1E01243
:101260000A0EEEF0A3EFF09000F1120973ECF0A378
:10127000EDF0220D0A00484D49207077723D310093
:10128000484D49207077723D3000484D49207473B5
:101290003D00460D0A00430D0A00484D4920746D7B
:1012A000723D3000484D4920746D723D00680D0A52
:1012B00000484D49207769666900484D4920756EA0
:1012C00069743D4300484D4920756E69743D460080
:1012D000484D492066616E3D00484D49206D6F6460
:1012E000653D00484D4920746D7220656469740045
:1012F000484D4920703D00206D3D0020663D002096
:1013000074733D004600430020746D723D002077E9
:101310003D00207361763D00206C6F73743D0020AA
:10132000666C743D00484D4920746D7220646F6E88
:10133000650001020300010300027E127FF0122308
:1013400004900119E0FF7E00121AE67E127FF71268
:10135000230490013BE0FF7E00121AE67E127FFB21
:1013600012230490011AE0FF7E00121AE67E127F1B
:10137000FF122304900126E0FF7E00121AE690017E
:1013800039E060067E137F0480047E137F061223FB
:10139000047E137F081223047B807AEE793678006E
:1013A0009001271206DB120605121AE67E137F0E45
:1013B00012230490012FE0FF7E00121AE67E137FB5
:1013C0001212230490013AE0FF7E00121AE67E1307
:1013D0007F18122304900138E0FF7E00121AE67E87
:1013E000137F1F122304900123E0FF7E00121AE6F0
:1013F0007E127F73022304787FE4F6D8FD9000000C
:101400007F007E20E4F0A3DFFCDEFA758120021469
:101410004C02232CE493A3F8E493A34003F6800149
:10142000F208DFF48029E493A3F85407240CC8C31E
:1014300033C4540F4420C8834004F456800146F658
:10144000DFE4800B010204081020408090261EE497
:101450007E019360BCA3FF543F30E509541FFEE4B6
:1014600093A360010ECF54C025E060A840B8E49378
:10147000A3FAE493A3F8E493A3C8C582C8CAC583BA
:10148000CAF0A3C8C582C8CAC583CADFE9DEE7803F
:10149000BEE4900119F090013BF090011A04F09025
:1014A0000117F0900139F09001267448F0E49001A2
:1014B0003AF090013CF090011BF09001271206FFDA
:1014C00000000000E490011DF090012F04F0900155
:1014D000321206FF0002BF2090011C7401F0E4905C
:1014E000012BF0A3F090012004F0E4A3F0A3F0900E
:1014F000011EF0900124F0A3F090012DF0A3F090D4
:101500000136F0A3F0900130F0A3F090011804F040
:10151000E4900138F0900123F0021078C2AF75FE1C
:10152000C1AFFFD2AFEF5430FD7C00700479208052
:101530001CED64104C700479108012ED64204C7026
:101540000479088008ED64304C70027904E924F8CD
:10155000601824F8602024F06028241C703090006B
:10156000F17401F0A374F4F080269000F17403F09C
:10157000A374E8F0801A9000F17407F0A374D0F01F
:10158000800E9000F1740FF0A374A0F08002E4F9D3
:101590009000F1E07002A3E0600C9000F174FFF5A0
:1015A000F012056480EA2275FE8543FF2053DB7F3D
:1015B000D2AFC201E4900160F090004BF0121DDB4D
:1015C000E4FF12213EEF2401FDE433FC7E0F7FA0F7
:1015D00012050F90015BEEF0A3EFF0E4FF12251B64
:1015E000120AA87F0212213EEFC454F0FEC006E4A6
:1015F000FF12213ED0E02FF5E17F0312213EE5E20C
:1016000054804FF5E27F0412213EEF6008E5E2547A
:10161000804480F5E27F0112213E8FE3121FF343E5
:10162000A910900013E04480F5E81218B2022400DB
:101630009000F1EFF064027037900119E07075903E
:101640000139E09001266012E0FF1220D6EFF0E4AD
:10165000900139F07E127FBA8011E0FF1221CFEFA6
:10166000F09001397401F07E127FC51225EF803EA3
:101670009000F1E06401703C900119E06036900147
:101680003BE06401602E90011AE0901332939001C8
:101690001AF0900117F07E127FD012230490011AE5
:1016A000E0FF7E00121AE67E127F7312230490017F
:1016B000187401F022505752207478002073756D11
:1016C0003D00206375723D7365740D0A00505752DA
:1016D000206C6F73740D0A00505752206F6B0D0A07
:1016E00000505752207278207665723D0020747940
:1016F00070653D00206661756C743D000D0A0050F8
:10170000575220555343493220343830302050341A
:101710002E342F50342E3520706572696F643D3140
:1017200035306D73206375723D736574206E6F2064
:101730004E54430D0A00030002019000F9EFF0122D
:1017400025CC9000FAEFF01217AF90015CE025E095
:10175000FF90015BE033FE7C00120A56120987E01D
:10176000FAA3E0C39FEA9E50099000FAE0603F149C
:10177000802D1217AF90015BE0FEA3E0FF7C007D9F
:10178000071204FD120A561209A6E0FAA3E0D39F3D
:10179000EA9E401A9000FAE0FF647E6011EF04FFB9
:1017A00074432DF582E43400F583EFF0D2012290EA
:1017B00000F9E0FF12251BEFFB227B017A00796D17
:1017C0007D201223BF90008DE06F706AE49000A529
:1017D000F0A3F0FF12228190006FE09000A8F0903B
:1017E0000070E09000A7F0900076E0FF90006CF0B1
:1017F0001225A29000A47401F090006AE0FF90000E
:10180000A8E0FEB50718900069E0FF9000A7E0B5DA
:10181000070C900068E0FF90006CE06F601890008B
:101820006AEEF09000A7E0900069F090006CE09004
:101830000068F012202E2212263F9000F2EFF012E4
:1018400026459000F3EFF012264B9000F4EFF012D3
:1018500025619000F3E0D394034002E4F090008E01
:101860007466F0A37499F0EF2428A3F0A3F090001D
:10187000F2E0FF9000F4E0FD122615EFC454F0FFF3
:101880009000F3E0901736934F900092F09000F2A2
:10189000E05401900093F07F0E900094E4F0A3DFF9
:1018A000FC7B017A00798E7D141223BF9000A2EF99
:1018B000F0229000EF7420F0122376E49000F0F014
:1018C0009000F0E0FFC3951A5021E0FE120984E079
:1018D000FCA3E0FD75F002EE1209EFECF0A3EDF0D1
:1018E00012173A9000F0E004F080D59000EFE0FF8E
:1018F00014F0EF70C312252D1226279000EFEFF0A1
:10190000122376E49000F0F09000F0E0FFC3951A07
:10191000500B1211839000F0E004F080EB9000EF88
:10192000E0FF14F0EF70D92290013CE06003021C4C
:101930002390011BE060159001271206FF000000B4
:1019400000E490011BF07E127F9A8044E4FFFEFDCC
:10195000FC9001271206E7C31206A4601390011B36
:101960007401F0E4900136F0A3F090011804F02225
:1019700090013C7401F090011FF0E490012DF0A360
:10198000F0900121F0A3F090012004F07E127FE39B
:101990001225EF9001187401F022E49000F0F07B22
:1019A000017A0079EF122255EF60149000EFE0FF0A
:1019B000121BBF9000F0E004F0E0C3941040E090F0
:1019C0000062E475F001120564C3900063E0949630
:1019D000900062E094004007E4F0A3F0121A78C38C
:1019E0009000A6E094889000A5E09413501BE47545
:1019F000F001120564C39000A6E094889000A5E071
:101A0000941340057F01122281229000F1EFF064CF
:101A1000027033900119E0705E90012F04F0900184
:101A2000321206FF0002BF20E490012BF0A3F090D9
:101A3000011C04F090011EF07E127FB11225EF9080
:101A400001187401F0229000F1E064017029900106
:101A50001EE06003E4F022900119E0900127600B82
:101A60001206FF00000000E4FF80091206FF0000DC
:101A700000007F0112210C22121837E49000F1F0CF
:101A80009000F1E0FFC394155017748E2FF582E497
:101A90003400F583E0FF121F3F9000F1E004F08076
:101AA000DFE4FF900064E0FE900090E0FDB50618D2
:101AB000900065E0FE900092E0B5060C900066E0B4
:101AC000FE900093E06E60177F01900064EDF0904F
:101AD0000092E0900065F0900093E0900066F0EFD7
:101AE0006003121EBA229000F2EEF0A3EFF04E70E7
:101AF000057F30022229E4FB9000F2E0FEA3E0FF24
:101B00004E602F7C007D0A12050FAE030B74F42E7D
:101B1000F582E43400F583EDF09000F2E0FEA3E0FE
:101B2000FF7C007D0A12050F9000F2EEF0A3EFF0AB
:101B300080C69000F9EBF09000F9E0601514F0E039
:101B400024F4F582E43400F583E02430FF122229E6
:101B500080E522900139E0601DEF600C900126E0E5
:101B6000C394585003E004F0EF7029900126E0D3AD
:101B7000943D4020801BEF600C900126E0C3941F31
:101B80005003E004F0EF700C900126E0D394104075
:101B900003E014F07E127F8A122304900126E0FFF6
:101BA0007E00121AE6900139E060067E127F928074
:101BB000047E127F961223049001187401F0229083
:101BC000006BE0FE7011EF6455705790006DEFF000
:101BD00090006B7401F022EE6401701FEFB45A0C98
:101BE00090006EF09000A37402F0800AEFB45505E7
:101BF00090006DF022E490006BF0229000A3E024AE
:101C00006DF582E43400F583EFF09000A3E004F07A
:101C1000E0C39421400C1217BAE490006BF09000DE
:101C2000A3F02290011FE070139001271206FF001D
:101C30000000007E127F9A1225EF803990011FE08C
:101C4000FFE4FCFDFE7B807AEE7936F812057A908F
:101C500001271206F3900119E090011DF07E127F1A
:101C6000A412230490011FE0FF7E00121AE67E12E8
:101C70007FAD122304E490013CF090011BF0900131
:101C80001804F022E4F509F50AF50E750D05750C3A
:101C9000A4750B10F509E50E5401FFE4FEFDFCFBF5
:101CA000FAF9F8C31206A460177413250AF582E442
:101CB0003400F583E509F0050AE50AC39406501CD3
:101CC000AF0EAE0DAD0CAC0B78011206B58F0E8EBB
:101CD0000D8D0C8C0B0509E509B41FBA850A1A2273
:101CE000C202900160E0120984E5E5F0A3E5E4F0AA
:101CF000900160E004F0E0C3951A400BE4F090001E
:101D00004BE04480F08002D202900160E0FF122597
:101D10001B120AA8900160E0FF1225CCE5E2548076
:101D20004FF5E2900160E02413F582E43400F5837E
:101D3000E04480F5E8300202D2EE22900119E06022
:101D40004A90013BE0FF90133693FEEFB4010890F8
:101D50000117E090011AF0EEB4010D90011AE09025
:101D60000117F0E490011AF090013BEEF07E127F33
:101D7000D912230490013BE0FF7E00121AE67E1286
:101D80007F731223049001187401F0227F159000D4
:101D90008EE4F0A3DFFCE490006BF09000A3F090E1
:101DA0000067F09000A9F09000A4F090006474FF28
:101DB000F0A3F0A3F090006AF0900069F090006842
:101DC000F0E4900062F0A3F09000A5F0A3F01223DD
:101DD000517E167FFF122304021A789000097401C5
:101DE00093900000F090002374019390004EF01245
:101DF0001C84E4F508E508C3951A5023E50875F03E
:101E000008A42429F582E43400F583E493FF7443A5
:101E10002508F582E43400F583EFF0050880D6E468
:101E200090004CF0A3F0221223E143A910D2AF128C
:101E300026561215A71226569001491206FF0000D9
:101E40000000E4FFEF25E0244DF582E43401F58342
:101E5000E4F0A3F0743D2FF582E43401F583E4F05F
:101E600074432FF582E43401F583E4F00FEFB406F8
:101E7000D322900111120745900114EDF012253F75
:101E80007F4012241F12255012253F7FC012241FAD
:101E9000E4FC90011112073C8C8275830012049CB3
:101EA000FF12241F0CECB410E912255012253F90AC
:101EB0000114E0FF12241F0225507E167FB5122365
:101EC00004E49000F2F07F201222299000F2E02436
:101ED0008EF582E43400F583E0FF121F7C9000F25F
:101EE000E004F0E0C3940640DD7E167FBC122304BC
:101EF0009000A2E0FF121F7C7E167FC20223047BAB
:101F0000017A0079FF9001157409F0900068E4935C
:101F1000900116F07D08900111120745900116E01E
:101F2000FF90011112073CAE058E82758300EF12FF
:101F300004DB900115E0F582758300EF0204DB12EB
:101F4000265E9000AB7480F0A3E4F08FC7E5C42058
:101F5000E1269000ABE07002A3E0601CE5C430E035
:101F600008AFC712239B53C4FD9000AB74FFF5F07C
:101F700012056412265680D553C4FE229000F3EF5A
:101F8000F0E0C4540FA3F0C3940A5005E02430805D
:101F9000069000F4E02437FF1222299000F3E05469
:101FA0000FA3F0C3940A5005E0243080069000F49B
:101FB000E02437FF12222922C0E0C0F0C083C08293
:101FC000C0D075D000C000C001C002C003C004C0B2
:101FD00005C006C007121CE0D007D006D005D0040B
:101FE000D003D002D001D000D0D0D082D083D0F0A6
:101FF000D0E032E4FFEFC3951A501A1209DCE4F086
:10200000743D2F12098DE4F0A3F0742B2F120A34C3
:10201000E4F00F80E0E4F515F514F513F5129001E6
:102020005A74FFF0E490015DF0A3F0C201227E1625
:102030007FE11223049000A8E0FF7E00121AE67EE2
:10204000167FED1223049000A7E0FF7E00121AE62F
:102050007E167FF412230490006CE0FF7E00121ABB
:10206000E67E167FFC0223049000EFEEF0A3EFF073
:102070009000EFE07002A3E06025E4F58A758C83A0
:10208000C28DD28C208D0812248E12265680F5C265
:102090008CC28D9000EF74FFF5F012056480D122A0
:1020A0009000EFEEF0A3EFF07E217F701223047E0C
:1020B000217F891223047E217F8B1223047E217FBE
:1020C000961223049000EFE0FEA3E0FF121AE67ED2
:1020D000217F9D022304EFC3942050037F1022EF41
:1020E00024E0FFE434FFFE7C007D051204FD7D0941
:1020F00012050FC3EF9410EE940050047E007F1081
:10210000D3EF941FEE940040027F1F22900119EF3D
:10211000F0E490013CF090011BF090013AF0900146
:1021200024F0A3F0EF60091225BF7E127F768004B1
:102130007E127F801225EF9001187401F022EF14B7
:10214000601214601414601814601A2404701E9035
:10215000002580089000268003900027E493FF224A
:10216000E4FF0225CC900017740193FF227F002228
:102170004144422D437572736F7220535441474559
:102180002D322D302E312E32002000323032362DBD
:1021900030392D303700207469636B3D000D0A0023
:1021A000E4900161F09000EFF09000EFE0FFC39544
:1021B0001A50131211839000EFE0FF12008090007C
:1021C000EFE004F080E3AF15AE14AD13AC12227E45
:1021D000007C007D091204FD7D0512050FEF24200F
:1021E000FFE43EFEC3EF943DEE940050047E007F7A
:1021F0003DD3EF9458EE940040027F5822439A0F4B
:102200004391F043B1F043C1C075D9FF12250912C3
:1022100024D012266512260C122475121E271214C1
:1022200091121D8CD2AF0226569001627480F0A3E9
:10223000E4F08F9FE59520E119900162E07002A320
:10224000E0600F90016274FFF5F0120564122656EB
:1022500080E202265A12248E9000AAE0FF9000ED40
:10226000E0FEB507037F002274AD2EF582E4340052
:10227000F583E01204C99000EDE004543FF07F01C3
:10228000229000F1EFF0900067E06F601F9000F186
:10229000E0FF900067F01225829000F1E060067E7A
:1022A000167FCD80047E167FD812230422AD07ED61
:1022B00075F008A4242BF582E43400F583E493FE42
:1022C000ED75F008A4242CF582E43400F583E49342
:1022D0007C002400FFEC3EFE22EF600C90011FE02A
:1022E000C394185003E004F0EF700C90011FE0D38A
:1022F00094004003E014F0E490012DF0A3F090016D
:102300001804F0229000F3EEF0A3EFF09000F3E059
:10231000FEA3E0F5828E83E493FF600F12222990E2
:1023200000F3E475F00112056480E1221221FD7EC4
:10233000267F62122304E4FFFE1220A012133A7FCC
:10234000017E00122068120B1B12074E12199A8090
:10235000EEE49000AAF09000EDF012265E438EC0ED
:1023600053C1CF43C23075C45075C50A75C61A53E0
:10237000AAFDA304F022E4FE90004BE0547FF0D2CB
:10238000EE90004BE05480701112151C43CF100EDC
:10239000EEC394647480948040E7229000AAE0FE2B
:1023A00004543FFD9000EDE06D601374AD2EF58296
:1023B000E43400F583EFF0AF059000AAEFF022902F
:1023C00000F5120745E4FFFEEEC39D50139000F5A3
:1023D00012073C8E8275830012049C2FFF0E80E84A
:1023E00022439A10539BEFD2844391055392FAD221
:1023F00090D29243A1A453A25BD2A2D2A5D2A7228B
:10240000E4FFEFC3951A5016120983E0FCA3E0FD28
:102410009000011209A5ECF0A3EDF00F80E422AECC
:1024200007E4FDC2B1EE1392B0122603D2B1122618
:1024300003EEC313FE0DEDB408E9C2B12290011101
:10244000120745E4FF90011112073C8F827583004B
:10245000E41204DB0FEFB410EC2274432FF582E496
:102460003401F583E0FE74432FF582E43401F583F3
:10247000E4F0AF0622E4FDFCD2A4122572C2A4123D
:1024800025720DBD00010CBC01EEBD2CEB229000AD
:10249000EEE0601012265EE5C430E008AFC71223FC
:1024A0009B53C4FD221222ADEF7803C333CE33CE4B
:1024B000D8F9FF7C007D0A12050F22E4900124F078
:1024C000A3F090013AE06007E4F090011804F022D4
:1024D000539A9F439B60438F30759550759D15753A
:1024E0009E01227F109000EFE4F0A3DFFC7B017AD5
:1024F0000079EF02265190013CE060030222D9905E
:102500000119E06003121B5322438E01E58954F048
:102510004401F589C28CC2A9C28D22EF75F008A4CE
:102520002428F582E43400F583E493FF22E4FFEFEE
:10253000C3951A5009120983120A780F80F122D22A
:10254000B0D2B1122603C2B0122603C2B1022603D2
:10255000C2B0C2B1122603D2B1122603D2B00226F3
:1025600003900139E09001266005E0FF0220D6E0EB
:10257000FF22E4FFFE000FBF00010EBE01F7BFE027
:10258000F422900138E06F6008EFF09001187401B8
:10259000F022900123E06F6008EFF09001187401C1
:1025A000F0229000A9E06F60089000A9EFF01225DA
:1025B000922243B10353B2FCD2B1D2B00224E390D1
:1025C000013BE0B40105E490011AF02274432FF5B9
:1025D00082E43400F583E0FF2290000DE493FE7462
:1025E0000193FF22900011E493FE740193FF2212E5
:1025F00023047E127F73022304900000E075F00331
:1026000084FF22E4FF000FEFB40CFA2243A1105321
:10261000A2EFC2A422EF7002FF22ED04FF224100CC
:10262000610041015F000090000B740193FF229054
:102630000005740193FF22900000E0C313FF229075
:102640000119E0FF2290013BE0FF2290011AE0FF18
:10265000227D8F021E7243CF10225395FE2275DC1D
:1026600002220D0A000225B27F0122D2EE22A2012F
:0426700022D201224F
:00000001FF
