:030000000201D129
:0C01D100787FE4F6D8FD7581150200ABC4
:0301F0000D0A00F5
:0401E80043CF1022CF
:0B01DD00A2844003D38001C39284225F
:10013D00E4FDFCC3ED9FEC9E50191201E8E4FBFABF
:10014D00000BBB00010ABA01F7BB90F40DBD000115
:03015D000C80E033
:01016000227C
:10018400439A0F4391F043B1F043C1C075D9FF4383
:0D0194009A10539BEFC2841201BE0201E8D5
:1000AB00E4F508F5091201847E017FF01201A1E449
:1000BB00FFFE12010F0509E509700205081201DDAB
:1000CB00AF09AE0812010F7FF47E0112013D120140
:0300DB00E880E2D8
:1000DE004144422D437572736F722053544147450C
:1000EE002D4D312D302E312E300020003230323653
:1000FE002D30392D303700207469636B3D000D0AA9
:01010E0000F0
:0401EC005395FE2207
:1001BE00539A9F439B60438F30759550759D15756F
:0301CE009E01226D
:100161007514807515008F9FE59520E113E5154500
:1001710014600DE5151515700215141201E880E8DB
:030181000201EC8C
:1001A1008E0C8F0D850D82850C83E493FF600D12FB
:0D01B1000161050DE50D70EC050C80E822E4
:040058008E0C8F0D6E
:10005C00E50D450C70057F30020161E4FBE50D45B3
:10006C000C6025AE0CAF0D7C007D0A120003AE03B4
:10007C000B740E2EF8A605AE0CAF0D7C007D0A128B
:10008C0000038E0C8F0D80D58B13E51360101513A8
:0E009C00740E2513F8E62430FF12016180EC8B
:0100AA002233
:10010F008E0A8F0B7E007FDE1201A17E007FF81218
:10011F0001A17E007FFA1201A17E017F051201A1CC
:0E012F00AF0BAE0A1200587E017F0C0201A138
:10000300BC000BBE0029EF8DF084FFADF022E4CCE1
:10001300F875F008EF2FFFEE33FEEC33FCEE9DECAA
:10002300984005FCEE9DFE0FD5F0E9E4CEFD22EDF0
:10003300F8F5F0EE8420D21CFEADF075F008EF2F3A
:10004300FFED33FD4007985006D5F0F222C398FD2B
:050053000FD5F0EA22C8
:00000001FF
