:030000000204AC4B
:0C04AC00787FE4F6D8FD7581260202C9B5
:0304D9000D0A0009
:0404D10043CF1022E3
:0B04B800A2844003D38001C392842281
:10038D00439A0F4391F043B1F043C1C075D9FF4378
:10039D009A10539BEFC2841204591204461204CBD7
:0303AD000204D176
:1002C900E4F508F50912038D7E047FD91203D3E4FE
:1002D900FFFE1203340509E509700205081204B886
:1002E900AF09AE08120334AF09AE081200037FF458
:0A02F9007E011203621204D180DBC3
:100303004144422D437572736F72205354414745E4
:100313002D31412D302E312E320020003230323635
:100323002D30392D303700207469636B3D000D0A81
:0103330000C9
:0404D5005395FE221B
:10044600539A9F439B60438F30759550759D1575E4
:030456009E0122E2
:1003B0007524807525008F9FE59520E113E525457F
:1003C00024600DE5251525700215241204D180E85E
:0303D0000204D54F
:1003D3008E1C8F1D851D82851C83E493FF600D1287
:0D03E30003B0051DE51D70EC051C80E8222F
:040237008E1C8F1D6D
:10023B00E51D451C70057F300203B0E4FBE51D4551
:10024B001C6025AE1CAF1D7C007D0A120156AE034F
:10025B000B741E2EF8A605AE1CAF1D7C007D0A127A
:10026B0001568E1C8F1D80D58B23E5236010152323
:0E027B00741E2523F8E62430FF1203B080EC39
:010289002252
:100334008E0A8F0B7E037F031203D37E037F1D126D
:1003440003D37E037F1F1203D37E037F2A1203D3BA
:0E035400AF0BAE0A1202377E037F310203D3D5
:10045900438E01E58954F04401F589C28CC2A9C2D1
:020469008D22E2
:100362008E0A8F0BE50B450A6020E4F58A758C83B3
:10037200C28DD28C208D051204D180F8C28CC28D20
:0B038200E50B150B70DE150A80DA2277
:0704C300E4FF000FBF0CFB7A
:0104CA00220F
:10047D00D2B0D2B11204C3C2B01204C3C2B10204CD
:01048D00C3AB
:10048E00C2B0C2B11204C3D2B11204C3D2B00204BC
:01049E00C39A
:0203F000AE0756
:1003F200E4FDC2B1EE1392B01204C3D2B11204C32F
:0A040200EEC313FE0DBD08EAC2B1FF
:01040C0022CD
:0D049F0043B10353B2FCD2B1D2B002046BE2
:06028A008B1C8A1D891E79
:1002900012047D7F401203F012048E12047D7FC091
:1002A0001203F0E4FCAB1CAA1DA91E8C827583000E
:1002B000120107FF1203F00CBC10EA12048E1204A4
:0902C0007D7F8F1203F002048E11
:10046B007F10780AE4F608DFFC7B007A00790A0239
:02047B00028AF3
:1001AB004449535020776966690D0A0044495350FE
:1001BB0020636F6F6C0D0A004449535020647279B1
:1001CB000D0A00444953502066616E0D0A004449E4
:1001DB00535020686561740D0A0044495350206CDC
:1001EB006F770D0A0044495350206D65640D0A006A
:1001FB004449535020686967680D0A0044495350BD
:10020B0020747572626F0D0A004449535020746557
:10021B006E733D000D0A0044495350206F6E657399
:0C022B003D00FC60DAF266B6BEE0FEF6B4
:06042A008B1C8A1D891ED7
:10043000E4FFAB1CAA1DA91E8F82758300E4120184
:05044000340FBF10EDB8
:010445002294
:10040D008B1C8A1D891EAF058F82758300E5211215
:0D041D000134852082758300E52102013441
:0604CB00E4F52602049F87
:10000300EF30E0030201067B007A00790A12042A2A
:1000130085261AE51A700A7514027E017FAB020069
:10002300EEE51AB4010A750A047E017FB70200EEF9
:10003300E51AB4020A750A107E017FC30200EEE5D9
:100043001AB4030A750B027E017FCE0200EEE51A95
:10005300B4040A750B087E017FD90200EEE51AB4D9
:10006300050A7514047E017FE50200EEE51AB40665
:10007300097514107E017FF08071E51AB4070975C4
:1000830019027E017FFB8063E51AB408097519081C
:100093007E027F078055E51AC394135021C3E51AE6
:1000A3009409F51B7B007A00790A75200990022DCB
:1000B30093F5217D0812040D7E027F14801FC3E592
:1000C3001A9413F51B7B007A00790A7520069002B7
:1000D3002D93F5217D0712040D7E027F221203D397
:1000E300AF1B7E001202377E027F1F1203D37B00F9
:1000F3007A00790A12028A0526E526C3941D400375
:03010300E4F526FA
:0101060022D6
:10010700BB010CE58229F582E5833AF583E02250AD
:1001170006E92582F8E622BBFE06E92582F8E222F7
:0D012700E58229F582E5833AF583E4932211
:10013400F8BB010DE58229F582E5833AF583E8F001
:10014400225006E92582C8F622BBFE05E92582C8AD
:02015400F22295
:10015600BC000BBE0029EF8DF084FFADF022E4CC8D
:10016600F875F008EF2FFFEE33FEEC33FCEE9DEC56
:10017600984005FCEE9DFE0FD5F0E9E4CEFD22ED9C
:10018600F8F5F0EE8420D21CFEADF075F008EF2FE6
:10019600FFED33FD4007985006D5F0F222C398FDD7
:0501A6000FD5F0EA2274
:00000001FF
